
Console.elf:     file format elf32-littlearm

Sections:
Idx Name          Size      VMA       LMA       File off  Algn
  0 .isr_vector   00000188  08000000  08000000  00010000  2**0
                  CONTENTS, ALLOC, LOAD, READONLY, DATA
  1 .text         0000d81c  08000190  08000190  00010190  2**4
                  CONTENTS, ALLOC, LOAD, READONLY, CODE
  2 .rodata       00000610  0800d9ac  0800d9ac  0001d9ac  2**2
                  CONTENTS, ALLOC, LOAD, READONLY, DATA
  3 .ARM.extab    00000000  0800dfbc  0800dfbc  000203e4  2**0
                  CONTENTS
  4 .ARM          00000008  0800dfbc  0800dfbc  0001dfbc  2**2
                  CONTENTS, ALLOC, LOAD, READONLY, DATA
  5 .preinit_array 00000000  0800dfc4  0800dfc4  000203e4  2**0
                  CONTENTS, ALLOC, LOAD, DATA
  6 .init_array   00000004  0800dfc4  0800dfc4  0001dfc4  2**2
                  CONTENTS, ALLOC, LOAD, DATA
  7 .fini_array   00000004  0800dfc8  0800dfc8  0001dfc8  2**2
                  CONTENTS, ALLOC, LOAD, DATA
  8 .data         000003e4  20000000  0800dfcc  00020000  2**2
                  CONTENTS, ALLOC, LOAD, DATA
  9 .bss          0000631c  200003e4  0800e3b0  000203e4  2**2
                  ALLOC
 10 ._user_heap_stack 00000600  20006700  0800e3b0  00026700  2**0
                  ALLOC
 11 .ARM.attributes 00000030  00000000  00000000  000203e4  2**0
                  CONTENTS, READONLY
 12 .debug_info   0002a684  00000000  00000000  00020414  2**0
                  CONTENTS, READONLY, DEBUGGING
 13 .debug_abbrev 00005604  00000000  00000000  0004aa98  2**0
                  CONTENTS, READONLY, DEBUGGING
 14 .debug_aranges 00001ca0  00000000  00000000  000500a0  2**3
                  CONTENTS, READONLY, DEBUGGING
 15 .debug_ranges 00001ab0  00000000  00000000  00051d40  2**3
                  CONTENTS, READONLY, DEBUGGING
 16 .debug_macro  00027f24  00000000  00000000  000537f0  2**0
                  CONTENTS, READONLY, DEBUGGING
 17 .debug_line   0001dbef  00000000  00000000  0007b714  2**0
                  CONTENTS, READONLY, DEBUGGING
 18 .debug_str    000d9399  00000000  00000000  00099303  2**0
                  CONTENTS, READONLY, DEBUGGING
 19 .comment      0000007b  00000000  00000000  0017269c  2**0
                  CONTENTS, READONLY
 20 .debug_frame  00007b80  00000000  00000000  00172718  2**2
                  CONTENTS, READONLY, DEBUGGING

Disassembly of section .text:

08000190 <__do_global_dtors_aux>:
 8000190:	b510      	push	{r4, lr}
 8000192:	4c05      	ldr	r4, [pc, #20]	; (80001a8 <__do_global_dtors_aux+0x18>)
 8000194:	7823      	ldrb	r3, [r4, #0]
 8000196:	b933      	cbnz	r3, 80001a6 <__do_global_dtors_aux+0x16>
 8000198:	4b04      	ldr	r3, [pc, #16]	; (80001ac <__do_global_dtors_aux+0x1c>)
 800019a:	b113      	cbz	r3, 80001a2 <__do_global_dtors_aux+0x12>
 800019c:	4804      	ldr	r0, [pc, #16]	; (80001b0 <__do_global_dtors_aux+0x20>)
 800019e:	f3af 8000 	nop.w
 80001a2:	2301      	movs	r3, #1
 80001a4:	7023      	strb	r3, [r4, #0]
 80001a6:	bd10      	pop	{r4, pc}
 80001a8:	200003e4 	.word	0x200003e4
 80001ac:	00000000 	.word	0x00000000
 80001b0:	0800d994 	.word	0x0800d994

080001b4 <frame_dummy>:
 80001b4:	b508      	push	{r3, lr}
 80001b6:	4b03      	ldr	r3, [pc, #12]	; (80001c4 <frame_dummy+0x10>)
 80001b8:	b11b      	cbz	r3, 80001c2 <frame_dummy+0xe>
 80001ba:	4903      	ldr	r1, [pc, #12]	; (80001c8 <frame_dummy+0x14>)
 80001bc:	4803      	ldr	r0, [pc, #12]	; (80001cc <frame_dummy+0x18>)
 80001be:	f3af 8000 	nop.w
 80001c2:	bd08      	pop	{r3, pc}
 80001c4:	00000000 	.word	0x00000000
 80001c8:	200003e8 	.word	0x200003e8
 80001cc:	0800d994 	.word	0x0800d994

080001d0 <strcmp>:
 80001d0:	f810 2b01 	ldrb.w	r2, [r0], #1
 80001d4:	f811 3b01 	ldrb.w	r3, [r1], #1
 80001d8:	2a01      	cmp	r2, #1
 80001da:	bf28      	it	cs
 80001dc:	429a      	cmpcs	r2, r3
 80001de:	d0f7      	beq.n	80001d0 <strcmp>
 80001e0:	1ad0      	subs	r0, r2, r3
 80001e2:	4770      	bx	lr

080001e4 <strlen>:
 80001e4:	4603      	mov	r3, r0
 80001e6:	f813 2b01 	ldrb.w	r2, [r3], #1
 80001ea:	2a00      	cmp	r2, #0
 80001ec:	d1fb      	bne.n	80001e6 <strlen+0x2>
 80001ee:	1a18      	subs	r0, r3, r0
 80001f0:	3801      	subs	r0, #1
 80001f2:	4770      	bx	lr

080001f4 <__aeabi_drsub>:
 80001f4:	f081 4100 	eor.w	r1, r1, #2147483648	; 0x80000000
 80001f8:	e002      	b.n	8000200 <__adddf3>
 80001fa:	bf00      	nop

080001fc <__aeabi_dsub>:
 80001fc:	f083 4300 	eor.w	r3, r3, #2147483648	; 0x80000000

08000200 <__adddf3>:
 8000200:	b530      	push	{r4, r5, lr}
 8000202:	ea4f 0441 	mov.w	r4, r1, lsl #1
 8000206:	ea4f 0543 	mov.w	r5, r3, lsl #1
 800020a:	ea94 0f05 	teq	r4, r5
 800020e:	bf08      	it	eq
 8000210:	ea90 0f02 	teqeq	r0, r2
 8000214:	bf1f      	itttt	ne
 8000216:	ea54 0c00 	orrsne.w	ip, r4, r0
 800021a:	ea55 0c02 	orrsne.w	ip, r5, r2
 800021e:	ea7f 5c64 	mvnsne.w	ip, r4, asr #21
 8000222:	ea7f 5c65 	mvnsne.w	ip, r5, asr #21
 8000226:	f000 80e2 	beq.w	80003ee <__adddf3+0x1ee>
 800022a:	ea4f 5454 	mov.w	r4, r4, lsr #21
 800022e:	ebd4 5555 	rsbs	r5, r4, r5, lsr #21
 8000232:	bfb8      	it	lt
 8000234:	426d      	neglt	r5, r5
 8000236:	dd0c      	ble.n	8000252 <__adddf3+0x52>
 8000238:	442c      	add	r4, r5
 800023a:	ea80 0202 	eor.w	r2, r0, r2
 800023e:	ea81 0303 	eor.w	r3, r1, r3
 8000242:	ea82 0000 	eor.w	r0, r2, r0
 8000246:	ea83 0101 	eor.w	r1, r3, r1
 800024a:	ea80 0202 	eor.w	r2, r0, r2
 800024e:	ea81 0303 	eor.w	r3, r1, r3
 8000252:	2d36      	cmp	r5, #54	; 0x36
 8000254:	bf88      	it	hi
 8000256:	bd30      	pophi	{r4, r5, pc}
 8000258:	f011 4f00 	tst.w	r1, #2147483648	; 0x80000000
 800025c:	ea4f 3101 	mov.w	r1, r1, lsl #12
 8000260:	f44f 1c80 	mov.w	ip, #1048576	; 0x100000
 8000264:	ea4c 3111 	orr.w	r1, ip, r1, lsr #12
 8000268:	d002      	beq.n	8000270 <__adddf3+0x70>
 800026a:	4240      	negs	r0, r0
 800026c:	eb61 0141 	sbc.w	r1, r1, r1, lsl #1
 8000270:	f013 4f00 	tst.w	r3, #2147483648	; 0x80000000
 8000274:	ea4f 3303 	mov.w	r3, r3, lsl #12
 8000278:	ea4c 3313 	orr.w	r3, ip, r3, lsr #12
 800027c:	d002      	beq.n	8000284 <__adddf3+0x84>
 800027e:	4252      	negs	r2, r2
 8000280:	eb63 0343 	sbc.w	r3, r3, r3, lsl #1
 8000284:	ea94 0f05 	teq	r4, r5
 8000288:	f000 80a7 	beq.w	80003da <__adddf3+0x1da>
 800028c:	f1a4 0401 	sub.w	r4, r4, #1
 8000290:	f1d5 0e20 	rsbs	lr, r5, #32
 8000294:	db0d      	blt.n	80002b2 <__adddf3+0xb2>
 8000296:	fa02 fc0e 	lsl.w	ip, r2, lr
 800029a:	fa22 f205 	lsr.w	r2, r2, r5
 800029e:	1880      	adds	r0, r0, r2
 80002a0:	f141 0100 	adc.w	r1, r1, #0
 80002a4:	fa03 f20e 	lsl.w	r2, r3, lr
 80002a8:	1880      	adds	r0, r0, r2
 80002aa:	fa43 f305 	asr.w	r3, r3, r5
 80002ae:	4159      	adcs	r1, r3
 80002b0:	e00e      	b.n	80002d0 <__adddf3+0xd0>
 80002b2:	f1a5 0520 	sub.w	r5, r5, #32
 80002b6:	f10e 0e20 	add.w	lr, lr, #32
 80002ba:	2a01      	cmp	r2, #1
 80002bc:	fa03 fc0e 	lsl.w	ip, r3, lr
 80002c0:	bf28      	it	cs
 80002c2:	f04c 0c02 	orrcs.w	ip, ip, #2
 80002c6:	fa43 f305 	asr.w	r3, r3, r5
 80002ca:	18c0      	adds	r0, r0, r3
 80002cc:	eb51 71e3 	adcs.w	r1, r1, r3, asr #31
 80002d0:	f001 4500 	and.w	r5, r1, #2147483648	; 0x80000000
 80002d4:	d507      	bpl.n	80002e6 <__adddf3+0xe6>
 80002d6:	f04f 0e00 	mov.w	lr, #0
 80002da:	f1dc 0c00 	rsbs	ip, ip, #0
 80002de:	eb7e 0000 	sbcs.w	r0, lr, r0
 80002e2:	eb6e 0101 	sbc.w	r1, lr, r1
 80002e6:	f5b1 1f80 	cmp.w	r1, #1048576	; 0x100000
 80002ea:	d31b      	bcc.n	8000324 <__adddf3+0x124>
 80002ec:	f5b1 1f00 	cmp.w	r1, #2097152	; 0x200000
 80002f0:	d30c      	bcc.n	800030c <__adddf3+0x10c>
 80002f2:	0849      	lsrs	r1, r1, #1
 80002f4:	ea5f 0030 	movs.w	r0, r0, rrx
 80002f8:	ea4f 0c3c 	mov.w	ip, ip, rrx
 80002fc:	f104 0401 	add.w	r4, r4, #1
 8000300:	ea4f 5244 	mov.w	r2, r4, lsl #21
 8000304:	f512 0f80 	cmn.w	r2, #4194304	; 0x400000
 8000308:	f080 809a 	bcs.w	8000440 <__adddf3+0x240>
 800030c:	f1bc 4f00 	cmp.w	ip, #2147483648	; 0x80000000
 8000310:	bf08      	it	eq
 8000312:	ea5f 0c50 	movseq.w	ip, r0, lsr #1
 8000316:	f150 0000 	adcs.w	r0, r0, #0
 800031a:	eb41 5104 	adc.w	r1, r1, r4, lsl #20
 800031e:	ea41 0105 	orr.w	r1, r1, r5
 8000322:	bd30      	pop	{r4, r5, pc}
 8000324:	ea5f 0c4c 	movs.w	ip, ip, lsl #1
 8000328:	4140      	adcs	r0, r0
 800032a:	eb41 0101 	adc.w	r1, r1, r1
 800032e:	f411 1f80 	tst.w	r1, #1048576	; 0x100000
 8000332:	f1a4 0401 	sub.w	r4, r4, #1
 8000336:	d1e9      	bne.n	800030c <__adddf3+0x10c>
 8000338:	f091 0f00 	teq	r1, #0
 800033c:	bf04      	itt	eq
 800033e:	4601      	moveq	r1, r0
 8000340:	2000      	moveq	r0, #0
 8000342:	fab1 f381 	clz	r3, r1
 8000346:	bf08      	it	eq
 8000348:	3320      	addeq	r3, #32
 800034a:	f1a3 030b 	sub.w	r3, r3, #11
 800034e:	f1b3 0220 	subs.w	r2, r3, #32
 8000352:	da0c      	bge.n	800036e <__adddf3+0x16e>
 8000354:	320c      	adds	r2, #12
 8000356:	dd08      	ble.n	800036a <__adddf3+0x16a>
 8000358:	f102 0c14 	add.w	ip, r2, #20
 800035c:	f1c2 020c 	rsb	r2, r2, #12
 8000360:	fa01 f00c 	lsl.w	r0, r1, ip
 8000364:	fa21 f102 	lsr.w	r1, r1, r2
 8000368:	e00c      	b.n	8000384 <__adddf3+0x184>
 800036a:	f102 0214 	add.w	r2, r2, #20
 800036e:	bfd8      	it	le
 8000370:	f1c2 0c20 	rsble	ip, r2, #32
 8000374:	fa01 f102 	lsl.w	r1, r1, r2
 8000378:	fa20 fc0c 	lsr.w	ip, r0, ip
 800037c:	bfdc      	itt	le
 800037e:	ea41 010c 	orrle.w	r1, r1, ip
 8000382:	4090      	lslle	r0, r2
 8000384:	1ae4      	subs	r4, r4, r3
 8000386:	bfa2      	ittt	ge
 8000388:	eb01 5104 	addge.w	r1, r1, r4, lsl #20
 800038c:	4329      	orrge	r1, r5
 800038e:	bd30      	popge	{r4, r5, pc}
 8000390:	ea6f 0404 	mvn.w	r4, r4
 8000394:	3c1f      	subs	r4, #31
 8000396:	da1c      	bge.n	80003d2 <__adddf3+0x1d2>
 8000398:	340c      	adds	r4, #12
 800039a:	dc0e      	bgt.n	80003ba <__adddf3+0x1ba>
 800039c:	f104 0414 	add.w	r4, r4, #20
 80003a0:	f1c4 0220 	rsb	r2, r4, #32
 80003a4:	fa20 f004 	lsr.w	r0, r0, r4
 80003a8:	fa01 f302 	lsl.w	r3, r1, r2
 80003ac:	ea40 0003 	orr.w	r0, r0, r3
 80003b0:	fa21 f304 	lsr.w	r3, r1, r4
 80003b4:	ea45 0103 	orr.w	r1, r5, r3
 80003b8:	bd30      	pop	{r4, r5, pc}
 80003ba:	f1c4 040c 	rsb	r4, r4, #12
 80003be:	f1c4 0220 	rsb	r2, r4, #32
 80003c2:	fa20 f002 	lsr.w	r0, r0, r2
 80003c6:	fa01 f304 	lsl.w	r3, r1, r4
 80003ca:	ea40 0003 	orr.w	r0, r0, r3
 80003ce:	4629      	mov	r1, r5
 80003d0:	bd30      	pop	{r4, r5, pc}
 80003d2:	fa21 f004 	lsr.w	r0, r1, r4
 80003d6:	4629      	mov	r1, r5
 80003d8:	bd30      	pop	{r4, r5, pc}
 80003da:	f094 0f00 	teq	r4, #0
 80003de:	f483 1380 	eor.w	r3, r3, #1048576	; 0x100000
 80003e2:	bf06      	itte	eq
 80003e4:	f481 1180 	eoreq.w	r1, r1, #1048576	; 0x100000
 80003e8:	3401      	addeq	r4, #1
 80003ea:	3d01      	subne	r5, #1
 80003ec:	e74e      	b.n	800028c <__adddf3+0x8c>
 80003ee:	ea7f 5c64 	mvns.w	ip, r4, asr #21
 80003f2:	bf18      	it	ne
 80003f4:	ea7f 5c65 	mvnsne.w	ip, r5, asr #21
 80003f8:	d029      	beq.n	800044e <__adddf3+0x24e>
 80003fa:	ea94 0f05 	teq	r4, r5
 80003fe:	bf08      	it	eq
 8000400:	ea90 0f02 	teqeq	r0, r2
 8000404:	d005      	beq.n	8000412 <__adddf3+0x212>
 8000406:	ea54 0c00 	orrs.w	ip, r4, r0
 800040a:	bf04      	itt	eq
 800040c:	4619      	moveq	r1, r3
 800040e:	4610      	moveq	r0, r2
 8000410:	bd30      	pop	{r4, r5, pc}
 8000412:	ea91 0f03 	teq	r1, r3
 8000416:	bf1e      	ittt	ne
 8000418:	2100      	movne	r1, #0
 800041a:	2000      	movne	r0, #0
 800041c:	bd30      	popne	{r4, r5, pc}
 800041e:	ea5f 5c54 	movs.w	ip, r4, lsr #21
 8000422:	d105      	bne.n	8000430 <__adddf3+0x230>
 8000424:	0040      	lsls	r0, r0, #1
 8000426:	4149      	adcs	r1, r1
 8000428:	bf28      	it	cs
 800042a:	f041 4100 	orrcs.w	r1, r1, #2147483648	; 0x80000000
 800042e:	bd30      	pop	{r4, r5, pc}
 8000430:	f514 0480 	adds.w	r4, r4, #4194304	; 0x400000
 8000434:	bf3c      	itt	cc
 8000436:	f501 1180 	addcc.w	r1, r1, #1048576	; 0x100000
 800043a:	bd30      	popcc	{r4, r5, pc}
 800043c:	f001 4500 	and.w	r5, r1, #2147483648	; 0x80000000
 8000440:	f045 41fe 	orr.w	r1, r5, #2130706432	; 0x7f000000
 8000444:	f441 0170 	orr.w	r1, r1, #15728640	; 0xf00000
 8000448:	f04f 0000 	mov.w	r0, #0
 800044c:	bd30      	pop	{r4, r5, pc}
 800044e:	ea7f 5c64 	mvns.w	ip, r4, asr #21
 8000452:	bf1a      	itte	ne
 8000454:	4619      	movne	r1, r3
 8000456:	4610      	movne	r0, r2
 8000458:	ea7f 5c65 	mvnseq.w	ip, r5, asr #21
 800045c:	bf1c      	itt	ne
 800045e:	460b      	movne	r3, r1
 8000460:	4602      	movne	r2, r0
 8000462:	ea50 3401 	orrs.w	r4, r0, r1, lsl #12
 8000466:	bf06      	itte	eq
 8000468:	ea52 3503 	orrseq.w	r5, r2, r3, lsl #12
 800046c:	ea91 0f03 	teqeq	r1, r3
 8000470:	f441 2100 	orrne.w	r1, r1, #524288	; 0x80000
 8000474:	bd30      	pop	{r4, r5, pc}
 8000476:	bf00      	nop

08000478 <__aeabi_ui2d>:
 8000478:	f090 0f00 	teq	r0, #0
 800047c:	bf04      	itt	eq
 800047e:	2100      	moveq	r1, #0
 8000480:	4770      	bxeq	lr
 8000482:	b530      	push	{r4, r5, lr}
 8000484:	f44f 6480 	mov.w	r4, #1024	; 0x400
 8000488:	f104 0432 	add.w	r4, r4, #50	; 0x32
 800048c:	f04f 0500 	mov.w	r5, #0
 8000490:	f04f 0100 	mov.w	r1, #0
 8000494:	e750      	b.n	8000338 <__adddf3+0x138>
 8000496:	bf00      	nop

08000498 <__aeabi_i2d>:
 8000498:	f090 0f00 	teq	r0, #0
 800049c:	bf04      	itt	eq
 800049e:	2100      	moveq	r1, #0
 80004a0:	4770      	bxeq	lr
 80004a2:	b530      	push	{r4, r5, lr}
 80004a4:	f44f 6480 	mov.w	r4, #1024	; 0x400
 80004a8:	f104 0432 	add.w	r4, r4, #50	; 0x32
 80004ac:	f010 4500 	ands.w	r5, r0, #2147483648	; 0x80000000
 80004b0:	bf48      	it	mi
 80004b2:	4240      	negmi	r0, r0
 80004b4:	f04f 0100 	mov.w	r1, #0
 80004b8:	e73e      	b.n	8000338 <__adddf3+0x138>
 80004ba:	bf00      	nop

080004bc <__aeabi_f2d>:
 80004bc:	0042      	lsls	r2, r0, #1
 80004be:	ea4f 01e2 	mov.w	r1, r2, asr #3
 80004c2:	ea4f 0131 	mov.w	r1, r1, rrx
 80004c6:	ea4f 7002 	mov.w	r0, r2, lsl #28
 80004ca:	bf1f      	itttt	ne
 80004cc:	f012 437f 	andsne.w	r3, r2, #4278190080	; 0xff000000
 80004d0:	f093 4f7f 	teqne	r3, #4278190080	; 0xff000000
 80004d4:	f081 5160 	eorne.w	r1, r1, #939524096	; 0x38000000
 80004d8:	4770      	bxne	lr
 80004da:	f032 427f 	bics.w	r2, r2, #4278190080	; 0xff000000
 80004de:	bf08      	it	eq
 80004e0:	4770      	bxeq	lr
 80004e2:	f093 4f7f 	teq	r3, #4278190080	; 0xff000000
 80004e6:	bf04      	itt	eq
 80004e8:	f441 2100 	orreq.w	r1, r1, #524288	; 0x80000
 80004ec:	4770      	bxeq	lr
 80004ee:	b530      	push	{r4, r5, lr}
 80004f0:	f44f 7460 	mov.w	r4, #896	; 0x380
 80004f4:	f001 4500 	and.w	r5, r1, #2147483648	; 0x80000000
 80004f8:	f021 4100 	bic.w	r1, r1, #2147483648	; 0x80000000
 80004fc:	e71c      	b.n	8000338 <__adddf3+0x138>
 80004fe:	bf00      	nop

08000500 <__aeabi_ul2d>:
 8000500:	ea50 0201 	orrs.w	r2, r0, r1
 8000504:	bf08      	it	eq
 8000506:	4770      	bxeq	lr
 8000508:	b530      	push	{r4, r5, lr}
 800050a:	f04f 0500 	mov.w	r5, #0
 800050e:	e00a      	b.n	8000526 <__aeabi_l2d+0x16>

08000510 <__aeabi_l2d>:
 8000510:	ea50 0201 	orrs.w	r2, r0, r1
 8000514:	bf08      	it	eq
 8000516:	4770      	bxeq	lr
 8000518:	b530      	push	{r4, r5, lr}
 800051a:	f011 4500 	ands.w	r5, r1, #2147483648	; 0x80000000
 800051e:	d502      	bpl.n	8000526 <__aeabi_l2d+0x16>
 8000520:	4240      	negs	r0, r0
 8000522:	eb61 0141 	sbc.w	r1, r1, r1, lsl #1
 8000526:	f44f 6480 	mov.w	r4, #1024	; 0x400
 800052a:	f104 0432 	add.w	r4, r4, #50	; 0x32
 800052e:	ea5f 5c91 	movs.w	ip, r1, lsr #22
 8000532:	f43f aed8 	beq.w	80002e6 <__adddf3+0xe6>
 8000536:	f04f 0203 	mov.w	r2, #3
 800053a:	ea5f 0cdc 	movs.w	ip, ip, lsr #3
 800053e:	bf18      	it	ne
 8000540:	3203      	addne	r2, #3
 8000542:	ea5f 0cdc 	movs.w	ip, ip, lsr #3
 8000546:	bf18      	it	ne
 8000548:	3203      	addne	r2, #3
 800054a:	eb02 02dc 	add.w	r2, r2, ip, lsr #3
 800054e:	f1c2 0320 	rsb	r3, r2, #32
 8000552:	fa00 fc03 	lsl.w	ip, r0, r3
 8000556:	fa20 f002 	lsr.w	r0, r0, r2
 800055a:	fa01 fe03 	lsl.w	lr, r1, r3
 800055e:	ea40 000e 	orr.w	r0, r0, lr
 8000562:	fa21 f102 	lsr.w	r1, r1, r2
 8000566:	4414      	add	r4, r2
 8000568:	e6bd      	b.n	80002e6 <__adddf3+0xe6>
 800056a:	bf00      	nop

0800056c <__aeabi_dmul>:
 800056c:	b570      	push	{r4, r5, r6, lr}
 800056e:	f04f 0cff 	mov.w	ip, #255	; 0xff
 8000572:	f44c 6ce0 	orr.w	ip, ip, #1792	; 0x700
 8000576:	ea1c 5411 	ands.w	r4, ip, r1, lsr #20
 800057a:	bf1d      	ittte	ne
 800057c:	ea1c 5513 	andsne.w	r5, ip, r3, lsr #20
 8000580:	ea94 0f0c 	teqne	r4, ip
 8000584:	ea95 0f0c 	teqne	r5, ip
 8000588:	f000 f8de 	bleq	8000748 <__aeabi_dmul+0x1dc>
 800058c:	442c      	add	r4, r5
 800058e:	ea81 0603 	eor.w	r6, r1, r3
 8000592:	ea21 514c 	bic.w	r1, r1, ip, lsl #21
 8000596:	ea23 534c 	bic.w	r3, r3, ip, lsl #21
 800059a:	ea50 3501 	orrs.w	r5, r0, r1, lsl #12
 800059e:	bf18      	it	ne
 80005a0:	ea52 3503 	orrsne.w	r5, r2, r3, lsl #12
 80005a4:	f441 1180 	orr.w	r1, r1, #1048576	; 0x100000
 80005a8:	f443 1380 	orr.w	r3, r3, #1048576	; 0x100000
 80005ac:	d038      	beq.n	8000620 <__aeabi_dmul+0xb4>
 80005ae:	fba0 ce02 	umull	ip, lr, r0, r2
 80005b2:	f04f 0500 	mov.w	r5, #0
 80005b6:	fbe1 e502 	umlal	lr, r5, r1, r2
 80005ba:	f006 4200 	and.w	r2, r6, #2147483648	; 0x80000000
 80005be:	fbe0 e503 	umlal	lr, r5, r0, r3
 80005c2:	f04f 0600 	mov.w	r6, #0
 80005c6:	fbe1 5603 	umlal	r5, r6, r1, r3
 80005ca:	f09c 0f00 	teq	ip, #0
 80005ce:	bf18      	it	ne
 80005d0:	f04e 0e01 	orrne.w	lr, lr, #1
 80005d4:	f1a4 04ff 	sub.w	r4, r4, #255	; 0xff
 80005d8:	f5b6 7f00 	cmp.w	r6, #512	; 0x200
 80005dc:	f564 7440 	sbc.w	r4, r4, #768	; 0x300
 80005e0:	d204      	bcs.n	80005ec <__aeabi_dmul+0x80>
 80005e2:	ea5f 0e4e 	movs.w	lr, lr, lsl #1
 80005e6:	416d      	adcs	r5, r5
 80005e8:	eb46 0606 	adc.w	r6, r6, r6
 80005ec:	ea42 21c6 	orr.w	r1, r2, r6, lsl #11
 80005f0:	ea41 5155 	orr.w	r1, r1, r5, lsr #21
 80005f4:	ea4f 20c5 	mov.w	r0, r5, lsl #11
 80005f8:	ea40 505e 	orr.w	r0, r0, lr, lsr #21
 80005fc:	ea4f 2ece 	mov.w	lr, lr, lsl #11
 8000600:	f1b4 0cfd 	subs.w	ip, r4, #253	; 0xfd
 8000604:	bf88      	it	hi
 8000606:	f5bc 6fe0 	cmphi.w	ip, #1792	; 0x700
 800060a:	d81e      	bhi.n	800064a <__aeabi_dmul+0xde>
 800060c:	f1be 4f00 	cmp.w	lr, #2147483648	; 0x80000000
 8000610:	bf08      	it	eq
 8000612:	ea5f 0e50 	movseq.w	lr, r0, lsr #1
 8000616:	f150 0000 	adcs.w	r0, r0, #0
 800061a:	eb41 5104 	adc.w	r1, r1, r4, lsl #20
 800061e:	bd70      	pop	{r4, r5, r6, pc}
 8000620:	f006 4600 	and.w	r6, r6, #2147483648	; 0x80000000
 8000624:	ea46 0101 	orr.w	r1, r6, r1
 8000628:	ea40 0002 	orr.w	r0, r0, r2
 800062c:	ea81 0103 	eor.w	r1, r1, r3
 8000630:	ebb4 045c 	subs.w	r4, r4, ip, lsr #1
 8000634:	bfc2      	ittt	gt
 8000636:	ebd4 050c 	rsbsgt	r5, r4, ip
 800063a:	ea41 5104 	orrgt.w	r1, r1, r4, lsl #20
 800063e:	bd70      	popgt	{r4, r5, r6, pc}
 8000640:	f441 1180 	orr.w	r1, r1, #1048576	; 0x100000
 8000644:	f04f 0e00 	mov.w	lr, #0
 8000648:	3c01      	subs	r4, #1
 800064a:	f300 80ab 	bgt.w	80007a4 <__aeabi_dmul+0x238>
 800064e:	f114 0f36 	cmn.w	r4, #54	; 0x36
 8000652:	bfde      	ittt	le
 8000654:	2000      	movle	r0, #0
 8000656:	f001 4100 	andle.w	r1, r1, #2147483648	; 0x80000000
 800065a:	bd70      	pople	{r4, r5, r6, pc}
 800065c:	f1c4 0400 	rsb	r4, r4, #0
 8000660:	3c20      	subs	r4, #32
 8000662:	da35      	bge.n	80006d0 <__aeabi_dmul+0x164>
 8000664:	340c      	adds	r4, #12
 8000666:	dc1b      	bgt.n	80006a0 <__aeabi_dmul+0x134>
 8000668:	f104 0414 	add.w	r4, r4, #20
 800066c:	f1c4 0520 	rsb	r5, r4, #32
 8000670:	fa00 f305 	lsl.w	r3, r0, r5
 8000674:	fa20 f004 	lsr.w	r0, r0, r4
 8000678:	fa01 f205 	lsl.w	r2, r1, r5
 800067c:	ea40 0002 	orr.w	r0, r0, r2
 8000680:	f001 4200 	and.w	r2, r1, #2147483648	; 0x80000000
 8000684:	f021 4100 	bic.w	r1, r1, #2147483648	; 0x80000000
 8000688:	eb10 70d3 	adds.w	r0, r0, r3, lsr #31
 800068c:	fa21 f604 	lsr.w	r6, r1, r4
 8000690:	eb42 0106 	adc.w	r1, r2, r6
 8000694:	ea5e 0e43 	orrs.w	lr, lr, r3, lsl #1
 8000698:	bf08      	it	eq
 800069a:	ea20 70d3 	biceq.w	r0, r0, r3, lsr #31
 800069e:	bd70      	pop	{r4, r5, r6, pc}
 80006a0:	f1c4 040c 	rsb	r4, r4, #12
 80006a4:	f1c4 0520 	rsb	r5, r4, #32
 80006a8:	fa00 f304 	lsl.w	r3, r0, r4
 80006ac:	fa20 f005 	lsr.w	r0, r0, r5
 80006b0:	fa01 f204 	lsl.w	r2, r1, r4
 80006b4:	ea40 0002 	orr.w	r0, r0, r2
 80006b8:	f001 4100 	and.w	r1, r1, #2147483648	; 0x80000000
 80006bc:	eb10 70d3 	adds.w	r0, r0, r3, lsr #31
 80006c0:	f141 0100 	adc.w	r1, r1, #0
 80006c4:	ea5e 0e43 	orrs.w	lr, lr, r3, lsl #1
 80006c8:	bf08      	it	eq
 80006ca:	ea20 70d3 	biceq.w	r0, r0, r3, lsr #31
 80006ce:	bd70      	pop	{r4, r5, r6, pc}
 80006d0:	f1c4 0520 	rsb	r5, r4, #32
 80006d4:	fa00 f205 	lsl.w	r2, r0, r5
 80006d8:	ea4e 0e02 	orr.w	lr, lr, r2
 80006dc:	fa20 f304 	lsr.w	r3, r0, r4
 80006e0:	fa01 f205 	lsl.w	r2, r1, r5
 80006e4:	ea43 0302 	orr.w	r3, r3, r2
 80006e8:	fa21 f004 	lsr.w	r0, r1, r4
 80006ec:	f001 4100 	and.w	r1, r1, #2147483648	; 0x80000000
 80006f0:	fa21 f204 	lsr.w	r2, r1, r4
 80006f4:	ea20 0002 	bic.w	r0, r0, r2
 80006f8:	eb00 70d3 	add.w	r0, r0, r3, lsr #31
 80006fc:	ea5e 0e43 	orrs.w	lr, lr, r3, lsl #1
 8000700:	bf08      	it	eq
 8000702:	ea20 70d3 	biceq.w	r0, r0, r3, lsr #31
 8000706:	bd70      	pop	{r4, r5, r6, pc}
 8000708:	f094 0f00 	teq	r4, #0
 800070c:	d10f      	bne.n	800072e <__aeabi_dmul+0x1c2>
 800070e:	f001 4600 	and.w	r6, r1, #2147483648	; 0x80000000
 8000712:	0040      	lsls	r0, r0, #1
 8000714:	eb41 0101 	adc.w	r1, r1, r1
 8000718:	f411 1f80 	tst.w	r1, #1048576	; 0x100000
 800071c:	bf08      	it	eq
 800071e:	3c01      	subeq	r4, #1
 8000720:	d0f7      	beq.n	8000712 <__aeabi_dmul+0x1a6>
 8000722:	ea41 0106 	orr.w	r1, r1, r6
 8000726:	f095 0f00 	teq	r5, #0
 800072a:	bf18      	it	ne
 800072c:	4770      	bxne	lr
 800072e:	f003 4600 	and.w	r6, r3, #2147483648	; 0x80000000
 8000732:	0052      	lsls	r2, r2, #1
 8000734:	eb43 0303 	adc.w	r3, r3, r3
 8000738:	f413 1f80 	tst.w	r3, #1048576	; 0x100000
 800073c:	bf08      	it	eq
 800073e:	3d01      	subeq	r5, #1
 8000740:	d0f7      	beq.n	8000732 <__aeabi_dmul+0x1c6>
 8000742:	ea43 0306 	orr.w	r3, r3, r6
 8000746:	4770      	bx	lr
 8000748:	ea94 0f0c 	teq	r4, ip
 800074c:	ea0c 5513 	and.w	r5, ip, r3, lsr #20
 8000750:	bf18      	it	ne
 8000752:	ea95 0f0c 	teqne	r5, ip
 8000756:	d00c      	beq.n	8000772 <__aeabi_dmul+0x206>
 8000758:	ea50 0641 	orrs.w	r6, r0, r1, lsl #1
 800075c:	bf18      	it	ne
 800075e:	ea52 0643 	orrsne.w	r6, r2, r3, lsl #1
 8000762:	d1d1      	bne.n	8000708 <__aeabi_dmul+0x19c>
 8000764:	ea81 0103 	eor.w	r1, r1, r3
 8000768:	f001 4100 	and.w	r1, r1, #2147483648	; 0x80000000
 800076c:	f04f 0000 	mov.w	r0, #0
 8000770:	bd70      	pop	{r4, r5, r6, pc}
 8000772:	ea50 0641 	orrs.w	r6, r0, r1, lsl #1
 8000776:	bf06      	itte	eq
 8000778:	4610      	moveq	r0, r2
 800077a:	4619      	moveq	r1, r3
 800077c:	ea52 0643 	orrsne.w	r6, r2, r3, lsl #1
 8000780:	d019      	beq.n	80007b6 <__aeabi_dmul+0x24a>
 8000782:	ea94 0f0c 	teq	r4, ip
 8000786:	d102      	bne.n	800078e <__aeabi_dmul+0x222>
 8000788:	ea50 3601 	orrs.w	r6, r0, r1, lsl #12
 800078c:	d113      	bne.n	80007b6 <__aeabi_dmul+0x24a>
 800078e:	ea95 0f0c 	teq	r5, ip
 8000792:	d105      	bne.n	80007a0 <__aeabi_dmul+0x234>
 8000794:	ea52 3603 	orrs.w	r6, r2, r3, lsl #12
 8000798:	bf1c      	itt	ne
 800079a:	4610      	movne	r0, r2
 800079c:	4619      	movne	r1, r3
 800079e:	d10a      	bne.n	80007b6 <__aeabi_dmul+0x24a>
 80007a0:	ea81 0103 	eor.w	r1, r1, r3
 80007a4:	f001 4100 	and.w	r1, r1, #2147483648	; 0x80000000
 80007a8:	f041 41fe 	orr.w	r1, r1, #2130706432	; 0x7f000000
 80007ac:	f441 0170 	orr.w	r1, r1, #15728640	; 0xf00000
 80007b0:	f04f 0000 	mov.w	r0, #0
 80007b4:	bd70      	pop	{r4, r5, r6, pc}
 80007b6:	f041 41fe 	orr.w	r1, r1, #2130706432	; 0x7f000000
 80007ba:	f441 0178 	orr.w	r1, r1, #16252928	; 0xf80000
 80007be:	bd70      	pop	{r4, r5, r6, pc}

080007c0 <__aeabi_ddiv>:
 80007c0:	b570      	push	{r4, r5, r6, lr}
 80007c2:	f04f 0cff 	mov.w	ip, #255	; 0xff
 80007c6:	f44c 6ce0 	orr.w	ip, ip, #1792	; 0x700
 80007ca:	ea1c 5411 	ands.w	r4, ip, r1, lsr #20
 80007ce:	bf1d      	ittte	ne
 80007d0:	ea1c 5513 	andsne.w	r5, ip, r3, lsr #20
 80007d4:	ea94 0f0c 	teqne	r4, ip
 80007d8:	ea95 0f0c 	teqne	r5, ip
 80007dc:	f000 f8a7 	bleq	800092e <__aeabi_ddiv+0x16e>
 80007e0:	eba4 0405 	sub.w	r4, r4, r5
 80007e4:	ea81 0e03 	eor.w	lr, r1, r3
 80007e8:	ea52 3503 	orrs.w	r5, r2, r3, lsl #12
 80007ec:	ea4f 3101 	mov.w	r1, r1, lsl #12
 80007f0:	f000 8088 	beq.w	8000904 <__aeabi_ddiv+0x144>
 80007f4:	ea4f 3303 	mov.w	r3, r3, lsl #12
 80007f8:	f04f 5580 	mov.w	r5, #268435456	; 0x10000000
 80007fc:	ea45 1313 	orr.w	r3, r5, r3, lsr #4
 8000800:	ea43 6312 	orr.w	r3, r3, r2, lsr #24
 8000804:	ea4f 2202 	mov.w	r2, r2, lsl #8
 8000808:	ea45 1511 	orr.w	r5, r5, r1, lsr #4
 800080c:	ea45 6510 	orr.w	r5, r5, r0, lsr #24
 8000810:	ea4f 2600 	mov.w	r6, r0, lsl #8
 8000814:	f00e 4100 	and.w	r1, lr, #2147483648	; 0x80000000
 8000818:	429d      	cmp	r5, r3
 800081a:	bf08      	it	eq
 800081c:	4296      	cmpeq	r6, r2
 800081e:	f144 04fd 	adc.w	r4, r4, #253	; 0xfd
 8000822:	f504 7440 	add.w	r4, r4, #768	; 0x300
 8000826:	d202      	bcs.n	800082e <__aeabi_ddiv+0x6e>
 8000828:	085b      	lsrs	r3, r3, #1
 800082a:	ea4f 0232 	mov.w	r2, r2, rrx
 800082e:	1ab6      	subs	r6, r6, r2
 8000830:	eb65 0503 	sbc.w	r5, r5, r3
 8000834:	085b      	lsrs	r3, r3, #1
 8000836:	ea4f 0232 	mov.w	r2, r2, rrx
 800083a:	f44f 1080 	mov.w	r0, #1048576	; 0x100000
 800083e:	f44f 2c00 	mov.w	ip, #524288	; 0x80000
 8000842:	ebb6 0e02 	subs.w	lr, r6, r2
 8000846:	eb75 0e03 	sbcs.w	lr, r5, r3
 800084a:	bf22      	ittt	cs
 800084c:	1ab6      	subcs	r6, r6, r2
 800084e:	4675      	movcs	r5, lr
 8000850:	ea40 000c 	orrcs.w	r0, r0, ip
 8000854:	085b      	lsrs	r3, r3, #1
 8000856:	ea4f 0232 	mov.w	r2, r2, rrx
 800085a:	ebb6 0e02 	subs.w	lr, r6, r2
 800085e:	eb75 0e03 	sbcs.w	lr, r5, r3
 8000862:	bf22      	ittt	cs
 8000864:	1ab6      	subcs	r6, r6, r2
 8000866:	4675      	movcs	r5, lr
 8000868:	ea40 005c 	orrcs.w	r0, r0, ip, lsr #1
 800086c:	085b      	lsrs	r3, r3, #1
 800086e:	ea4f 0232 	mov.w	r2, r2, rrx
 8000872:	ebb6 0e02 	subs.w	lr, r6, r2
 8000876:	eb75 0e03 	sbcs.w	lr, r5, r3
 800087a:	bf22      	ittt	cs
 800087c:	1ab6      	subcs	r6, r6, r2
 800087e:	4675      	movcs	r5, lr
 8000880:	ea40 009c 	orrcs.w	r0, r0, ip, lsr #2
 8000884:	085b      	lsrs	r3, r3, #1
 8000886:	ea4f 0232 	mov.w	r2, r2, rrx
 800088a:	ebb6 0e02 	subs.w	lr, r6, r2
 800088e:	eb75 0e03 	sbcs.w	lr, r5, r3
 8000892:	bf22      	ittt	cs
 8000894:	1ab6      	subcs	r6, r6, r2
 8000896:	4675      	movcs	r5, lr
 8000898:	ea40 00dc 	orrcs.w	r0, r0, ip, lsr #3
 800089c:	ea55 0e06 	orrs.w	lr, r5, r6
 80008a0:	d018      	beq.n	80008d4 <__aeabi_ddiv+0x114>
 80008a2:	ea4f 1505 	mov.w	r5, r5, lsl #4
 80008a6:	ea45 7516 	orr.w	r5, r5, r6, lsr #28
 80008aa:	ea4f 1606 	mov.w	r6, r6, lsl #4
 80008ae:	ea4f 03c3 	mov.w	r3, r3, lsl #3
 80008b2:	ea43 7352 	orr.w	r3, r3, r2, lsr #29
 80008b6:	ea4f 02c2 	mov.w	r2, r2, lsl #3
 80008ba:	ea5f 1c1c 	movs.w	ip, ip, lsr #4
 80008be:	d1c0      	bne.n	8000842 <__aeabi_ddiv+0x82>
 80008c0:	f411 1f80 	tst.w	r1, #1048576	; 0x100000
 80008c4:	d10b      	bne.n	80008de <__aeabi_ddiv+0x11e>
 80008c6:	ea41 0100 	orr.w	r1, r1, r0
 80008ca:	f04f 0000 	mov.w	r0, #0
 80008ce:	f04f 4c00 	mov.w	ip, #2147483648	; 0x80000000
 80008d2:	e7b6      	b.n	8000842 <__aeabi_ddiv+0x82>
 80008d4:	f411 1f80 	tst.w	r1, #1048576	; 0x100000
 80008d8:	bf04      	itt	eq
 80008da:	4301      	orreq	r1, r0
 80008dc:	2000      	moveq	r0, #0
 80008de:	f1b4 0cfd 	subs.w	ip, r4, #253	; 0xfd
 80008e2:	bf88      	it	hi
 80008e4:	f5bc 6fe0 	cmphi.w	ip, #1792	; 0x700
 80008e8:	f63f aeaf 	bhi.w	800064a <__aeabi_dmul+0xde>
 80008ec:	ebb5 0c03 	subs.w	ip, r5, r3
 80008f0:	bf04      	itt	eq
 80008f2:	ebb6 0c02 	subseq.w	ip, r6, r2
 80008f6:	ea5f 0c50 	movseq.w	ip, r0, lsr #1
 80008fa:	f150 0000 	adcs.w	r0, r0, #0
 80008fe:	eb41 5104 	adc.w	r1, r1, r4, lsl #20
 8000902:	bd70      	pop	{r4, r5, r6, pc}
 8000904:	f00e 4e00 	and.w	lr, lr, #2147483648	; 0x80000000
 8000908:	ea4e 3111 	orr.w	r1, lr, r1, lsr #12
 800090c:	eb14 045c 	adds.w	r4, r4, ip, lsr #1
 8000910:	bfc2      	ittt	gt
 8000912:	ebd4 050c 	rsbsgt	r5, r4, ip
 8000916:	ea41 5104 	orrgt.w	r1, r1, r4, lsl #20
 800091a:	bd70      	popgt	{r4, r5, r6, pc}
 800091c:	f441 1180 	orr.w	r1, r1, #1048576	; 0x100000
 8000920:	f04f 0e00 	mov.w	lr, #0
 8000924:	3c01      	subs	r4, #1
 8000926:	e690      	b.n	800064a <__aeabi_dmul+0xde>
 8000928:	ea45 0e06 	orr.w	lr, r5, r6
 800092c:	e68d      	b.n	800064a <__aeabi_dmul+0xde>
 800092e:	ea0c 5513 	and.w	r5, ip, r3, lsr #20
 8000932:	ea94 0f0c 	teq	r4, ip
 8000936:	bf08      	it	eq
 8000938:	ea95 0f0c 	teqeq	r5, ip
 800093c:	f43f af3b 	beq.w	80007b6 <__aeabi_dmul+0x24a>
 8000940:	ea94 0f0c 	teq	r4, ip
 8000944:	d10a      	bne.n	800095c <__aeabi_ddiv+0x19c>
 8000946:	ea50 3401 	orrs.w	r4, r0, r1, lsl #12
 800094a:	f47f af34 	bne.w	80007b6 <__aeabi_dmul+0x24a>
 800094e:	ea95 0f0c 	teq	r5, ip
 8000952:	f47f af25 	bne.w	80007a0 <__aeabi_dmul+0x234>
 8000956:	4610      	mov	r0, r2
 8000958:	4619      	mov	r1, r3
 800095a:	e72c      	b.n	80007b6 <__aeabi_dmul+0x24a>
 800095c:	ea95 0f0c 	teq	r5, ip
 8000960:	d106      	bne.n	8000970 <__aeabi_ddiv+0x1b0>
 8000962:	ea52 3503 	orrs.w	r5, r2, r3, lsl #12
 8000966:	f43f aefd 	beq.w	8000764 <__aeabi_dmul+0x1f8>
 800096a:	4610      	mov	r0, r2
 800096c:	4619      	mov	r1, r3
 800096e:	e722      	b.n	80007b6 <__aeabi_dmul+0x24a>
 8000970:	ea50 0641 	orrs.w	r6, r0, r1, lsl #1
 8000974:	bf18      	it	ne
 8000976:	ea52 0643 	orrsne.w	r6, r2, r3, lsl #1
 800097a:	f47f aec5 	bne.w	8000708 <__aeabi_dmul+0x19c>
 800097e:	ea50 0441 	orrs.w	r4, r0, r1, lsl #1
 8000982:	f47f af0d 	bne.w	80007a0 <__aeabi_dmul+0x234>
 8000986:	ea52 0543 	orrs.w	r5, r2, r3, lsl #1
 800098a:	f47f aeeb 	bne.w	8000764 <__aeabi_dmul+0x1f8>
 800098e:	e712      	b.n	80007b6 <__aeabi_dmul+0x24a>

08000990 <__aeabi_d2iz>:
 8000990:	ea4f 0241 	mov.w	r2, r1, lsl #1
 8000994:	f512 1200 	adds.w	r2, r2, #2097152	; 0x200000
 8000998:	d215      	bcs.n	80009c6 <__aeabi_d2iz+0x36>
 800099a:	d511      	bpl.n	80009c0 <__aeabi_d2iz+0x30>
 800099c:	f46f 7378 	mvn.w	r3, #992	; 0x3e0
 80009a0:	ebb3 5262 	subs.w	r2, r3, r2, asr #21
 80009a4:	d912      	bls.n	80009cc <__aeabi_d2iz+0x3c>
 80009a6:	ea4f 23c1 	mov.w	r3, r1, lsl #11
 80009aa:	f043 4300 	orr.w	r3, r3, #2147483648	; 0x80000000
 80009ae:	ea43 5350 	orr.w	r3, r3, r0, lsr #21
 80009b2:	f011 4f00 	tst.w	r1, #2147483648	; 0x80000000
 80009b6:	fa23 f002 	lsr.w	r0, r3, r2
 80009ba:	bf18      	it	ne
 80009bc:	4240      	negne	r0, r0
 80009be:	4770      	bx	lr
 80009c0:	f04f 0000 	mov.w	r0, #0
 80009c4:	4770      	bx	lr
 80009c6:	ea50 3001 	orrs.w	r0, r0, r1, lsl #12
 80009ca:	d105      	bne.n	80009d8 <__aeabi_d2iz+0x48>
 80009cc:	f011 4000 	ands.w	r0, r1, #2147483648	; 0x80000000
 80009d0:	bf08      	it	eq
 80009d2:	f06f 4000 	mvneq.w	r0, #2147483648	; 0x80000000
 80009d6:	4770      	bx	lr
 80009d8:	f04f 0000 	mov.w	r0, #0
 80009dc:	4770      	bx	lr
 80009de:	bf00      	nop

080009e0 <__aeabi_d2f>:
 80009e0:	ea4f 0241 	mov.w	r2, r1, lsl #1
 80009e4:	f1b2 43e0 	subs.w	r3, r2, #1879048192	; 0x70000000
 80009e8:	bf24      	itt	cs
 80009ea:	f5b3 1c00 	subscs.w	ip, r3, #2097152	; 0x200000
 80009ee:	f1dc 5cfe 	rsbscs	ip, ip, #532676608	; 0x1fc00000
 80009f2:	d90d      	bls.n	8000a10 <__aeabi_d2f+0x30>
 80009f4:	f001 4c00 	and.w	ip, r1, #2147483648	; 0x80000000
 80009f8:	ea4f 02c0 	mov.w	r2, r0, lsl #3
 80009fc:	ea4c 7050 	orr.w	r0, ip, r0, lsr #29
 8000a00:	f1b2 4f00 	cmp.w	r2, #2147483648	; 0x80000000
 8000a04:	eb40 0083 	adc.w	r0, r0, r3, lsl #2
 8000a08:	bf08      	it	eq
 8000a0a:	f020 0001 	biceq.w	r0, r0, #1
 8000a0e:	4770      	bx	lr
 8000a10:	f011 4f80 	tst.w	r1, #1073741824	; 0x40000000
 8000a14:	d121      	bne.n	8000a5a <__aeabi_d2f+0x7a>
 8000a16:	f113 7238 	adds.w	r2, r3, #48234496	; 0x2e00000
 8000a1a:	bfbc      	itt	lt
 8000a1c:	f001 4000 	andlt.w	r0, r1, #2147483648	; 0x80000000
 8000a20:	4770      	bxlt	lr
 8000a22:	f441 1180 	orr.w	r1, r1, #1048576	; 0x100000
 8000a26:	ea4f 5252 	mov.w	r2, r2, lsr #21
 8000a2a:	f1c2 0218 	rsb	r2, r2, #24
 8000a2e:	f1c2 0c20 	rsb	ip, r2, #32
 8000a32:	fa10 f30c 	lsls.w	r3, r0, ip
 8000a36:	fa20 f002 	lsr.w	r0, r0, r2
 8000a3a:	bf18      	it	ne
 8000a3c:	f040 0001 	orrne.w	r0, r0, #1
 8000a40:	ea4f 23c1 	mov.w	r3, r1, lsl #11
 8000a44:	ea4f 23d3 	mov.w	r3, r3, lsr #11
 8000a48:	fa03 fc0c 	lsl.w	ip, r3, ip
 8000a4c:	ea40 000c 	orr.w	r0, r0, ip
 8000a50:	fa23 f302 	lsr.w	r3, r3, r2
 8000a54:	ea4f 0343 	mov.w	r3, r3, lsl #1
 8000a58:	e7cc      	b.n	80009f4 <__aeabi_d2f+0x14>
 8000a5a:	ea7f 5362 	mvns.w	r3, r2, asr #21
 8000a5e:	d107      	bne.n	8000a70 <__aeabi_d2f+0x90>
 8000a60:	ea50 3301 	orrs.w	r3, r0, r1, lsl #12
 8000a64:	bf1e      	ittt	ne
 8000a66:	f04f 40fe 	movne.w	r0, #2130706432	; 0x7f000000
 8000a6a:	f440 0040 	orrne.w	r0, r0, #12582912	; 0xc00000
 8000a6e:	4770      	bxne	lr
 8000a70:	f001 4000 	and.w	r0, r1, #2147483648	; 0x80000000
 8000a74:	f040 40fe 	orr.w	r0, r0, #2130706432	; 0x7f000000
 8000a78:	f440 0000 	orr.w	r0, r0, #8388608	; 0x800000
 8000a7c:	4770      	bx	lr
 8000a7e:	bf00      	nop

08000a80 <__aeabi_uldivmod>:
 8000a80:	b953      	cbnz	r3, 8000a98 <__aeabi_uldivmod+0x18>
 8000a82:	b94a      	cbnz	r2, 8000a98 <__aeabi_uldivmod+0x18>
 8000a84:	2900      	cmp	r1, #0
 8000a86:	bf08      	it	eq
 8000a88:	2800      	cmpeq	r0, #0
 8000a8a:	bf1c      	itt	ne
 8000a8c:	f04f 31ff 	movne.w	r1, #4294967295	; 0xffffffff
 8000a90:	f04f 30ff 	movne.w	r0, #4294967295	; 0xffffffff
 8000a94:	f000 b972 	b.w	8000d7c <__aeabi_idiv0>
 8000a98:	f1ad 0c08 	sub.w	ip, sp, #8
 8000a9c:	e96d ce04 	strd	ip, lr, [sp, #-16]!
 8000aa0:	f000 f806 	bl	8000ab0 <__udivmoddi4>
 8000aa4:	f8dd e004 	ldr.w	lr, [sp, #4]
 8000aa8:	e9dd 2302 	ldrd	r2, r3, [sp, #8]
 8000aac:	b004      	add	sp, #16
 8000aae:	4770      	bx	lr

08000ab0 <__udivmoddi4>:
 8000ab0:	e92d 47f0 	stmdb	sp!, {r4, r5, r6, r7, r8, r9, sl, lr}
 8000ab4:	9e08      	ldr	r6, [sp, #32]
 8000ab6:	4604      	mov	r4, r0
 8000ab8:	4688      	mov	r8, r1
 8000aba:	2b00      	cmp	r3, #0
 8000abc:	d14b      	bne.n	8000b56 <__udivmoddi4+0xa6>
 8000abe:	428a      	cmp	r2, r1
 8000ac0:	4615      	mov	r5, r2
 8000ac2:	d967      	bls.n	8000b94 <__udivmoddi4+0xe4>
 8000ac4:	fab2 f282 	clz	r2, r2
 8000ac8:	b14a      	cbz	r2, 8000ade <__udivmoddi4+0x2e>
 8000aca:	f1c2 0720 	rsb	r7, r2, #32
 8000ace:	fa01 f302 	lsl.w	r3, r1, r2
 8000ad2:	fa20 f707 	lsr.w	r7, r0, r7
 8000ad6:	4095      	lsls	r5, r2
 8000ad8:	ea47 0803 	orr.w	r8, r7, r3
 8000adc:	4094      	lsls	r4, r2
 8000ade:	ea4f 4e15 	mov.w	lr, r5, lsr #16
 8000ae2:	0c23      	lsrs	r3, r4, #16
 8000ae4:	fbb8 f7fe 	udiv	r7, r8, lr
 8000ae8:	fa1f fc85 	uxth.w	ip, r5
 8000aec:	fb0e 8817 	mls	r8, lr, r7, r8
 8000af0:	ea43 4308 	orr.w	r3, r3, r8, lsl #16
 8000af4:	fb07 f10c 	mul.w	r1, r7, ip
 8000af8:	4299      	cmp	r1, r3
 8000afa:	d909      	bls.n	8000b10 <__udivmoddi4+0x60>
 8000afc:	18eb      	adds	r3, r5, r3
 8000afe:	f107 30ff 	add.w	r0, r7, #4294967295	; 0xffffffff
 8000b02:	f080 811b 	bcs.w	8000d3c <__udivmoddi4+0x28c>
 8000b06:	4299      	cmp	r1, r3
 8000b08:	f240 8118 	bls.w	8000d3c <__udivmoddi4+0x28c>
 8000b0c:	3f02      	subs	r7, #2
 8000b0e:	442b      	add	r3, r5
 8000b10:	1a5b      	subs	r3, r3, r1
 8000b12:	b2a4      	uxth	r4, r4
 8000b14:	fbb3 f0fe 	udiv	r0, r3, lr
 8000b18:	fb0e 3310 	mls	r3, lr, r0, r3
 8000b1c:	ea44 4403 	orr.w	r4, r4, r3, lsl #16
 8000b20:	fb00 fc0c 	mul.w	ip, r0, ip
 8000b24:	45a4      	cmp	ip, r4
 8000b26:	d909      	bls.n	8000b3c <__udivmoddi4+0x8c>
 8000b28:	192c      	adds	r4, r5, r4
 8000b2a:	f100 33ff 	add.w	r3, r0, #4294967295	; 0xffffffff
 8000b2e:	f080 8107 	bcs.w	8000d40 <__udivmoddi4+0x290>
 8000b32:	45a4      	cmp	ip, r4
 8000b34:	f240 8104 	bls.w	8000d40 <__udivmoddi4+0x290>
 8000b38:	3802      	subs	r0, #2
 8000b3a:	442c      	add	r4, r5
 8000b3c:	ea40 4007 	orr.w	r0, r0, r7, lsl #16
 8000b40:	eba4 040c 	sub.w	r4, r4, ip
 8000b44:	2700      	movs	r7, #0
 8000b46:	b11e      	cbz	r6, 8000b50 <__udivmoddi4+0xa0>
 8000b48:	40d4      	lsrs	r4, r2
 8000b4a:	2300      	movs	r3, #0
 8000b4c:	e9c6 4300 	strd	r4, r3, [r6]
 8000b50:	4639      	mov	r1, r7
 8000b52:	e8bd 87f0 	ldmia.w	sp!, {r4, r5, r6, r7, r8, r9, sl, pc}
 8000b56:	428b      	cmp	r3, r1
 8000b58:	d909      	bls.n	8000b6e <__udivmoddi4+0xbe>
 8000b5a:	2e00      	cmp	r6, #0
 8000b5c:	f000 80eb 	beq.w	8000d36 <__udivmoddi4+0x286>
 8000b60:	2700      	movs	r7, #0
 8000b62:	e9c6 0100 	strd	r0, r1, [r6]
 8000b66:	4638      	mov	r0, r7
 8000b68:	4639      	mov	r1, r7
 8000b6a:	e8bd 87f0 	ldmia.w	sp!, {r4, r5, r6, r7, r8, r9, sl, pc}
 8000b6e:	fab3 f783 	clz	r7, r3
 8000b72:	2f00      	cmp	r7, #0
 8000b74:	d147      	bne.n	8000c06 <__udivmoddi4+0x156>
 8000b76:	428b      	cmp	r3, r1
 8000b78:	d302      	bcc.n	8000b80 <__udivmoddi4+0xd0>
 8000b7a:	4282      	cmp	r2, r0
 8000b7c:	f200 80fa 	bhi.w	8000d74 <__udivmoddi4+0x2c4>
 8000b80:	1a84      	subs	r4, r0, r2
 8000b82:	eb61 0303 	sbc.w	r3, r1, r3
 8000b86:	2001      	movs	r0, #1
 8000b88:	4698      	mov	r8, r3
 8000b8a:	2e00      	cmp	r6, #0
 8000b8c:	d0e0      	beq.n	8000b50 <__udivmoddi4+0xa0>
 8000b8e:	e9c6 4800 	strd	r4, r8, [r6]
 8000b92:	e7dd      	b.n	8000b50 <__udivmoddi4+0xa0>
 8000b94:	b902      	cbnz	r2, 8000b98 <__udivmoddi4+0xe8>
 8000b96:	deff      	udf	#255	; 0xff
 8000b98:	fab2 f282 	clz	r2, r2
 8000b9c:	2a00      	cmp	r2, #0
 8000b9e:	f040 808f 	bne.w	8000cc0 <__udivmoddi4+0x210>
 8000ba2:	1b49      	subs	r1, r1, r5
 8000ba4:	ea4f 4e15 	mov.w	lr, r5, lsr #16
 8000ba8:	fa1f f885 	uxth.w	r8, r5
 8000bac:	2701      	movs	r7, #1
 8000bae:	fbb1 fcfe 	udiv	ip, r1, lr
 8000bb2:	0c23      	lsrs	r3, r4, #16
 8000bb4:	fb0e 111c 	mls	r1, lr, ip, r1
 8000bb8:	ea43 4301 	orr.w	r3, r3, r1, lsl #16
 8000bbc:	fb08 f10c 	mul.w	r1, r8, ip
 8000bc0:	4299      	cmp	r1, r3
 8000bc2:	d907      	bls.n	8000bd4 <__udivmoddi4+0x124>
 8000bc4:	18eb      	adds	r3, r5, r3
 8000bc6:	f10c 30ff 	add.w	r0, ip, #4294967295	; 0xffffffff
 8000bca:	d202      	bcs.n	8000bd2 <__udivmoddi4+0x122>
 8000bcc:	4299      	cmp	r1, r3
 8000bce:	f200 80cd 	bhi.w	8000d6c <__udivmoddi4+0x2bc>
 8000bd2:	4684      	mov	ip, r0
 8000bd4:	1a59      	subs	r1, r3, r1
 8000bd6:	b2a3      	uxth	r3, r4
 8000bd8:	fbb1 f0fe 	udiv	r0, r1, lr
 8000bdc:	fb0e 1410 	mls	r4, lr, r0, r1
 8000be0:	ea43 4404 	orr.w	r4, r3, r4, lsl #16
 8000be4:	fb08 f800 	mul.w	r8, r8, r0
 8000be8:	45a0      	cmp	r8, r4
 8000bea:	d907      	bls.n	8000bfc <__udivmoddi4+0x14c>
 8000bec:	192c      	adds	r4, r5, r4
 8000bee:	f100 33ff 	add.w	r3, r0, #4294967295	; 0xffffffff
 8000bf2:	d202      	bcs.n	8000bfa <__udivmoddi4+0x14a>
 8000bf4:	45a0      	cmp	r8, r4
 8000bf6:	f200 80b6 	bhi.w	8000d66 <__udivmoddi4+0x2b6>
 8000bfa:	4618      	mov	r0, r3
 8000bfc:	eba4 0408 	sub.w	r4, r4, r8
 8000c00:	ea40 400c 	orr.w	r0, r0, ip, lsl #16
 8000c04:	e79f      	b.n	8000b46 <__udivmoddi4+0x96>
 8000c06:	f1c7 0c20 	rsb	ip, r7, #32
 8000c0a:	40bb      	lsls	r3, r7
 8000c0c:	fa22 fe0c 	lsr.w	lr, r2, ip
 8000c10:	ea4e 0e03 	orr.w	lr, lr, r3
 8000c14:	fa01 f407 	lsl.w	r4, r1, r7
 8000c18:	fa20 f50c 	lsr.w	r5, r0, ip
 8000c1c:	fa21 f30c 	lsr.w	r3, r1, ip
 8000c20:	ea4f 481e 	mov.w	r8, lr, lsr #16
 8000c24:	4325      	orrs	r5, r4
 8000c26:	fbb3 f9f8 	udiv	r9, r3, r8
 8000c2a:	0c2c      	lsrs	r4, r5, #16
 8000c2c:	fb08 3319 	mls	r3, r8, r9, r3
 8000c30:	fa1f fa8e 	uxth.w	sl, lr
 8000c34:	ea44 4303 	orr.w	r3, r4, r3, lsl #16
 8000c38:	fb09 f40a 	mul.w	r4, r9, sl
 8000c3c:	429c      	cmp	r4, r3
 8000c3e:	fa02 f207 	lsl.w	r2, r2, r7
 8000c42:	fa00 f107 	lsl.w	r1, r0, r7
 8000c46:	d90b      	bls.n	8000c60 <__udivmoddi4+0x1b0>
 8000c48:	eb1e 0303 	adds.w	r3, lr, r3
 8000c4c:	f109 30ff 	add.w	r0, r9, #4294967295	; 0xffffffff
 8000c50:	f080 8087 	bcs.w	8000d62 <__udivmoddi4+0x2b2>
 8000c54:	429c      	cmp	r4, r3
 8000c56:	f240 8084 	bls.w	8000d62 <__udivmoddi4+0x2b2>
 8000c5a:	f1a9 0902 	sub.w	r9, r9, #2
 8000c5e:	4473      	add	r3, lr
 8000c60:	1b1b      	subs	r3, r3, r4
 8000c62:	b2ad      	uxth	r5, r5
 8000c64:	fbb3 f0f8 	udiv	r0, r3, r8
 8000c68:	fb08 3310 	mls	r3, r8, r0, r3
 8000c6c:	ea45 4403 	orr.w	r4, r5, r3, lsl #16
 8000c70:	fb00 fa0a 	mul.w	sl, r0, sl
 8000c74:	45a2      	cmp	sl, r4
 8000c76:	d908      	bls.n	8000c8a <__udivmoddi4+0x1da>
 8000c78:	eb1e 0404 	adds.w	r4, lr, r4
 8000c7c:	f100 33ff 	add.w	r3, r0, #4294967295	; 0xffffffff
 8000c80:	d26b      	bcs.n	8000d5a <__udivmoddi4+0x2aa>
 8000c82:	45a2      	cmp	sl, r4
 8000c84:	d969      	bls.n	8000d5a <__udivmoddi4+0x2aa>
 8000c86:	3802      	subs	r0, #2
 8000c88:	4474      	add	r4, lr
 8000c8a:	ea40 4009 	orr.w	r0, r0, r9, lsl #16
 8000c8e:	fba0 8902 	umull	r8, r9, r0, r2
 8000c92:	eba4 040a 	sub.w	r4, r4, sl
 8000c96:	454c      	cmp	r4, r9
 8000c98:	46c2      	mov	sl, r8
 8000c9a:	464b      	mov	r3, r9
 8000c9c:	d354      	bcc.n	8000d48 <__udivmoddi4+0x298>
 8000c9e:	d051      	beq.n	8000d44 <__udivmoddi4+0x294>
 8000ca0:	2e00      	cmp	r6, #0
 8000ca2:	d069      	beq.n	8000d78 <__udivmoddi4+0x2c8>
 8000ca4:	ebb1 050a 	subs.w	r5, r1, sl
 8000ca8:	eb64 0403 	sbc.w	r4, r4, r3
 8000cac:	fa04 fc0c 	lsl.w	ip, r4, ip
 8000cb0:	40fd      	lsrs	r5, r7
 8000cb2:	40fc      	lsrs	r4, r7
 8000cb4:	ea4c 0505 	orr.w	r5, ip, r5
 8000cb8:	e9c6 5400 	strd	r5, r4, [r6]
 8000cbc:	2700      	movs	r7, #0
 8000cbe:	e747      	b.n	8000b50 <__udivmoddi4+0xa0>
 8000cc0:	f1c2 0320 	rsb	r3, r2, #32
 8000cc4:	fa20 f703 	lsr.w	r7, r0, r3
 8000cc8:	4095      	lsls	r5, r2
 8000cca:	fa01 f002 	lsl.w	r0, r1, r2
 8000cce:	fa21 f303 	lsr.w	r3, r1, r3
 8000cd2:	ea4f 4e15 	mov.w	lr, r5, lsr #16
 8000cd6:	4338      	orrs	r0, r7
 8000cd8:	0c01      	lsrs	r1, r0, #16
 8000cda:	fbb3 f7fe 	udiv	r7, r3, lr
 8000cde:	fa1f f885 	uxth.w	r8, r5
 8000ce2:	fb0e 3317 	mls	r3, lr, r7, r3
 8000ce6:	ea41 4103 	orr.w	r1, r1, r3, lsl #16
 8000cea:	fb07 f308 	mul.w	r3, r7, r8
 8000cee:	428b      	cmp	r3, r1
 8000cf0:	fa04 f402 	lsl.w	r4, r4, r2
 8000cf4:	d907      	bls.n	8000d06 <__udivmoddi4+0x256>
 8000cf6:	1869      	adds	r1, r5, r1
 8000cf8:	f107 3cff 	add.w	ip, r7, #4294967295	; 0xffffffff
 8000cfc:	d22f      	bcs.n	8000d5e <__udivmoddi4+0x2ae>
 8000cfe:	428b      	cmp	r3, r1
 8000d00:	d92d      	bls.n	8000d5e <__udivmoddi4+0x2ae>
 8000d02:	3f02      	subs	r7, #2
 8000d04:	4429      	add	r1, r5
 8000d06:	1acb      	subs	r3, r1, r3
 8000d08:	b281      	uxth	r1, r0
 8000d0a:	fbb3 f0fe 	udiv	r0, r3, lr
 8000d0e:	fb0e 3310 	mls	r3, lr, r0, r3
 8000d12:	ea41 4103 	orr.w	r1, r1, r3, lsl #16
 8000d16:	fb00 f308 	mul.w	r3, r0, r8
 8000d1a:	428b      	cmp	r3, r1
 8000d1c:	d907      	bls.n	8000d2e <__udivmoddi4+0x27e>
 8000d1e:	1869      	adds	r1, r5, r1
 8000d20:	f100 3cff 	add.w	ip, r0, #4294967295	; 0xffffffff
 8000d24:	d217      	bcs.n	8000d56 <__udivmoddi4+0x2a6>
 8000d26:	428b      	cmp	r3, r1
 8000d28:	d915      	bls.n	8000d56 <__udivmoddi4+0x2a6>
 8000d2a:	3802      	subs	r0, #2
 8000d2c:	4429      	add	r1, r5
 8000d2e:	1ac9      	subs	r1, r1, r3
 8000d30:	ea40 4707 	orr.w	r7, r0, r7, lsl #16
 8000d34:	e73b      	b.n	8000bae <__udivmoddi4+0xfe>
 8000d36:	4637      	mov	r7, r6
 8000d38:	4630      	mov	r0, r6
 8000d3a:	e709      	b.n	8000b50 <__udivmoddi4+0xa0>
 8000d3c:	4607      	mov	r7, r0
 8000d3e:	e6e7      	b.n	8000b10 <__udivmoddi4+0x60>
 8000d40:	4618      	mov	r0, r3
 8000d42:	e6fb      	b.n	8000b3c <__udivmoddi4+0x8c>
 8000d44:	4541      	cmp	r1, r8
 8000d46:	d2ab      	bcs.n	8000ca0 <__udivmoddi4+0x1f0>
 8000d48:	ebb8 0a02 	subs.w	sl, r8, r2
 8000d4c:	eb69 020e 	sbc.w	r2, r9, lr
 8000d50:	3801      	subs	r0, #1
 8000d52:	4613      	mov	r3, r2
 8000d54:	e7a4      	b.n	8000ca0 <__udivmoddi4+0x1f0>
 8000d56:	4660      	mov	r0, ip
 8000d58:	e7e9      	b.n	8000d2e <__udivmoddi4+0x27e>
 8000d5a:	4618      	mov	r0, r3
 8000d5c:	e795      	b.n	8000c8a <__udivmoddi4+0x1da>
 8000d5e:	4667      	mov	r7, ip
 8000d60:	e7d1      	b.n	8000d06 <__udivmoddi4+0x256>
 8000d62:	4681      	mov	r9, r0
 8000d64:	e77c      	b.n	8000c60 <__udivmoddi4+0x1b0>
 8000d66:	3802      	subs	r0, #2
 8000d68:	442c      	add	r4, r5
 8000d6a:	e747      	b.n	8000bfc <__udivmoddi4+0x14c>
 8000d6c:	f1ac 0c02 	sub.w	ip, ip, #2
 8000d70:	442b      	add	r3, r5
 8000d72:	e72f      	b.n	8000bd4 <__udivmoddi4+0x124>
 8000d74:	4638      	mov	r0, r7
 8000d76:	e708      	b.n	8000b8a <__udivmoddi4+0xda>
 8000d78:	4637      	mov	r7, r6
 8000d7a:	e6e9      	b.n	8000b50 <__udivmoddi4+0xa0>

08000d7c <__aeabi_idiv0>:
 8000d7c:	4770      	bx	lr
 8000d7e:	bf00      	nop

08000d80 <MX_FREERTOS_Init>:
/**
  * @brief  FreeRTOS initialization
  * @param  None
  * @retval None
  */
void MX_FREERTOS_Init(void) {
 8000d80:	b580      	push	{r7, lr}
 8000d82:	af00      	add	r7, sp, #0
  /* USER CODE BEGIN Init */
     sh_init(&shell_config);
 8000d84:	480a      	ldr	r0, [pc, #40]	; (8000db0 <MX_FREERTOS_Init+0x30>)
 8000d86:	f00b fdd3 	bl	800c930 <sh_init>
  /* add queues, ... */
  /* USER CODE END RTOS_QUEUES */

  /* Create the thread(s) */
  /* creation of defaultTask */
  defaultTaskHandle = osThreadNew(StartDefaultTask, NULL, &defaultTask_attributes);
 8000d8a:	4a0a      	ldr	r2, [pc, #40]	; (8000db4 <MX_FREERTOS_Init+0x34>)
 8000d8c:	2100      	movs	r1, #0
 8000d8e:	480a      	ldr	r0, [pc, #40]	; (8000db8 <MX_FREERTOS_Init+0x38>)
 8000d90:	f007 f994 	bl	80080bc <osThreadNew>
 8000d94:	4602      	mov	r2, r0
 8000d96:	4b09      	ldr	r3, [pc, #36]	; (8000dbc <MX_FREERTOS_Init+0x3c>)
 8000d98:	601a      	str	r2, [r3, #0]

  /* creation of HelloTask */
  HelloTaskHandle = osThreadNew(fn_hello, NULL, &HelloTask_attributes);
 8000d9a:	4a09      	ldr	r2, [pc, #36]	; (8000dc0 <MX_FREERTOS_Init+0x40>)
 8000d9c:	2100      	movs	r1, #0
 8000d9e:	4809      	ldr	r0, [pc, #36]	; (8000dc4 <MX_FREERTOS_Init+0x44>)
 8000da0:	f007 f98c 	bl	80080bc <osThreadNew>
 8000da4:	4602      	mov	r2, r0
 8000da6:	4b08      	ldr	r3, [pc, #32]	; (8000dc8 <MX_FREERTOS_Init+0x48>)
 8000da8:	601a      	str	r2, [r3, #0]

  /* USER CODE BEGIN RTOS_THREADS */
  /* add threads, ... */
  /* USER CODE END RTOS_THREADS */

}
 8000daa:	bf00      	nop
 8000dac:	bd80      	pop	{r7, pc}
 8000dae:	bf00      	nop
 8000db0:	20000018 	.word	0x20000018
 8000db4:	0800de20 	.word	0x0800de20
 8000db8:	08000dcd 	.word	0x08000dcd
 8000dbc:	20004d48 	.word	0x20004d48
 8000dc0:	0800de44 	.word	0x0800de44
 8000dc4:	08000e35 	.word	0x08000e35
 8000dc8:	20004d4c 	.word	0x20004d4c

08000dcc <StartDefaultTask>:
  * @param  argument: Not used
  * @retval None
  */
/* USER CODE END Header_StartDefaultTask */
void StartDefaultTask(void *argument)
{
 8000dcc:	b580      	push	{r7, lr}
 8000dce:	b086      	sub	sp, #24
 8000dd0:	af00      	add	r7, sp, #0
 8000dd2:	6078      	str	r0, [r7, #4]
  /* init code for USB_DEVICE */
  MX_USB_DEVICE_Init();
 8000dd4:	f00a f8fa 	bl	800afcc <MX_USB_DEVICE_Init>
  /* USER CODE BEGIN StartDefaultTask */
  uint8_t buffer[]="Hello World";
 8000dd8:	4a11      	ldr	r2, [pc, #68]	; (8000e20 <StartDefaultTask+0x54>)
 8000dda:	f107 030c 	add.w	r3, r7, #12
 8000dde:	ca07      	ldmia	r2, {r0, r1, r2}
 8000de0:	e883 0007 	stmia.w	r3, {r0, r1, r2}
  /* Infinite loop */
  for(;;)
  {
	HAL_GPIO_TogglePin(LD6_GPIO_Port, LD6_Pin);
 8000de4:	f44f 4100 	mov.w	r1, #32768	; 0x8000
 8000de8:	480e      	ldr	r0, [pc, #56]	; (8000e24 <StartDefaultTask+0x58>)
 8000dea:	f001 f911 	bl	8002010 <HAL_GPIO_TogglePin>
	CDC_Transmit_FS(buffer, sizeof(buffer));
 8000dee:	f107 030c 	add.w	r3, r7, #12
 8000df2:	210c      	movs	r1, #12
 8000df4:	4618      	mov	r0, r3
 8000df6:	f00a f9a7 	bl	800b148 <CDC_Transmit_FS>
	pr_info("%d", xTaskGetTickCount());
 8000dfa:	480b      	ldr	r0, [pc, #44]	; (8000e28 <StartDefaultTask+0x5c>)
 8000dfc:	f00c f9d0 	bl	800d1a0 <sh_log_printf>
 8000e00:	f008 fcd2 	bl	80097a8 <xTaskGetTickCount>
 8000e04:	4603      	mov	r3, r0
 8000e06:	4619      	mov	r1, r3
 8000e08:	4808      	ldr	r0, [pc, #32]	; (8000e2c <StartDefaultTask+0x60>)
 8000e0a:	f00c f9c9 	bl	800d1a0 <sh_log_printf>
 8000e0e:	4808      	ldr	r0, [pc, #32]	; (8000e30 <StartDefaultTask+0x64>)
 8000e10:	f00c f9c6 	bl	800d1a0 <sh_log_printf>
    osDelay(300);
 8000e14:	f44f 7096 	mov.w	r0, #300	; 0x12c
 8000e18:	f007 f9f6 	bl	8008208 <osDelay>
	HAL_GPIO_TogglePin(LD6_GPIO_Port, LD6_Pin);
 8000e1c:	e7e2      	b.n	8000de4 <StartDefaultTask+0x18>
 8000e1e:	bf00      	nop
 8000e20:	0800d9f8 	.word	0x0800d9f8
 8000e24:	40020c00 	.word	0x40020c00
 8000e28:	0800d9e4 	.word	0x0800d9e4
 8000e2c:	0800d9f0 	.word	0x0800d9f0
 8000e30:	0800d9f4 	.word	0x0800d9f4

08000e34 <fn_hello>:
* @param argument: Not used
* @retval None
*/
/* USER CODE END Header_fn_hello */
void fn_hello(void *argument)
{
 8000e34:	b580      	push	{r7, lr}
 8000e36:	b082      	sub	sp, #8
 8000e38:	af00      	add	r7, sp, #0
 8000e3a:	6078      	str	r0, [r7, #4]
  /* USER CODE BEGIN fn_hello */
  /* Infinite loop */

	  hello_init();
 8000e3c:	f000 f978 	bl	8001130 <hello_init>
	  hello_function(NULL);
 8000e40:	2000      	movs	r0, #0
 8000e42:	f000 f985 	bl	8001150 <hello_function>
  /* USER CODE END fn_hello */
}
 8000e46:	bf00      	nop
 8000e48:	3708      	adds	r7, #8
 8000e4a:	46bd      	mov	sp, r7
 8000e4c:	bd80      	pop	{r7, pc}
	...

08000e50 <MX_GPIO_Init>:
     PC12   ------> I2S3_SD
     PB6   ------> I2C1_SCL
     PB9   ------> I2C1_SDA
*/
void MX_GPIO_Init(void)
{
 8000e50:	b580      	push	{r7, lr}
 8000e52:	b08c      	sub	sp, #48	; 0x30
 8000e54:	af00      	add	r7, sp, #0

  GPIO_InitTypeDef GPIO_InitStruct = {0};
 8000e56:	f107 031c 	add.w	r3, r7, #28
 8000e5a:	2200      	movs	r2, #0
 8000e5c:	601a      	str	r2, [r3, #0]
 8000e5e:	605a      	str	r2, [r3, #4]
 8000e60:	609a      	str	r2, [r3, #8]
 8000e62:	60da      	str	r2, [r3, #12]
 8000e64:	611a      	str	r2, [r3, #16]

  /* GPIO Ports Clock Enable */
  __HAL_RCC_GPIOE_CLK_ENABLE();
 8000e66:	2300      	movs	r3, #0
 8000e68:	61bb      	str	r3, [r7, #24]
 8000e6a:	4baa      	ldr	r3, [pc, #680]	; (8001114 <MX_GPIO_Init+0x2c4>)
 8000e6c:	6b1b      	ldr	r3, [r3, #48]	; 0x30
 8000e6e:	4aa9      	ldr	r2, [pc, #676]	; (8001114 <MX_GPIO_Init+0x2c4>)
 8000e70:	f043 0310 	orr.w	r3, r3, #16
 8000e74:	6313      	str	r3, [r2, #48]	; 0x30
 8000e76:	4ba7      	ldr	r3, [pc, #668]	; (8001114 <MX_GPIO_Init+0x2c4>)
 8000e78:	6b1b      	ldr	r3, [r3, #48]	; 0x30
 8000e7a:	f003 0310 	and.w	r3, r3, #16
 8000e7e:	61bb      	str	r3, [r7, #24]
 8000e80:	69bb      	ldr	r3, [r7, #24]
  __HAL_RCC_GPIOC_CLK_ENABLE();
 8000e82:	2300      	movs	r3, #0
 8000e84:	617b      	str	r3, [r7, #20]
 8000e86:	4ba3      	ldr	r3, [pc, #652]	; (8001114 <MX_GPIO_Init+0x2c4>)
 8000e88:	6b1b      	ldr	r3, [r3, #48]	; 0x30
 8000e8a:	4aa2      	ldr	r2, [pc, #648]	; (8001114 <MX_GPIO_Init+0x2c4>)
 8000e8c:	f043 0304 	orr.w	r3, r3, #4
 8000e90:	6313      	str	r3, [r2, #48]	; 0x30
 8000e92:	4ba0      	ldr	r3, [pc, #640]	; (8001114 <MX_GPIO_Init+0x2c4>)
 8000e94:	6b1b      	ldr	r3, [r3, #48]	; 0x30
 8000e96:	f003 0304 	and.w	r3, r3, #4
 8000e9a:	617b      	str	r3, [r7, #20]
 8000e9c:	697b      	ldr	r3, [r7, #20]
  __HAL_RCC_GPIOH_CLK_ENABLE();
 8000e9e:	2300      	movs	r3, #0
 8000ea0:	613b      	str	r3, [r7, #16]
 8000ea2:	4b9c      	ldr	r3, [pc, #624]	; (8001114 <MX_GPIO_Init+0x2c4>)
 8000ea4:	6b1b      	ldr	r3, [r3, #48]	; 0x30
 8000ea6:	4a9b      	ldr	r2, [pc, #620]	; (8001114 <MX_GPIO_Init+0x2c4>)
 8000ea8:	f043 0380 	orr.w	r3, r3, #128	; 0x80
 8000eac:	6313      	str	r3, [r2, #48]	; 0x30
 8000eae:	4b99      	ldr	r3, [pc, #612]	; (8001114 <MX_GPIO_Init+0x2c4>)
 8000eb0:	6b1b      	ldr	r3, [r3, #48]	; 0x30
 8000eb2:	f003 0380 	and.w	r3, r3, #128	; 0x80
 8000eb6:	613b      	str	r3, [r7, #16]
 8000eb8:	693b      	ldr	r3, [r7, #16]
  __HAL_RCC_GPIOA_CLK_ENABLE();
 8000eba:	2300      	movs	r3, #0
 8000ebc:	60fb      	str	r3, [r7, #12]
 8000ebe:	4b95      	ldr	r3, [pc, #596]	; (8001114 <MX_GPIO_Init+0x2c4>)
 8000ec0:	6b1b      	ldr	r3, [r3, #48]	; 0x30
 8000ec2:	4a94      	ldr	r2, [pc, #592]	; (8001114 <MX_GPIO_Init+0x2c4>)
 8000ec4:	f043 0301 	orr.w	r3, r3, #1
 8000ec8:	6313      	str	r3, [r2, #48]	; 0x30
 8000eca:	4b92      	ldr	r3, [pc, #584]	; (8001114 <MX_GPIO_Init+0x2c4>)
 8000ecc:	6b1b      	ldr	r3, [r3, #48]	; 0x30
 8000ece:	f003 0301 	and.w	r3, r3, #1
 8000ed2:	60fb      	str	r3, [r7, #12]
 8000ed4:	68fb      	ldr	r3, [r7, #12]
  __HAL_RCC_GPIOB_CLK_ENABLE();
 8000ed6:	2300      	movs	r3, #0
 8000ed8:	60bb      	str	r3, [r7, #8]
 8000eda:	4b8e      	ldr	r3, [pc, #568]	; (8001114 <MX_GPIO_Init+0x2c4>)
 8000edc:	6b1b      	ldr	r3, [r3, #48]	; 0x30
 8000ede:	4a8d      	ldr	r2, [pc, #564]	; (8001114 <MX_GPIO_Init+0x2c4>)
 8000ee0:	f043 0302 	orr.w	r3, r3, #2
 8000ee4:	6313      	str	r3, [r2, #48]	; 0x30
 8000ee6:	4b8b      	ldr	r3, [pc, #556]	; (8001114 <MX_GPIO_Init+0x2c4>)
 8000ee8:	6b1b      	ldr	r3, [r3, #48]	; 0x30
 8000eea:	f003 0302 	and.w	r3, r3, #2
 8000eee:	60bb      	str	r3, [r7, #8]
 8000ef0:	68bb      	ldr	r3, [r7, #8]
  __HAL_RCC_GPIOD_CLK_ENABLE();
 8000ef2:	2300      	movs	r3, #0
 8000ef4:	607b      	str	r3, [r7, #4]
 8000ef6:	4b87      	ldr	r3, [pc, #540]	; (8001114 <MX_GPIO_Init+0x2c4>)
 8000ef8:	6b1b      	ldr	r3, [r3, #48]	; 0x30
 8000efa:	4a86      	ldr	r2, [pc, #536]	; (8001114 <MX_GPIO_Init+0x2c4>)
 8000efc:	f043 0308 	orr.w	r3, r3, #8
 8000f00:	6313      	str	r3, [r2, #48]	; 0x30
 8000f02:	4b84      	ldr	r3, [pc, #528]	; (8001114 <MX_GPIO_Init+0x2c4>)
 8000f04:	6b1b      	ldr	r3, [r3, #48]	; 0x30
 8000f06:	f003 0308 	and.w	r3, r3, #8
 8000f0a:	607b      	str	r3, [r7, #4]
 8000f0c:	687b      	ldr	r3, [r7, #4]

  /*Configure GPIO pin Output Level */
  HAL_GPIO_WritePin(CS_I2C_SPI_GPIO_Port, CS_I2C_SPI_Pin, GPIO_PIN_RESET);
 8000f0e:	2200      	movs	r2, #0
 8000f10:	2108      	movs	r1, #8
 8000f12:	4881      	ldr	r0, [pc, #516]	; (8001118 <MX_GPIO_Init+0x2c8>)
 8000f14:	f001 f84a 	bl	8001fac <HAL_GPIO_WritePin>

  /*Configure GPIO pin Output Level */
  HAL_GPIO_WritePin(OTG_FS_PowerSwitchOn_GPIO_Port, OTG_FS_PowerSwitchOn_Pin, GPIO_PIN_SET);
 8000f18:	2201      	movs	r2, #1
 8000f1a:	2101      	movs	r1, #1
 8000f1c:	487f      	ldr	r0, [pc, #508]	; (800111c <MX_GPIO_Init+0x2cc>)
 8000f1e:	f001 f845 	bl	8001fac <HAL_GPIO_WritePin>

  /*Configure GPIO pin Output Level */
  HAL_GPIO_WritePin(GPIOD, LD4_Pin|LD3_Pin|LD5_Pin|LD6_Pin
 8000f22:	2200      	movs	r2, #0
 8000f24:	f24f 0110 	movw	r1, #61456	; 0xf010
 8000f28:	487d      	ldr	r0, [pc, #500]	; (8001120 <MX_GPIO_Init+0x2d0>)
 8000f2a:	f001 f83f 	bl	8001fac <HAL_GPIO_WritePin>

  /*Configure GPIO pins : PE2 PE4 PE5 PE6
                           PE7 PE8 PE9 PE10
                           PE11 PE12 PE13 PE14
                           PE15 PE0 */
  GPIO_InitStruct.Pin = GPIO_PIN_2|GPIO_PIN_4|GPIO_PIN_5|GPIO_PIN_6
 8000f2e:	f64f 73f5 	movw	r3, #65525	; 0xfff5
 8000f32:	61fb      	str	r3, [r7, #28]
                          |GPIO_PIN_7|GPIO_PIN_8|GPIO_PIN_9|GPIO_PIN_10
                          |GPIO_PIN_11|GPIO_PIN_12|GPIO_PIN_13|GPIO_PIN_14
                          |GPIO_PIN_15|GPIO_PIN_0;
  GPIO_InitStruct.Mode = GPIO_MODE_ANALOG;
 8000f34:	2303      	movs	r3, #3
 8000f36:	623b      	str	r3, [r7, #32]
  GPIO_InitStruct.Pull = GPIO_NOPULL;
 8000f38:	2300      	movs	r3, #0
 8000f3a:	627b      	str	r3, [r7, #36]	; 0x24
  HAL_GPIO_Init(GPIOE, &GPIO_InitStruct);
 8000f3c:	f107 031c 	add.w	r3, r7, #28
 8000f40:	4619      	mov	r1, r3
 8000f42:	4875      	ldr	r0, [pc, #468]	; (8001118 <MX_GPIO_Init+0x2c8>)
 8000f44:	f000 fd46 	bl	80019d4 <HAL_GPIO_Init>

  /*Configure GPIO pin : PtPin */
  GPIO_InitStruct.Pin = CS_I2C_SPI_Pin;
 8000f48:	2308      	movs	r3, #8
 8000f4a:	61fb      	str	r3, [r7, #28]
  GPIO_InitStruct.Mode = GPIO_MODE_OUTPUT_PP;
 8000f4c:	2301      	movs	r3, #1
 8000f4e:	623b      	str	r3, [r7, #32]
  GPIO_InitStruct.Pull = GPIO_NOPULL;
 8000f50:	2300      	movs	r3, #0
 8000f52:	627b      	str	r3, [r7, #36]	; 0x24
  GPIO_InitStruct.Speed = GPIO_SPEED_FREQ_LOW;
 8000f54:	2300      	movs	r3, #0
 8000f56:	62bb      	str	r3, [r7, #40]	; 0x28
  HAL_GPIO_Init(CS_I2C_SPI_GPIO_Port, &GPIO_InitStruct);
 8000f58:	f107 031c 	add.w	r3, r7, #28
 8000f5c:	4619      	mov	r1, r3
 8000f5e:	486e      	ldr	r0, [pc, #440]	; (8001118 <MX_GPIO_Init+0x2c8>)
 8000f60:	f000 fd38 	bl	80019d4 <HAL_GPIO_Init>

  /*Configure GPIO pins : PC13 PC1 PC2 PC3
                           PC4 PC5 PC6 PC8
                           PC9 PC11 */
  GPIO_InitStruct.Pin = GPIO_PIN_13|GPIO_PIN_1|GPIO_PIN_2|GPIO_PIN_3
 8000f64:	f642 337e 	movw	r3, #11134	; 0x2b7e
 8000f68:	61fb      	str	r3, [r7, #28]
                          |GPIO_PIN_4|GPIO_PIN_5|GPIO_PIN_6|GPIO_PIN_8
                          |GPIO_PIN_9|GPIO_PIN_11;
  GPIO_InitStruct.Mode = GPIO_MODE_ANALOG;
 8000f6a:	2303      	movs	r3, #3
 8000f6c:	623b      	str	r3, [r7, #32]
  GPIO_InitStruct.Pull = GPIO_NOPULL;
 8000f6e:	2300      	movs	r3, #0
 8000f70:	627b      	str	r3, [r7, #36]	; 0x24
  HAL_GPIO_Init(GPIOC, &GPIO_InitStruct);
 8000f72:	f107 031c 	add.w	r3, r7, #28
 8000f76:	4619      	mov	r1, r3
 8000f78:	4868      	ldr	r0, [pc, #416]	; (800111c <MX_GPIO_Init+0x2cc>)
 8000f7a:	f000 fd2b 	bl	80019d4 <HAL_GPIO_Init>

  /*Configure GPIO pin : PtPin */
  GPIO_InitStruct.Pin = OTG_FS_PowerSwitchOn_Pin;
 8000f7e:	2301      	movs	r3, #1
 8000f80:	61fb      	str	r3, [r7, #28]
  GPIO_InitStruct.Mode = GPIO_MODE_OUTPUT_PP;
 8000f82:	2301      	movs	r3, #1
 8000f84:	623b      	str	r3, [r7, #32]
  GPIO_InitStruct.Pull = GPIO_NOPULL;
 8000f86:	2300      	movs	r3, #0
 8000f88:	627b      	str	r3, [r7, #36]	; 0x24
  GPIO_InitStruct.Speed = GPIO_SPEED_FREQ_LOW;
 8000f8a:	2300      	movs	r3, #0
 8000f8c:	62bb      	str	r3, [r7, #40]	; 0x28
  HAL_GPIO_Init(OTG_FS_PowerSwitchOn_GPIO_Port, &GPIO_InitStruct);
 8000f8e:	f107 031c 	add.w	r3, r7, #28
 8000f92:	4619      	mov	r1, r3
 8000f94:	4861      	ldr	r0, [pc, #388]	; (800111c <MX_GPIO_Init+0x2cc>)
 8000f96:	f000 fd1d 	bl	80019d4 <HAL_GPIO_Init>

  /*Configure GPIO pin : PtPin */
  GPIO_InitStruct.Pin = B1_Pin;
 8000f9a:	2301      	movs	r3, #1
 8000f9c:	61fb      	str	r3, [r7, #28]
  GPIO_InitStruct.Mode = GPIO_MODE_EVT_RISING;
 8000f9e:	4b61      	ldr	r3, [pc, #388]	; (8001124 <MX_GPIO_Init+0x2d4>)
 8000fa0:	623b      	str	r3, [r7, #32]
  GPIO_InitStruct.Pull = GPIO_NOPULL;
 8000fa2:	2300      	movs	r3, #0
 8000fa4:	627b      	str	r3, [r7, #36]	; 0x24
  HAL_GPIO_Init(B1_GPIO_Port, &GPIO_InitStruct);
 8000fa6:	f107 031c 	add.w	r3, r7, #28
 8000faa:	4619      	mov	r1, r3
 8000fac:	485e      	ldr	r0, [pc, #376]	; (8001128 <MX_GPIO_Init+0x2d8>)
 8000fae:	f000 fd11 	bl	80019d4 <HAL_GPIO_Init>

  /*Configure GPIO pins : PA1 PA8 PA9 PA10
                           PA15 */
  GPIO_InitStruct.Pin = GPIO_PIN_1|GPIO_PIN_8|GPIO_PIN_9|GPIO_PIN_10
 8000fb2:	f248 7302 	movw	r3, #34562	; 0x8702
 8000fb6:	61fb      	str	r3, [r7, #28]
                          |GPIO_PIN_15;
  GPIO_InitStruct.Mode = GPIO_MODE_ANALOG;
 8000fb8:	2303      	movs	r3, #3
 8000fba:	623b      	str	r3, [r7, #32]
  GPIO_InitStruct.Pull = GPIO_NOPULL;
 8000fbc:	2300      	movs	r3, #0
 8000fbe:	627b      	str	r3, [r7, #36]	; 0x24
  HAL_GPIO_Init(GPIOA, &GPIO_InitStruct);
 8000fc0:	f107 031c 	add.w	r3, r7, #28
 8000fc4:	4619      	mov	r1, r3
 8000fc6:	4858      	ldr	r0, [pc, #352]	; (8001128 <MX_GPIO_Init+0x2d8>)
 8000fc8:	f000 fd04 	bl	80019d4 <HAL_GPIO_Init>

  /*Configure GPIO pin : PtPin */
  GPIO_InitStruct.Pin = I2S3_WS_Pin;
 8000fcc:	2310      	movs	r3, #16
 8000fce:	61fb      	str	r3, [r7, #28]
  GPIO_InitStruct.Mode = GPIO_MODE_AF_PP;
 8000fd0:	2302      	movs	r3, #2
 8000fd2:	623b      	str	r3, [r7, #32]
  GPIO_InitStruct.Pull = GPIO_NOPULL;
 8000fd4:	2300      	movs	r3, #0
 8000fd6:	627b      	str	r3, [r7, #36]	; 0x24
  GPIO_InitStruct.Speed = GPIO_SPEED_FREQ_LOW;
 8000fd8:	2300      	movs	r3, #0
 8000fda:	62bb      	str	r3, [r7, #40]	; 0x28
  GPIO_InitStruct.Alternate = GPIO_AF6_SPI3;
 8000fdc:	2306      	movs	r3, #6
 8000fde:	62fb      	str	r3, [r7, #44]	; 0x2c
  HAL_GPIO_Init(I2S3_WS_GPIO_Port, &GPIO_InitStruct);
 8000fe0:	f107 031c 	add.w	r3, r7, #28
 8000fe4:	4619      	mov	r1, r3
 8000fe6:	4850      	ldr	r0, [pc, #320]	; (8001128 <MX_GPIO_Init+0x2d8>)
 8000fe8:	f000 fcf4 	bl	80019d4 <HAL_GPIO_Init>

  /*Configure GPIO pins : PAPin PAPin PAPin */
  GPIO_InitStruct.Pin = SPI1_SCK_Pin|SPI1_MISO_Pin|SPI1_MOSI_Pin;
 8000fec:	23e0      	movs	r3, #224	; 0xe0
 8000fee:	61fb      	str	r3, [r7, #28]
  GPIO_InitStruct.Mode = GPIO_MODE_AF_PP;
 8000ff0:	2302      	movs	r3, #2
 8000ff2:	623b      	str	r3, [r7, #32]
  GPIO_InitStruct.Pull = GPIO_NOPULL;
 8000ff4:	2300      	movs	r3, #0
 8000ff6:	627b      	str	r3, [r7, #36]	; 0x24
  GPIO_InitStruct.Speed = GPIO_SPEED_FREQ_LOW;
 8000ff8:	2300      	movs	r3, #0
 8000ffa:	62bb      	str	r3, [r7, #40]	; 0x28
  GPIO_InitStruct.Alternate = GPIO_AF5_SPI1;
 8000ffc:	2305      	movs	r3, #5
 8000ffe:	62fb      	str	r3, [r7, #44]	; 0x2c
  HAL_GPIO_Init(GPIOA, &GPIO_InitStruct);
 8001000:	f107 031c 	add.w	r3, r7, #28
 8001004:	4619      	mov	r1, r3
 8001006:	4848      	ldr	r0, [pc, #288]	; (8001128 <MX_GPIO_Init+0x2d8>)
 8001008:	f000 fce4 	bl	80019d4 <HAL_GPIO_Init>

  /*Configure GPIO pins : PB0 PB1 PB11 PB12
                           PB13 PB14 PB15 PB4
                           PB5 PB7 PB8 */
  GPIO_InitStruct.Pin = GPIO_PIN_0|GPIO_PIN_1|GPIO_PIN_11|GPIO_PIN_12
 800100c:	f64f 13b3 	movw	r3, #63923	; 0xf9b3
 8001010:	61fb      	str	r3, [r7, #28]
                          |GPIO_PIN_13|GPIO_PIN_14|GPIO_PIN_15|GPIO_PIN_4
                          |GPIO_PIN_5|GPIO_PIN_7|GPIO_PIN_8;
  GPIO_InitStruct.Mode = GPIO_MODE_ANALOG;
 8001012:	2303      	movs	r3, #3
 8001014:	623b      	str	r3, [r7, #32]
  GPIO_InitStruct.Pull = GPIO_NOPULL;
 8001016:	2300      	movs	r3, #0
 8001018:	627b      	str	r3, [r7, #36]	; 0x24
  HAL_GPIO_Init(GPIOB, &GPIO_InitStruct);
 800101a:	f107 031c 	add.w	r3, r7, #28
 800101e:	4619      	mov	r1, r3
 8001020:	4842      	ldr	r0, [pc, #264]	; (800112c <MX_GPIO_Init+0x2dc>)
 8001022:	f000 fcd7 	bl	80019d4 <HAL_GPIO_Init>

  /*Configure GPIO pin : PtPin */
  GPIO_InitStruct.Pin = BOOT1_Pin;
 8001026:	2304      	movs	r3, #4
 8001028:	61fb      	str	r3, [r7, #28]
  GPIO_InitStruct.Mode = GPIO_MODE_INPUT;
 800102a:	2300      	movs	r3, #0
 800102c:	623b      	str	r3, [r7, #32]
  GPIO_InitStruct.Pull = GPIO_NOPULL;
 800102e:	2300      	movs	r3, #0
 8001030:	627b      	str	r3, [r7, #36]	; 0x24
  HAL_GPIO_Init(BOOT1_GPIO_Port, &GPIO_InitStruct);
 8001032:	f107 031c 	add.w	r3, r7, #28
 8001036:	4619      	mov	r1, r3
 8001038:	483c      	ldr	r0, [pc, #240]	; (800112c <MX_GPIO_Init+0x2dc>)
 800103a:	f000 fccb 	bl	80019d4 <HAL_GPIO_Init>

  /*Configure GPIO pin : PtPin */
  GPIO_InitStruct.Pin = CLK_IN_Pin;
 800103e:	f44f 6380 	mov.w	r3, #1024	; 0x400
 8001042:	61fb      	str	r3, [r7, #28]
  GPIO_InitStruct.Mode = GPIO_MODE_AF_PP;
 8001044:	2302      	movs	r3, #2
 8001046:	623b      	str	r3, [r7, #32]
  GPIO_InitStruct.Pull = GPIO_NOPULL;
 8001048:	2300      	movs	r3, #0
 800104a:	627b      	str	r3, [r7, #36]	; 0x24
  GPIO_InitStruct.Speed = GPIO_SPEED_FREQ_LOW;
 800104c:	2300      	movs	r3, #0
 800104e:	62bb      	str	r3, [r7, #40]	; 0x28
  GPIO_InitStruct.Alternate = GPIO_AF5_SPI2;
 8001050:	2305      	movs	r3, #5
 8001052:	62fb      	str	r3, [r7, #44]	; 0x2c
  HAL_GPIO_Init(CLK_IN_GPIO_Port, &GPIO_InitStruct);
 8001054:	f107 031c 	add.w	r3, r7, #28
 8001058:	4619      	mov	r1, r3
 800105a:	4834      	ldr	r0, [pc, #208]	; (800112c <MX_GPIO_Init+0x2dc>)
 800105c:	f000 fcba 	bl	80019d4 <HAL_GPIO_Init>

  /*Configure GPIO pins : PD8 PD9 PD10 PD11
                           PD0 PD1 PD2 PD3
                           PD6 PD7 */
  GPIO_InitStruct.Pin = GPIO_PIN_8|GPIO_PIN_9|GPIO_PIN_10|GPIO_PIN_11
 8001060:	f640 73cf 	movw	r3, #4047	; 0xfcf
 8001064:	61fb      	str	r3, [r7, #28]
                          |GPIO_PIN_0|GPIO_PIN_1|GPIO_PIN_2|GPIO_PIN_3
                          |GPIO_PIN_6|GPIO_PIN_7;
  GPIO_InitStruct.Mode = GPIO_MODE_ANALOG;
 8001066:	2303      	movs	r3, #3
 8001068:	623b      	str	r3, [r7, #32]
  GPIO_InitStruct.Pull = GPIO_NOPULL;
 800106a:	2300      	movs	r3, #0
 800106c:	627b      	str	r3, [r7, #36]	; 0x24
  HAL_GPIO_Init(GPIOD, &GPIO_InitStruct);
 800106e:	f107 031c 	add.w	r3, r7, #28
 8001072:	4619      	mov	r1, r3
 8001074:	482a      	ldr	r0, [pc, #168]	; (8001120 <MX_GPIO_Init+0x2d0>)
 8001076:	f000 fcad 	bl	80019d4 <HAL_GPIO_Init>

  /*Configure GPIO pins : PDPin PDPin PDPin PDPin
                           PDPin */
  GPIO_InitStruct.Pin = LD4_Pin|LD3_Pin|LD5_Pin|LD6_Pin
 800107a:	f24f 0310 	movw	r3, #61456	; 0xf010
 800107e:	61fb      	str	r3, [r7, #28]
                          |Audio_RST_Pin;
  GPIO_InitStruct.Mode = GPIO_MODE_OUTPUT_PP;
 8001080:	2301      	movs	r3, #1
 8001082:	623b      	str	r3, [r7, #32]
  GPIO_InitStruct.Pull = GPIO_NOPULL;
 8001084:	2300      	movs	r3, #0
 8001086:	627b      	str	r3, [r7, #36]	; 0x24
  GPIO_InitStruct.Speed = GPIO_SPEED_FREQ_LOW;
 8001088:	2300      	movs	r3, #0
 800108a:	62bb      	str	r3, [r7, #40]	; 0x28
  HAL_GPIO_Init(GPIOD, &GPIO_InitStruct);
 800108c:	f107 031c 	add.w	r3, r7, #28
 8001090:	4619      	mov	r1, r3
 8001092:	4823      	ldr	r0, [pc, #140]	; (8001120 <MX_GPIO_Init+0x2d0>)
 8001094:	f000 fc9e 	bl	80019d4 <HAL_GPIO_Init>

  /*Configure GPIO pins : PCPin PCPin PCPin */
  GPIO_InitStruct.Pin = I2S3_MCK_Pin|I2S3_SCK_Pin|I2S3_SD_Pin;
 8001098:	f44f 53a4 	mov.w	r3, #5248	; 0x1480
 800109c:	61fb      	str	r3, [r7, #28]
  GPIO_InitStruct.Mode = GPIO_MODE_AF_PP;
 800109e:	2302      	movs	r3, #2
 80010a0:	623b      	str	r3, [r7, #32]
  GPIO_InitStruct.Pull = GPIO_NOPULL;
 80010a2:	2300      	movs	r3, #0
 80010a4:	627b      	str	r3, [r7, #36]	; 0x24
  GPIO_InitStruct.Speed = GPIO_SPEED_FREQ_LOW;
 80010a6:	2300      	movs	r3, #0
 80010a8:	62bb      	str	r3, [r7, #40]	; 0x28
  GPIO_InitStruct.Alternate = GPIO_AF6_SPI3;
 80010aa:	2306      	movs	r3, #6
 80010ac:	62fb      	str	r3, [r7, #44]	; 0x2c
  HAL_GPIO_Init(GPIOC, &GPIO_InitStruct);
 80010ae:	f107 031c 	add.w	r3, r7, #28
 80010b2:	4619      	mov	r1, r3
 80010b4:	4819      	ldr	r0, [pc, #100]	; (800111c <MX_GPIO_Init+0x2cc>)
 80010b6:	f000 fc8d 	bl	80019d4 <HAL_GPIO_Init>

  /*Configure GPIO pin : PtPin */
  GPIO_InitStruct.Pin = OTG_FS_OverCurrent_Pin;
 80010ba:	2320      	movs	r3, #32
 80010bc:	61fb      	str	r3, [r7, #28]
  GPIO_InitStruct.Mode = GPIO_MODE_INPUT;
 80010be:	2300      	movs	r3, #0
 80010c0:	623b      	str	r3, [r7, #32]
  GPIO_InitStruct.Pull = GPIO_NOPULL;
 80010c2:	2300      	movs	r3, #0
 80010c4:	627b      	str	r3, [r7, #36]	; 0x24
  HAL_GPIO_Init(OTG_FS_OverCurrent_GPIO_Port, &GPIO_InitStruct);
 80010c6:	f107 031c 	add.w	r3, r7, #28
 80010ca:	4619      	mov	r1, r3
 80010cc:	4814      	ldr	r0, [pc, #80]	; (8001120 <MX_GPIO_Init+0x2d0>)
 80010ce:	f000 fc81 	bl	80019d4 <HAL_GPIO_Init>

  /*Configure GPIO pins : PBPin PBPin */
  GPIO_InitStruct.Pin = Audio_SCL_Pin|Audio_SDA_Pin;
 80010d2:	f44f 7310 	mov.w	r3, #576	; 0x240
 80010d6:	61fb      	str	r3, [r7, #28]
  GPIO_InitStruct.Mode = GPIO_MODE_AF_OD;
 80010d8:	2312      	movs	r3, #18
 80010da:	623b      	str	r3, [r7, #32]
  GPIO_InitStruct.Pull = GPIO_PULLUP;
 80010dc:	2301      	movs	r3, #1
 80010de:	627b      	str	r3, [r7, #36]	; 0x24
  GPIO_InitStruct.Speed = GPIO_SPEED_FREQ_LOW;
 80010e0:	2300      	movs	r3, #0
 80010e2:	62bb      	str	r3, [r7, #40]	; 0x28
  GPIO_InitStruct.Alternate = GPIO_AF4_I2C1;
 80010e4:	2304      	movs	r3, #4
 80010e6:	62fb      	str	r3, [r7, #44]	; 0x2c
  HAL_GPIO_Init(GPIOB, &GPIO_InitStruct);
 80010e8:	f107 031c 	add.w	r3, r7, #28
 80010ec:	4619      	mov	r1, r3
 80010ee:	480f      	ldr	r0, [pc, #60]	; (800112c <MX_GPIO_Init+0x2dc>)
 80010f0:	f000 fc70 	bl	80019d4 <HAL_GPIO_Init>

  /*Configure GPIO pin : PtPin */
  GPIO_InitStruct.Pin = MEMS_INT2_Pin;
 80010f4:	2302      	movs	r3, #2
 80010f6:	61fb      	str	r3, [r7, #28]
  GPIO_InitStruct.Mode = GPIO_MODE_EVT_RISING;
 80010f8:	4b0a      	ldr	r3, [pc, #40]	; (8001124 <MX_GPIO_Init+0x2d4>)
 80010fa:	623b      	str	r3, [r7, #32]
  GPIO_InitStruct.Pull = GPIO_NOPULL;
 80010fc:	2300      	movs	r3, #0
 80010fe:	627b      	str	r3, [r7, #36]	; 0x24
  HAL_GPIO_Init(MEMS_INT2_GPIO_Port, &GPIO_InitStruct);
 8001100:	f107 031c 	add.w	r3, r7, #28
 8001104:	4619      	mov	r1, r3
 8001106:	4804      	ldr	r0, [pc, #16]	; (8001118 <MX_GPIO_Init+0x2c8>)
 8001108:	f000 fc64 	bl	80019d4 <HAL_GPIO_Init>

}
 800110c:	bf00      	nop
 800110e:	3730      	adds	r7, #48	; 0x30
 8001110:	46bd      	mov	sp, r7
 8001112:	bd80      	pop	{r7, pc}
 8001114:	40023800 	.word	0x40023800
 8001118:	40021000 	.word	0x40021000
 800111c:	40020800 	.word	0x40020800
 8001120:	40020c00 	.word	0x40020c00
 8001124:	10120000 	.word	0x10120000
 8001128:	40020000 	.word	0x40020000
 800112c:	40020400 	.word	0x40020400

08001130 <hello_init>:
static struct{
	 bool initialized;
	 uint16_t value;
}hello_control;

BaseType_t hello_init(){
 8001130:	b480      	push	{r7}
 8001132:	af00      	add	r7, sp, #0
    hello_control.initialized=true;
 8001134:	4b05      	ldr	r3, [pc, #20]	; (800114c <hello_init+0x1c>)
 8001136:	2201      	movs	r2, #1
 8001138:	701a      	strb	r2, [r3, #0]
    hello_control.value=MIN_VALAUE;
 800113a:	4b04      	ldr	r3, [pc, #16]	; (800114c <hello_init+0x1c>)
 800113c:	222a      	movs	r2, #42	; 0x2a
 800113e:	805a      	strh	r2, [r3, #2]
    return pdTRUE; //same as return EXIT_SUCCESS in int/uint type functions
 8001140:	2301      	movs	r3, #1
}
 8001142:	4618      	mov	r0, r3
 8001144:	46bd      	mov	sp, r7
 8001146:	f85d 7b04 	ldr.w	r7, [sp], #4
 800114a:	4770      	bx	lr
 800114c:	20000400 	.word	0x20000400

08001150 <hello_function>:

BaseType_t hello_deinit(){
    return pdTRUE;
}

void hello_function(const void *args){
 8001150:	b580      	push	{r7, lr}
 8001152:	b082      	sub	sp, #8
 8001154:	af00      	add	r7, sp, #0
 8001156:	6078      	str	r0, [r7, #4]
     for(;;){
    	 hello_control.value=hello_control.value<MAX_VALUE
 8001158:	4b08      	ldr	r3, [pc, #32]	; (800117c <hello_function+0x2c>)
 800115a:	885b      	ldrh	r3, [r3, #2]
 800115c:	f5b3 7fd2 	cmp.w	r3, #420	; 0x1a4
 8001160:	d204      	bcs.n	800116c <hello_function+0x1c>
    		 ?hello_control.value+1
 8001162:	4b06      	ldr	r3, [pc, #24]	; (800117c <hello_function+0x2c>)
 8001164:	885b      	ldrh	r3, [r3, #2]
    	 hello_control.value=hello_control.value<MAX_VALUE
 8001166:	3301      	adds	r3, #1
 8001168:	b29b      	uxth	r3, r3
 800116a:	e000      	b.n	800116e <hello_function+0x1e>
 800116c:	232a      	movs	r3, #42	; 0x2a
 800116e:	4a03      	ldr	r2, [pc, #12]	; (800117c <hello_function+0x2c>)
 8001170:	8053      	strh	r3, [r2, #2]
    	     :MIN_VALAUE;
    	 osDelay(TASK_DELAY_MS);
 8001172:	f44f 707a 	mov.w	r0, #1000	; 0x3e8
 8001176:	f007 f847 	bl	8008208 <osDelay>
    	 hello_control.value=hello_control.value<MAX_VALUE
 800117a:	e7ed      	b.n	8001158 <hello_function+0x8>
 800117c:	20000400 	.word	0x20000400

08001180 <cmd_usage>:
     }
}

static void cmd_usage(){
 8001180:	b580      	push	{r7, lr}
 8001182:	af00      	add	r7, sp, #0
       sh_printf("usage: %s [set <value>] | get]\r\n",HELLO_CMD);
 8001184:	4902      	ldr	r1, [pc, #8]	; (8001190 <cmd_usage+0x10>)
 8001186:	4803      	ldr	r0, [pc, #12]	; (8001194 <cmd_usage+0x14>)
 8001188:	f00b fff6 	bl	800d178 <sh_printf>
}
 800118c:	bf00      	nop
 800118e:	bd80      	pop	{r7, pc}
 8001190:	0800da04 	.word	0x0800da04
 8001194:	0800da0c 	.word	0x0800da0c

08001198 <cmd_hello>:

void cmd_hello(int argc,char *argv[]){
 8001198:	b580      	push	{r7, lr}
 800119a:	b084      	sub	sp, #16
 800119c:	af00      	add	r7, sp, #0
 800119e:	6078      	str	r0, [r7, #4]
 80011a0:	6039      	str	r1, [r7, #0]
     if(!hello_control.initialized){
 80011a2:	4b2d      	ldr	r3, [pc, #180]	; (8001258 <cmd_hello+0xc0>)
 80011a4:	781b      	ldrb	r3, [r3, #0]
 80011a6:	f083 0301 	eor.w	r3, r3, #1
 80011aa:	b2db      	uxtb	r3, r3
 80011ac:	2b00      	cmp	r3, #0
 80011ae:	d003      	beq.n	80011b8 <cmd_hello+0x20>
    	sh_printf("hello is not initialized yet\rn");
 80011b0:	482a      	ldr	r0, [pc, #168]	; (800125c <cmd_hello+0xc4>)
 80011b2:	f00b ffe1 	bl	800d178 <sh_printf>
    	return;
 80011b6:	e04b      	b.n	8001250 <cmd_hello+0xb8>
     }

     if(argc<1){
 80011b8:	687b      	ldr	r3, [r7, #4]
 80011ba:	2b00      	cmp	r3, #0
 80011bc:	dc02      	bgt.n	80011c4 <cmd_hello+0x2c>
		   cmd_usage();
 80011be:	f7ff ffdf 	bl	8001180 <cmd_usage>
		   return;
 80011c2:	e045      	b.n	8001250 <cmd_hello+0xb8>
     }

     if(strcmp(argv[0],CMD_ARG_SET)==0){
 80011c4:	683b      	ldr	r3, [r7, #0]
 80011c6:	681b      	ldr	r3, [r3, #0]
 80011c8:	4925      	ldr	r1, [pc, #148]	; (8001260 <cmd_hello+0xc8>)
 80011ca:	4618      	mov	r0, r3
 80011cc:	f7ff f800 	bl	80001d0 <strcmp>
 80011d0:	4603      	mov	r3, r0
 80011d2:	2b00      	cmp	r3, #0
 80011d4:	d124      	bne.n	8001220 <cmd_hello+0x88>
		   if(argc!=2){
 80011d6:	687b      	ldr	r3, [r7, #4]
 80011d8:	2b02      	cmp	r3, #2
 80011da:	d002      	beq.n	80011e2 <cmd_hello+0x4a>
			  cmd_usage();
 80011dc:	f7ff ffd0 	bl	8001180 <cmd_usage>
			  return;
 80011e0:	e036      	b.n	8001250 <cmd_hello+0xb8>
		   }
		   uint16_t nv=atoi(argv[1]);
 80011e2:	683b      	ldr	r3, [r7, #0]
 80011e4:	3304      	adds	r3, #4
 80011e6:	681b      	ldr	r3, [r3, #0]
 80011e8:	4618      	mov	r0, r3
 80011ea:	f00c f981 	bl	800d4f0 <atoi>
 80011ee:	4603      	mov	r3, r0
 80011f0:	81fb      	strh	r3, [r7, #14]
		   if(nv >= MIN_VALAUE && nv <= MAX_VALUE){
 80011f2:	89fb      	ldrh	r3, [r7, #14]
 80011f4:	2b29      	cmp	r3, #41	; 0x29
 80011f6:	d90c      	bls.n	8001212 <cmd_hello+0x7a>
 80011f8:	89fb      	ldrh	r3, [r7, #14]
 80011fa:	f5b3 7fd2 	cmp.w	r3, #420	; 0x1a4
 80011fe:	d808      	bhi.n	8001212 <cmd_hello+0x7a>
			   hello_control.value=nv;
 8001200:	4a15      	ldr	r2, [pc, #84]	; (8001258 <cmd_hello+0xc0>)
 8001202:	89fb      	ldrh	r3, [r7, #14]
 8001204:	8053      	strh	r3, [r2, #2]
			   sh_printf("successfully changed to %d\r\n",nv);
 8001206:	89fb      	ldrh	r3, [r7, #14]
 8001208:	4619      	mov	r1, r3
 800120a:	4816      	ldr	r0, [pc, #88]	; (8001264 <cmd_hello+0xcc>)
 800120c:	f00b ffb4 	bl	800d178 <sh_printf>
			   return;
 8001210:	e01e      	b.n	8001250 <cmd_hello+0xb8>
		   }
		   sh_printf("value must be between %d and %d",MIN_VALAUE,MAX_VALUE);
 8001212:	f44f 72d2 	mov.w	r2, #420	; 0x1a4
 8001216:	212a      	movs	r1, #42	; 0x2a
 8001218:	4813      	ldr	r0, [pc, #76]	; (8001268 <cmd_hello+0xd0>)
 800121a:	f00b ffad 	bl	800d178 <sh_printf>
		   return;
 800121e:	e017      	b.n	8001250 <cmd_hello+0xb8>
     }

     if(strcasecmp(argv[0],CMD_ARG_GET)==0){
 8001220:	683b      	ldr	r3, [r7, #0]
 8001222:	681b      	ldr	r3, [r3, #0]
 8001224:	4911      	ldr	r1, [pc, #68]	; (800126c <cmd_hello+0xd4>)
 8001226:	4618      	mov	r0, r3
 8001228:	f00c fa6c 	bl	800d704 <strcasecmp>
 800122c:	4603      	mov	r3, r0
 800122e:	2b00      	cmp	r3, #0
 8001230:	d106      	bne.n	8001240 <cmd_hello+0xa8>
    	sh_printf("Current value is %d\r\n",hello_control.value);
 8001232:	4b09      	ldr	r3, [pc, #36]	; (8001258 <cmd_hello+0xc0>)
 8001234:	885b      	ldrh	r3, [r3, #2]
 8001236:	4619      	mov	r1, r3
 8001238:	480d      	ldr	r0, [pc, #52]	; (8001270 <cmd_hello+0xd8>)
 800123a:	f00b ff9d 	bl	800d178 <sh_printf>
    	return;
 800123e:	e007      	b.n	8001250 <cmd_hello+0xb8>
     }

     sh_printf("unknown command: %sr\n",argv[0]);
 8001240:	683b      	ldr	r3, [r7, #0]
 8001242:	681b      	ldr	r3, [r3, #0]
 8001244:	4619      	mov	r1, r3
 8001246:	480b      	ldr	r0, [pc, #44]	; (8001274 <cmd_hello+0xdc>)
 8001248:	f00b ff96 	bl	800d178 <sh_printf>
     cmd_usage();
 800124c:	f7ff ff98 	bl	8001180 <cmd_usage>
}
 8001250:	3710      	adds	r7, #16
 8001252:	46bd      	mov	sp, r7
 8001254:	bd80      	pop	{r7, pc}
 8001256:	bf00      	nop
 8001258:	20000400 	.word	0x20000400
 800125c:	0800da30 	.word	0x0800da30
 8001260:	0800da50 	.word	0x0800da50
 8001264:	0800da54 	.word	0x0800da54
 8001268:	0800da74 	.word	0x0800da74
 800126c:	0800da94 	.word	0x0800da94
 8001270:	0800da98 	.word	0x0800da98
 8001274:	0800dab0 	.word	0x0800dab0

08001278 <main>:
/**
  * @brief  The application entry point.
  * @retval int
  */
int main(void)
{
 8001278:	b580      	push	{r7, lr}
 800127a:	af00      	add	r7, sp, #0
  /* USER CODE END 1 */

  /* MCU Configuration--------------------------------------------------------*/

  /* Reset of all peripherals, Initializes the Flash interface and the Systick. */
  HAL_Init();
 800127c:	f000 fa34 	bl	80016e8 <HAL_Init>
  /* USER CODE BEGIN Init */

  /* USER CODE END Init */

  /* Configure the system clock */
  SystemClock_Config();
 8001280:	f000 f80c 	bl	800129c <SystemClock_Config>
  /* USER CODE BEGIN SysInit */

  /* USER CODE END SysInit */

  /* Initialize all configured peripherals */
  MX_GPIO_Init();
 8001284:	f7ff fde4 	bl	8000e50 <MX_GPIO_Init>
  MX_USART2_UART_Init();
 8001288:	f000 f992 	bl	80015b0 <MX_USART2_UART_Init>
  /* USER CODE BEGIN 2 */

  /* USER CODE END 2 */

  /* Init scheduler */
  osKernelInitialize();  /* Call init function for freertos objects (in freertos.c) */
 800128c:	f006 feac 	bl	8007fe8 <osKernelInitialize>
  MX_FREERTOS_Init();
 8001290:	f7ff fd76 	bl	8000d80 <MX_FREERTOS_Init>
  /* Start scheduler */
  osKernelStart();
 8001294:	f006 fedc 	bl	8008050 <osKernelStart>

  /* We should never get here as control is now taken by the scheduler */
  /* Infinite loop */
  /* USER CODE BEGIN WHILE */
  while (1)
 8001298:	e7fe      	b.n	8001298 <main+0x20>
	...

0800129c <SystemClock_Config>:
/**
  * @brief System Clock Configuration
  * @retval None
  */
void SystemClock_Config(void)
{
 800129c:	b580      	push	{r7, lr}
 800129e:	b094      	sub	sp, #80	; 0x50
 80012a0:	af00      	add	r7, sp, #0
  RCC_OscInitTypeDef RCC_OscInitStruct = {0};
 80012a2:	f107 0320 	add.w	r3, r7, #32
 80012a6:	2230      	movs	r2, #48	; 0x30
 80012a8:	2100      	movs	r1, #0
 80012aa:	4618      	mov	r0, r3
 80012ac:	f00c f969 	bl	800d582 <memset>
  RCC_ClkInitTypeDef RCC_ClkInitStruct = {0};
 80012b0:	f107 030c 	add.w	r3, r7, #12
 80012b4:	2200      	movs	r2, #0
 80012b6:	601a      	str	r2, [r3, #0]
 80012b8:	605a      	str	r2, [r3, #4]
 80012ba:	609a      	str	r2, [r3, #8]
 80012bc:	60da      	str	r2, [r3, #12]
 80012be:	611a      	str	r2, [r3, #16]

  /** Configure the main internal regulator output voltage
  */
  __HAL_RCC_PWR_CLK_ENABLE();
 80012c0:	2300      	movs	r3, #0
 80012c2:	60bb      	str	r3, [r7, #8]
 80012c4:	4b28      	ldr	r3, [pc, #160]	; (8001368 <SystemClock_Config+0xcc>)
 80012c6:	6c1b      	ldr	r3, [r3, #64]	; 0x40
 80012c8:	4a27      	ldr	r2, [pc, #156]	; (8001368 <SystemClock_Config+0xcc>)
 80012ca:	f043 5380 	orr.w	r3, r3, #268435456	; 0x10000000
 80012ce:	6413      	str	r3, [r2, #64]	; 0x40
 80012d0:	4b25      	ldr	r3, [pc, #148]	; (8001368 <SystemClock_Config+0xcc>)
 80012d2:	6c1b      	ldr	r3, [r3, #64]	; 0x40
 80012d4:	f003 5380 	and.w	r3, r3, #268435456	; 0x10000000
 80012d8:	60bb      	str	r3, [r7, #8]
 80012da:	68bb      	ldr	r3, [r7, #8]
  __HAL_PWR_VOLTAGESCALING_CONFIG(PWR_REGULATOR_VOLTAGE_SCALE1);
 80012dc:	2300      	movs	r3, #0
 80012de:	607b      	str	r3, [r7, #4]
 80012e0:	4b22      	ldr	r3, [pc, #136]	; (800136c <SystemClock_Config+0xd0>)
 80012e2:	681b      	ldr	r3, [r3, #0]
 80012e4:	4a21      	ldr	r2, [pc, #132]	; (800136c <SystemClock_Config+0xd0>)
 80012e6:	f443 4380 	orr.w	r3, r3, #16384	; 0x4000
 80012ea:	6013      	str	r3, [r2, #0]
 80012ec:	4b1f      	ldr	r3, [pc, #124]	; (800136c <SystemClock_Config+0xd0>)
 80012ee:	681b      	ldr	r3, [r3, #0]
 80012f0:	f403 4380 	and.w	r3, r3, #16384	; 0x4000
 80012f4:	607b      	str	r3, [r7, #4]
 80012f6:	687b      	ldr	r3, [r7, #4]
  /** Initializes the RCC Oscillators according to the specified parameters
  * in the RCC_OscInitTypeDef structure.
  */
  RCC_OscInitStruct.OscillatorType = RCC_OSCILLATORTYPE_HSE;
 80012f8:	2301      	movs	r3, #1
 80012fa:	623b      	str	r3, [r7, #32]
  RCC_OscInitStruct.HSEState = RCC_HSE_ON;
 80012fc:	f44f 3380 	mov.w	r3, #65536	; 0x10000
 8001300:	627b      	str	r3, [r7, #36]	; 0x24
  RCC_OscInitStruct.PLL.PLLState = RCC_PLL_ON;
 8001302:	2302      	movs	r3, #2
 8001304:	63bb      	str	r3, [r7, #56]	; 0x38
  RCC_OscInitStruct.PLL.PLLSource = RCC_PLLSOURCE_HSE;
 8001306:	f44f 0380 	mov.w	r3, #4194304	; 0x400000
 800130a:	63fb      	str	r3, [r7, #60]	; 0x3c
  RCC_OscInitStruct.PLL.PLLM = 8;
 800130c:	2308      	movs	r3, #8
 800130e:	643b      	str	r3, [r7, #64]	; 0x40
  RCC_OscInitStruct.PLL.PLLN = 336;
 8001310:	f44f 73a8 	mov.w	r3, #336	; 0x150
 8001314:	647b      	str	r3, [r7, #68]	; 0x44
  RCC_OscInitStruct.PLL.PLLP = RCC_PLLP_DIV2;
 8001316:	2302      	movs	r3, #2
 8001318:	64bb      	str	r3, [r7, #72]	; 0x48
  RCC_OscInitStruct.PLL.PLLQ = 7;
 800131a:	2307      	movs	r3, #7
 800131c:	64fb      	str	r3, [r7, #76]	; 0x4c
  if (HAL_RCC_OscConfig(&RCC_OscInitStruct) != HAL_OK)
 800131e:	f107 0320 	add.w	r3, r7, #32
 8001322:	4618      	mov	r0, r3
 8001324:	f002 f832 	bl	800338c <HAL_RCC_OscConfig>
 8001328:	4603      	mov	r3, r0
 800132a:	2b00      	cmp	r3, #0
 800132c:	d001      	beq.n	8001332 <SystemClock_Config+0x96>
  {
    Error_Handler();
 800132e:	f000 f831 	bl	8001394 <Error_Handler>
  }
  /** Initializes the CPU, AHB and APB buses clocks
  */
  RCC_ClkInitStruct.ClockType = RCC_CLOCKTYPE_HCLK|RCC_CLOCKTYPE_SYSCLK
 8001332:	230f      	movs	r3, #15
 8001334:	60fb      	str	r3, [r7, #12]
                              |RCC_CLOCKTYPE_PCLK1|RCC_CLOCKTYPE_PCLK2;
  RCC_ClkInitStruct.SYSCLKSource = RCC_SYSCLKSOURCE_PLLCLK;
 8001336:	2302      	movs	r3, #2
 8001338:	613b      	str	r3, [r7, #16]
  RCC_ClkInitStruct.AHBCLKDivider = RCC_SYSCLK_DIV1;
 800133a:	2300      	movs	r3, #0
 800133c:	617b      	str	r3, [r7, #20]
  RCC_ClkInitStruct.APB1CLKDivider = RCC_HCLK_DIV4;
 800133e:	f44f 53a0 	mov.w	r3, #5120	; 0x1400
 8001342:	61bb      	str	r3, [r7, #24]
  RCC_ClkInitStruct.APB2CLKDivider = RCC_HCLK_DIV2;
 8001344:	f44f 5380 	mov.w	r3, #4096	; 0x1000
 8001348:	61fb      	str	r3, [r7, #28]

  if (HAL_RCC_ClockConfig(&RCC_ClkInitStruct, FLASH_LATENCY_5) != HAL_OK)
 800134a:	f107 030c 	add.w	r3, r7, #12
 800134e:	2105      	movs	r1, #5
 8001350:	4618      	mov	r0, r3
 8001352:	f002 fb3b 	bl	80039cc <HAL_RCC_ClockConfig>
 8001356:	4603      	mov	r3, r0
 8001358:	2b00      	cmp	r3, #0
 800135a:	d001      	beq.n	8001360 <SystemClock_Config+0xc4>
  {
    Error_Handler();
 800135c:	f000 f81a 	bl	8001394 <Error_Handler>
  }
}
 8001360:	bf00      	nop
 8001362:	3750      	adds	r7, #80	; 0x50
 8001364:	46bd      	mov	sp, r7
 8001366:	bd80      	pop	{r7, pc}
 8001368:	40023800 	.word	0x40023800
 800136c:	40007000 	.word	0x40007000

08001370 <HAL_TIM_PeriodElapsedCallback>:
  * a global variable "uwTick" used as application time base.
  * @param  htim : TIM handle
  * @retval None
  */
void HAL_TIM_PeriodElapsedCallback(TIM_HandleTypeDef *htim)
{
 8001370:	b580      	push	{r7, lr}
 8001372:	b082      	sub	sp, #8
 8001374:	af00      	add	r7, sp, #0
 8001376:	6078      	str	r0, [r7, #4]
  /* USER CODE BEGIN Callback 0 */

  /* USER CODE END Callback 0 */
  if (htim->Instance == TIM1) {
 8001378:	687b      	ldr	r3, [r7, #4]
 800137a:	681b      	ldr	r3, [r3, #0]
 800137c:	4a04      	ldr	r2, [pc, #16]	; (8001390 <HAL_TIM_PeriodElapsedCallback+0x20>)
 800137e:	4293      	cmp	r3, r2
 8001380:	d101      	bne.n	8001386 <HAL_TIM_PeriodElapsedCallback+0x16>
    HAL_IncTick();
 8001382:	f000 f9d3 	bl	800172c <HAL_IncTick>
  }
  /* USER CODE BEGIN Callback 1 */

  /* USER CODE END Callback 1 */
}
 8001386:	bf00      	nop
 8001388:	3708      	adds	r7, #8
 800138a:	46bd      	mov	sp, r7
 800138c:	bd80      	pop	{r7, pc}
 800138e:	bf00      	nop
 8001390:	40010000 	.word	0x40010000

08001394 <Error_Handler>:
/**
  * @brief  This function is executed in case of error occurrence.
  * @retval None
  */
void Error_Handler(void)
{
 8001394:	b480      	push	{r7}
 8001396:	af00      	add	r7, sp, #0
  /* USER CODE BEGIN Error_Handler_Debug */
  /* User can add his own implementation to report the HAL error return state */

  /* USER CODE END Error_Handler_Debug */
}
 8001398:	bf00      	nop
 800139a:	46bd      	mov	sp, r7
 800139c:	f85d 7b04 	ldr.w	r7, [sp], #4
 80013a0:	4770      	bx	lr

080013a2 <assert_failed>:
  * @param  file: pointer to the source file name
  * @param  line: assert_param error line source number
  * @retval None
  */
void assert_failed(uint8_t *file, uint32_t line)
{
 80013a2:	b480      	push	{r7}
 80013a4:	b083      	sub	sp, #12
 80013a6:	af00      	add	r7, sp, #0
 80013a8:	6078      	str	r0, [r7, #4]
 80013aa:	6039      	str	r1, [r7, #0]
  /* USER CODE BEGIN 6 */
  /* User can add his own implementation to report the file name and line number,
     tex: printf("Wrong parameters value: file %s on line %d\r\n", file, line) */
  /* USER CODE END 6 */
}
 80013ac:	bf00      	nop
 80013ae:	370c      	adds	r7, #12
 80013b0:	46bd      	mov	sp, r7
 80013b2:	f85d 7b04 	ldr.w	r7, [sp], #4
 80013b6:	4770      	bx	lr

080013b8 <HAL_MspInit>:
/* USER CODE END 0 */
/**
  * Initializes the Global MSP.
  */
void HAL_MspInit(void)
{
 80013b8:	b480      	push	{r7}
 80013ba:	b083      	sub	sp, #12
 80013bc:	af00      	add	r7, sp, #0
  /* USER CODE BEGIN MspInit 0 */

  /* USER CODE END MspInit 0 */

  __HAL_RCC_SYSCFG_CLK_ENABLE();
 80013be:	2300      	movs	r3, #0
 80013c0:	607b      	str	r3, [r7, #4]
 80013c2:	4b10      	ldr	r3, [pc, #64]	; (8001404 <HAL_MspInit+0x4c>)
 80013c4:	6c5b      	ldr	r3, [r3, #68]	; 0x44
 80013c6:	4a0f      	ldr	r2, [pc, #60]	; (8001404 <HAL_MspInit+0x4c>)
 80013c8:	f443 4380 	orr.w	r3, r3, #16384	; 0x4000
 80013cc:	6453      	str	r3, [r2, #68]	; 0x44
 80013ce:	4b0d      	ldr	r3, [pc, #52]	; (8001404 <HAL_MspInit+0x4c>)
 80013d0:	6c5b      	ldr	r3, [r3, #68]	; 0x44
 80013d2:	f403 4380 	and.w	r3, r3, #16384	; 0x4000
 80013d6:	607b      	str	r3, [r7, #4]
 80013d8:	687b      	ldr	r3, [r7, #4]
  __HAL_RCC_PWR_CLK_ENABLE();
 80013da:	2300      	movs	r3, #0
 80013dc:	603b      	str	r3, [r7, #0]
 80013de:	4b09      	ldr	r3, [pc, #36]	; (8001404 <HAL_MspInit+0x4c>)
 80013e0:	6c1b      	ldr	r3, [r3, #64]	; 0x40
 80013e2:	4a08      	ldr	r2, [pc, #32]	; (8001404 <HAL_MspInit+0x4c>)
 80013e4:	f043 5380 	orr.w	r3, r3, #268435456	; 0x10000000
 80013e8:	6413      	str	r3, [r2, #64]	; 0x40
 80013ea:	4b06      	ldr	r3, [pc, #24]	; (8001404 <HAL_MspInit+0x4c>)
 80013ec:	6c1b      	ldr	r3, [r3, #64]	; 0x40
 80013ee:	f003 5380 	and.w	r3, r3, #268435456	; 0x10000000
 80013f2:	603b      	str	r3, [r7, #0]
 80013f4:	683b      	ldr	r3, [r7, #0]
  /* System interrupt init*/

  /* USER CODE BEGIN MspInit 1 */

  /* USER CODE END MspInit 1 */
}
 80013f6:	bf00      	nop
 80013f8:	370c      	adds	r7, #12
 80013fa:	46bd      	mov	sp, r7
 80013fc:	f85d 7b04 	ldr.w	r7, [sp], #4
 8001400:	4770      	bx	lr
 8001402:	bf00      	nop
 8001404:	40023800 	.word	0x40023800

08001408 <HAL_InitTick>:
  *         reset by HAL_Init() or at any time when clock is configured, by HAL_RCC_ClockConfig().
  * @param  TickPriority: Tick interrupt priority.
  * @retval HAL status
  */
HAL_StatusTypeDef HAL_InitTick(uint32_t TickPriority)
{
 8001408:	b580      	push	{r7, lr}
 800140a:	b08c      	sub	sp, #48	; 0x30
 800140c:	af00      	add	r7, sp, #0
 800140e:	6078      	str	r0, [r7, #4]
  RCC_ClkInitTypeDef    clkconfig;
  uint32_t              uwTimclock = 0;
 8001410:	2300      	movs	r3, #0
 8001412:	62fb      	str	r3, [r7, #44]	; 0x2c
  uint32_t              uwPrescalerValue = 0;
 8001414:	2300      	movs	r3, #0
 8001416:	62bb      	str	r3, [r7, #40]	; 0x28
  uint32_t              pFLatency;
  /*Configure the TIM1 IRQ priority */
  HAL_NVIC_SetPriority(TIM1_UP_TIM10_IRQn, TickPriority ,0);
 8001418:	2200      	movs	r2, #0
 800141a:	6879      	ldr	r1, [r7, #4]
 800141c:	2019      	movs	r0, #25
 800141e:	f000 fa95 	bl	800194c <HAL_NVIC_SetPriority>

  /* Enable the TIM1 global Interrupt */
  HAL_NVIC_EnableIRQ(TIM1_UP_TIM10_IRQn);
 8001422:	2019      	movs	r0, #25
 8001424:	f000 fabe 	bl	80019a4 <HAL_NVIC_EnableIRQ>
  /* Enable TIM1 clock */
  __HAL_RCC_TIM1_CLK_ENABLE();
 8001428:	2300      	movs	r3, #0
 800142a:	60fb      	str	r3, [r7, #12]
 800142c:	4b1f      	ldr	r3, [pc, #124]	; (80014ac <HAL_InitTick+0xa4>)
 800142e:	6c5b      	ldr	r3, [r3, #68]	; 0x44
 8001430:	4a1e      	ldr	r2, [pc, #120]	; (80014ac <HAL_InitTick+0xa4>)
 8001432:	f043 0301 	orr.w	r3, r3, #1
 8001436:	6453      	str	r3, [r2, #68]	; 0x44
 8001438:	4b1c      	ldr	r3, [pc, #112]	; (80014ac <HAL_InitTick+0xa4>)
 800143a:	6c5b      	ldr	r3, [r3, #68]	; 0x44
 800143c:	f003 0301 	and.w	r3, r3, #1
 8001440:	60fb      	str	r3, [r7, #12]
 8001442:	68fb      	ldr	r3, [r7, #12]

  /* Get clock configuration */
  HAL_RCC_GetClockConfig(&clkconfig, &pFLatency);
 8001444:	f107 0210 	add.w	r2, r7, #16
 8001448:	f107 0314 	add.w	r3, r7, #20
 800144c:	4611      	mov	r1, r2
 800144e:	4618      	mov	r0, r3
 8001450:	f002 fd56 	bl	8003f00 <HAL_RCC_GetClockConfig>

  /* Compute TIM1 clock */
  uwTimclock = 2*HAL_RCC_GetPCLK2Freq();
 8001454:	f002 fd40 	bl	8003ed8 <HAL_RCC_GetPCLK2Freq>
 8001458:	4603      	mov	r3, r0
 800145a:	005b      	lsls	r3, r3, #1
 800145c:	62fb      	str	r3, [r7, #44]	; 0x2c

  /* Compute the prescaler value to have TIM1 counter clock equal to 1MHz */
  uwPrescalerValue = (uint32_t) ((uwTimclock / 1000000) - 1);
 800145e:	6afb      	ldr	r3, [r7, #44]	; 0x2c
 8001460:	4a13      	ldr	r2, [pc, #76]	; (80014b0 <HAL_InitTick+0xa8>)
 8001462:	fba2 2303 	umull	r2, r3, r2, r3
 8001466:	0c9b      	lsrs	r3, r3, #18
 8001468:	3b01      	subs	r3, #1
 800146a:	62bb      	str	r3, [r7, #40]	; 0x28

  /* Initialize TIM1 */
  htim1.Instance = TIM1;
 800146c:	4b11      	ldr	r3, [pc, #68]	; (80014b4 <HAL_InitTick+0xac>)
 800146e:	4a12      	ldr	r2, [pc, #72]	; (80014b8 <HAL_InitTick+0xb0>)
 8001470:	601a      	str	r2, [r3, #0]
  + Period = [(TIM1CLK/1000) - 1]. to have a (1/1000) s time base.
  + Prescaler = (uwTimclock/1000000 - 1) to have a 1MHz counter clock.
  + ClockDivision = 0
  + Counter direction = Up
  */
  htim1.Init.Period = (1000000 / 1000) - 1;
 8001472:	4b10      	ldr	r3, [pc, #64]	; (80014b4 <HAL_InitTick+0xac>)
 8001474:	f240 32e7 	movw	r2, #999	; 0x3e7
 8001478:	60da      	str	r2, [r3, #12]
  htim1.Init.Prescaler = uwPrescalerValue;
 800147a:	4a0e      	ldr	r2, [pc, #56]	; (80014b4 <HAL_InitTick+0xac>)
 800147c:	6abb      	ldr	r3, [r7, #40]	; 0x28
 800147e:	6053      	str	r3, [r2, #4]
  htim1.Init.ClockDivision = 0;
 8001480:	4b0c      	ldr	r3, [pc, #48]	; (80014b4 <HAL_InitTick+0xac>)
 8001482:	2200      	movs	r2, #0
 8001484:	611a      	str	r2, [r3, #16]
  htim1.Init.CounterMode = TIM_COUNTERMODE_UP;
 8001486:	4b0b      	ldr	r3, [pc, #44]	; (80014b4 <HAL_InitTick+0xac>)
 8001488:	2200      	movs	r2, #0
 800148a:	609a      	str	r2, [r3, #8]
  if(HAL_TIM_Base_Init(&htim1) == HAL_OK)
 800148c:	4809      	ldr	r0, [pc, #36]	; (80014b4 <HAL_InitTick+0xac>)
 800148e:	f002 fd69 	bl	8003f64 <HAL_TIM_Base_Init>
 8001492:	4603      	mov	r3, r0
 8001494:	2b00      	cmp	r3, #0
 8001496:	d104      	bne.n	80014a2 <HAL_InitTick+0x9a>
  {
    /* Start the TIM time Base generation in interrupt mode */
    return HAL_TIM_Base_Start_IT(&htim1);
 8001498:	4806      	ldr	r0, [pc, #24]	; (80014b4 <HAL_InitTick+0xac>)
 800149a:	f002 fe39 	bl	8004110 <HAL_TIM_Base_Start_IT>
 800149e:	4603      	mov	r3, r0
 80014a0:	e000      	b.n	80014a4 <HAL_InitTick+0x9c>
  }

  /* Return function status */
  return HAL_ERROR;
 80014a2:	2301      	movs	r3, #1
}
 80014a4:	4618      	mov	r0, r3
 80014a6:	3730      	adds	r7, #48	; 0x30
 80014a8:	46bd      	mov	sp, r7
 80014aa:	bd80      	pop	{r7, pc}
 80014ac:	40023800 	.word	0x40023800
 80014b0:	431bde83 	.word	0x431bde83
 80014b4:	20004d50 	.word	0x20004d50
 80014b8:	40010000 	.word	0x40010000

080014bc <NMI_Handler>:
/******************************************************************************/
/**
  * @brief This function handles Non maskable interrupt.
  */
void NMI_Handler(void)
{
 80014bc:	b480      	push	{r7}
 80014be:	af00      	add	r7, sp, #0

  /* USER CODE END NonMaskableInt_IRQn 0 */
  /* USER CODE BEGIN NonMaskableInt_IRQn 1 */

  /* USER CODE END NonMaskableInt_IRQn 1 */
}
 80014c0:	bf00      	nop
 80014c2:	46bd      	mov	sp, r7
 80014c4:	f85d 7b04 	ldr.w	r7, [sp], #4
 80014c8:	4770      	bx	lr

080014ca <HardFault_Handler>:

/**
  * @brief This function handles Hard fault interrupt.
  */
void HardFault_Handler(void)
{
 80014ca:	b480      	push	{r7}
 80014cc:	af00      	add	r7, sp, #0
  /* USER CODE BEGIN HardFault_IRQn 0 */

  /* USER CODE END HardFault_IRQn 0 */
  while (1)
 80014ce:	e7fe      	b.n	80014ce <HardFault_Handler+0x4>

080014d0 <MemManage_Handler>:

/**
  * @brief This function handles Memory management fault.
  */
void MemManage_Handler(void)
{
 80014d0:	b480      	push	{r7}
 80014d2:	af00      	add	r7, sp, #0
  /* USER CODE BEGIN MemoryManagement_IRQn 0 */

  /* USER CODE END MemoryManagement_IRQn 0 */
  while (1)
 80014d4:	e7fe      	b.n	80014d4 <MemManage_Handler+0x4>

080014d6 <BusFault_Handler>:

/**
  * @brief This function handles Pre-fetch fault, memory access fault.
  */
void BusFault_Handler(void)
{
 80014d6:	b480      	push	{r7}
 80014d8:	af00      	add	r7, sp, #0
  /* USER CODE BEGIN BusFault_IRQn 0 */

  /* USER CODE END BusFault_IRQn 0 */
  while (1)
 80014da:	e7fe      	b.n	80014da <BusFault_Handler+0x4>

080014dc <UsageFault_Handler>:

/**
  * @brief This function handles Undefined instruction or illegal state.
  */
void UsageFault_Handler(void)
{
 80014dc:	b480      	push	{r7}
 80014de:	af00      	add	r7, sp, #0
  /* USER CODE BEGIN UsageFault_IRQn 0 */

  /* USER CODE END UsageFault_IRQn 0 */
  while (1)
 80014e0:	e7fe      	b.n	80014e0 <UsageFault_Handler+0x4>

080014e2 <DebugMon_Handler>:

/**
  * @brief This function handles Debug monitor.
  */
void DebugMon_Handler(void)
{
 80014e2:	b480      	push	{r7}
 80014e4:	af00      	add	r7, sp, #0

  /* USER CODE END DebugMonitor_IRQn 0 */
  /* USER CODE BEGIN DebugMonitor_IRQn 1 */

  /* USER CODE END DebugMonitor_IRQn 1 */
}
 80014e6:	bf00      	nop
 80014e8:	46bd      	mov	sp, r7
 80014ea:	f85d 7b04 	ldr.w	r7, [sp], #4
 80014ee:	4770      	bx	lr

080014f0 <TIM1_UP_TIM10_IRQHandler>:

/**
  * @brief This function handles TIM1 update interrupt and TIM10 global interrupt.
  */
void TIM1_UP_TIM10_IRQHandler(void)
{
 80014f0:	b580      	push	{r7, lr}
 80014f2:	af00      	add	r7, sp, #0
  /* USER CODE BEGIN TIM1_UP_TIM10_IRQn 0 */

  /* USER CODE END TIM1_UP_TIM10_IRQn 0 */
  HAL_TIM_IRQHandler(&htim1);
 80014f4:	4802      	ldr	r0, [pc, #8]	; (8001500 <TIM1_UP_TIM10_IRQHandler+0x10>)
 80014f6:	f002 fe95 	bl	8004224 <HAL_TIM_IRQHandler>
  /* USER CODE BEGIN TIM1_UP_TIM10_IRQn 1 */

  /* USER CODE END TIM1_UP_TIM10_IRQn 1 */
}
 80014fa:	bf00      	nop
 80014fc:	bd80      	pop	{r7, pc}
 80014fe:	bf00      	nop
 8001500:	20004d50 	.word	0x20004d50

08001504 <OTG_FS_IRQHandler>:

/**
  * @brief This function handles USB On The Go FS global interrupt.
  */
void OTG_FS_IRQHandler(void)
{
 8001504:	b580      	push	{r7, lr}
 8001506:	af00      	add	r7, sp, #0
  /* USER CODE BEGIN OTG_FS_IRQn 0 */

  /* USER CODE END OTG_FS_IRQn 0 */
  HAL_PCD_IRQHandler(&hpcd_USB_OTG_FS);
 8001508:	4802      	ldr	r0, [pc, #8]	; (8001514 <OTG_FS_IRQHandler+0x10>)
 800150a:	f000 ff0c 	bl	8002326 <HAL_PCD_IRQHandler>
  /* USER CODE BEGIN OTG_FS_IRQn 1 */

  /* USER CODE END OTG_FS_IRQn 1 */
}
 800150e:	bf00      	nop
 8001510:	bd80      	pop	{r7, pc}
 8001512:	bf00      	nop
 8001514:	200062e4 	.word	0x200062e4

08001518 <_sbrk>:
 *
 * @param incr Memory size
 * @return Pointer to allocated memory
 */
void *_sbrk(ptrdiff_t incr)
{
 8001518:	b580      	push	{r7, lr}
 800151a:	b086      	sub	sp, #24
 800151c:	af00      	add	r7, sp, #0
 800151e:	6078      	str	r0, [r7, #4]
  extern uint8_t _end; /* Symbol defined in the linker script */
  extern uint8_t _estack; /* Symbol defined in the linker script */
  extern uint32_t _Min_Stack_Size; /* Symbol defined in the linker script */
  const uint32_t stack_limit = (uint32_t)&_estack - (uint32_t)&_Min_Stack_Size;
 8001520:	4a14      	ldr	r2, [pc, #80]	; (8001574 <_sbrk+0x5c>)
 8001522:	4b15      	ldr	r3, [pc, #84]	; (8001578 <_sbrk+0x60>)
 8001524:	1ad3      	subs	r3, r2, r3
 8001526:	617b      	str	r3, [r7, #20]
  const uint8_t *max_heap = (uint8_t *)stack_limit;
 8001528:	697b      	ldr	r3, [r7, #20]
 800152a:	613b      	str	r3, [r7, #16]
  uint8_t *prev_heap_end;

  /* Initalize heap end at first call */
  if (NULL == __sbrk_heap_end)
 800152c:	4b13      	ldr	r3, [pc, #76]	; (800157c <_sbrk+0x64>)
 800152e:	681b      	ldr	r3, [r3, #0]
 8001530:	2b00      	cmp	r3, #0
 8001532:	d102      	bne.n	800153a <_sbrk+0x22>
  {
    __sbrk_heap_end = &_end;
 8001534:	4b11      	ldr	r3, [pc, #68]	; (800157c <_sbrk+0x64>)
 8001536:	4a12      	ldr	r2, [pc, #72]	; (8001580 <_sbrk+0x68>)
 8001538:	601a      	str	r2, [r3, #0]
  }

  /* Protect heap from growing into the reserved MSP stack */
  if (__sbrk_heap_end + incr > max_heap)
 800153a:	4b10      	ldr	r3, [pc, #64]	; (800157c <_sbrk+0x64>)
 800153c:	681a      	ldr	r2, [r3, #0]
 800153e:	687b      	ldr	r3, [r7, #4]
 8001540:	4413      	add	r3, r2
 8001542:	693a      	ldr	r2, [r7, #16]
 8001544:	429a      	cmp	r2, r3
 8001546:	d207      	bcs.n	8001558 <_sbrk+0x40>
  {
    errno = ENOMEM;
 8001548:	f00b ffd6 	bl	800d4f8 <__errno>
 800154c:	4602      	mov	r2, r0
 800154e:	230c      	movs	r3, #12
 8001550:	6013      	str	r3, [r2, #0]
    return (void *)-1;
 8001552:	f04f 33ff 	mov.w	r3, #4294967295	; 0xffffffff
 8001556:	e009      	b.n	800156c <_sbrk+0x54>
  }

  prev_heap_end = __sbrk_heap_end;
 8001558:	4b08      	ldr	r3, [pc, #32]	; (800157c <_sbrk+0x64>)
 800155a:	681b      	ldr	r3, [r3, #0]
 800155c:	60fb      	str	r3, [r7, #12]
  __sbrk_heap_end += incr;
 800155e:	4b07      	ldr	r3, [pc, #28]	; (800157c <_sbrk+0x64>)
 8001560:	681a      	ldr	r2, [r3, #0]
 8001562:	687b      	ldr	r3, [r7, #4]
 8001564:	4413      	add	r3, r2
 8001566:	4a05      	ldr	r2, [pc, #20]	; (800157c <_sbrk+0x64>)
 8001568:	6013      	str	r3, [r2, #0]

  return (void *)prev_heap_end;
 800156a:	68fb      	ldr	r3, [r7, #12]
}
 800156c:	4618      	mov	r0, r3
 800156e:	3718      	adds	r7, #24
 8001570:	46bd      	mov	sp, r7
 8001572:	bd80      	pop	{r7, pc}
 8001574:	20020000 	.word	0x20020000
 8001578:	00000400 	.word	0x00000400
 800157c:	20000404 	.word	0x20000404
 8001580:	20006700 	.word	0x20006700

08001584 <SystemInit>:
  *         configuration.
  * @param  None
  * @retval None
  */
void SystemInit(void)
{
 8001584:	b480      	push	{r7}
 8001586:	af00      	add	r7, sp, #0
  /* FPU settings ------------------------------------------------------------*/
  #if (__FPU_PRESENT == 1) && (__FPU_USED == 1)
    SCB->CPACR |= ((3UL << 10*2)|(3UL << 11*2));  /* set CP10 and CP11 Full Access */
 8001588:	4b08      	ldr	r3, [pc, #32]	; (80015ac <SystemInit+0x28>)
 800158a:	f8d3 3088 	ldr.w	r3, [r3, #136]	; 0x88
 800158e:	4a07      	ldr	r2, [pc, #28]	; (80015ac <SystemInit+0x28>)
 8001590:	f443 0370 	orr.w	r3, r3, #15728640	; 0xf00000
 8001594:	f8c2 3088 	str.w	r3, [r2, #136]	; 0x88

  /* Configure the Vector Table location add offset address ------------------*/
#ifdef VECT_TAB_SRAM
  SCB->VTOR = SRAM_BASE | VECT_TAB_OFFSET; /* Vector Table Relocation in Internal SRAM */
#else
  SCB->VTOR = FLASH_BASE | VECT_TAB_OFFSET; /* Vector Table Relocation in Internal FLASH */
 8001598:	4b04      	ldr	r3, [pc, #16]	; (80015ac <SystemInit+0x28>)
 800159a:	f04f 6200 	mov.w	r2, #134217728	; 0x8000000
 800159e:	609a      	str	r2, [r3, #8]
#endif
}
 80015a0:	bf00      	nop
 80015a2:	46bd      	mov	sp, r7
 80015a4:	f85d 7b04 	ldr.w	r7, [sp], #4
 80015a8:	4770      	bx	lr
 80015aa:	bf00      	nop
 80015ac:	e000ed00 	.word	0xe000ed00

080015b0 <MX_USART2_UART_Init>:
UART_HandleTypeDef huart2;

/* USART2 init function */

void MX_USART2_UART_Init(void)
{
 80015b0:	b580      	push	{r7, lr}
 80015b2:	af00      	add	r7, sp, #0

  huart2.Instance = USART2;
 80015b4:	4b11      	ldr	r3, [pc, #68]	; (80015fc <MX_USART2_UART_Init+0x4c>)
 80015b6:	4a12      	ldr	r2, [pc, #72]	; (8001600 <MX_USART2_UART_Init+0x50>)
 80015b8:	601a      	str	r2, [r3, #0]
  huart2.Init.BaudRate = 115200;
 80015ba:	4b10      	ldr	r3, [pc, #64]	; (80015fc <MX_USART2_UART_Init+0x4c>)
 80015bc:	f44f 32e1 	mov.w	r2, #115200	; 0x1c200
 80015c0:	605a      	str	r2, [r3, #4]
  huart2.Init.WordLength = UART_WORDLENGTH_8B;
 80015c2:	4b0e      	ldr	r3, [pc, #56]	; (80015fc <MX_USART2_UART_Init+0x4c>)
 80015c4:	2200      	movs	r2, #0
 80015c6:	609a      	str	r2, [r3, #8]
  huart2.Init.StopBits = UART_STOPBITS_1;
 80015c8:	4b0c      	ldr	r3, [pc, #48]	; (80015fc <MX_USART2_UART_Init+0x4c>)
 80015ca:	2200      	movs	r2, #0
 80015cc:	60da      	str	r2, [r3, #12]
  huart2.Init.Parity = UART_PARITY_NONE;
 80015ce:	4b0b      	ldr	r3, [pc, #44]	; (80015fc <MX_USART2_UART_Init+0x4c>)
 80015d0:	2200      	movs	r2, #0
 80015d2:	611a      	str	r2, [r3, #16]
  huart2.Init.Mode = UART_MODE_TX_RX;
 80015d4:	4b09      	ldr	r3, [pc, #36]	; (80015fc <MX_USART2_UART_Init+0x4c>)
 80015d6:	220c      	movs	r2, #12
 80015d8:	615a      	str	r2, [r3, #20]
  huart2.Init.HwFlowCtl = UART_HWCONTROL_NONE;
 80015da:	4b08      	ldr	r3, [pc, #32]	; (80015fc <MX_USART2_UART_Init+0x4c>)
 80015dc:	2200      	movs	r2, #0
 80015de:	619a      	str	r2, [r3, #24]
  huart2.Init.OverSampling = UART_OVERSAMPLING_16;
 80015e0:	4b06      	ldr	r3, [pc, #24]	; (80015fc <MX_USART2_UART_Init+0x4c>)
 80015e2:	2200      	movs	r2, #0
 80015e4:	61da      	str	r2, [r3, #28]
  if (HAL_UART_Init(&huart2) != HAL_OK)
 80015e6:	4805      	ldr	r0, [pc, #20]	; (80015fc <MX_USART2_UART_Init+0x4c>)
 80015e8:	f003 f800 	bl	80045ec <HAL_UART_Init>
 80015ec:	4603      	mov	r3, r0
 80015ee:	2b00      	cmp	r3, #0
 80015f0:	d001      	beq.n	80015f6 <MX_USART2_UART_Init+0x46>
  {
    Error_Handler();
 80015f2:	f7ff fecf 	bl	8001394 <Error_Handler>
  }

}
 80015f6:	bf00      	nop
 80015f8:	bd80      	pop	{r7, pc}
 80015fa:	bf00      	nop
 80015fc:	20004d90 	.word	0x20004d90
 8001600:	40004400 	.word	0x40004400

08001604 <HAL_UART_MspInit>:

void HAL_UART_MspInit(UART_HandleTypeDef* uartHandle)
{
 8001604:	b580      	push	{r7, lr}
 8001606:	b08a      	sub	sp, #40	; 0x28
 8001608:	af00      	add	r7, sp, #0
 800160a:	6078      	str	r0, [r7, #4]

  GPIO_InitTypeDef GPIO_InitStruct = {0};
 800160c:	f107 0314 	add.w	r3, r7, #20
 8001610:	2200      	movs	r2, #0
 8001612:	601a      	str	r2, [r3, #0]
 8001614:	605a      	str	r2, [r3, #4]
 8001616:	609a      	str	r2, [r3, #8]
 8001618:	60da      	str	r2, [r3, #12]
 800161a:	611a      	str	r2, [r3, #16]
  if(uartHandle->Instance==USART2)
 800161c:	687b      	ldr	r3, [r7, #4]
 800161e:	681b      	ldr	r3, [r3, #0]
 8001620:	4a19      	ldr	r2, [pc, #100]	; (8001688 <HAL_UART_MspInit+0x84>)
 8001622:	4293      	cmp	r3, r2
 8001624:	d12b      	bne.n	800167e <HAL_UART_MspInit+0x7a>
  {
  /* USER CODE BEGIN USART2_MspInit 0 */

  /* USER CODE END USART2_MspInit 0 */
    /* USART2 clock enable */
    __HAL_RCC_USART2_CLK_ENABLE();
 8001626:	2300      	movs	r3, #0
 8001628:	613b      	str	r3, [r7, #16]
 800162a:	4b18      	ldr	r3, [pc, #96]	; (800168c <HAL_UART_MspInit+0x88>)
 800162c:	6c1b      	ldr	r3, [r3, #64]	; 0x40
 800162e:	4a17      	ldr	r2, [pc, #92]	; (800168c <HAL_UART_MspInit+0x88>)
 8001630:	f443 3300 	orr.w	r3, r3, #131072	; 0x20000
 8001634:	6413      	str	r3, [r2, #64]	; 0x40
 8001636:	4b15      	ldr	r3, [pc, #84]	; (800168c <HAL_UART_MspInit+0x88>)
 8001638:	6c1b      	ldr	r3, [r3, #64]	; 0x40
 800163a:	f403 3300 	and.w	r3, r3, #131072	; 0x20000
 800163e:	613b      	str	r3, [r7, #16]
 8001640:	693b      	ldr	r3, [r7, #16]

    __HAL_RCC_GPIOA_CLK_ENABLE();
 8001642:	2300      	movs	r3, #0
 8001644:	60fb      	str	r3, [r7, #12]
 8001646:	4b11      	ldr	r3, [pc, #68]	; (800168c <HAL_UART_MspInit+0x88>)
 8001648:	6b1b      	ldr	r3, [r3, #48]	; 0x30
 800164a:	4a10      	ldr	r2, [pc, #64]	; (800168c <HAL_UART_MspInit+0x88>)
 800164c:	f043 0301 	orr.w	r3, r3, #1
 8001650:	6313      	str	r3, [r2, #48]	; 0x30
 8001652:	4b0e      	ldr	r3, [pc, #56]	; (800168c <HAL_UART_MspInit+0x88>)
 8001654:	6b1b      	ldr	r3, [r3, #48]	; 0x30
 8001656:	f003 0301 	and.w	r3, r3, #1
 800165a:	60fb      	str	r3, [r7, #12]
 800165c:	68fb      	ldr	r3, [r7, #12]
    /**USART2 GPIO Configuration
    PA2     ------> USART2_TX
    PA3     ------> USART2_RX
    */
    GPIO_InitStruct.Pin = GPIO_PIN_2|GPIO_PIN_3;
 800165e:	230c      	movs	r3, #12
 8001660:	617b      	str	r3, [r7, #20]
    GPIO_InitStruct.Mode = GPIO_MODE_AF_PP;
 8001662:	2302      	movs	r3, #2
 8001664:	61bb      	str	r3, [r7, #24]
    GPIO_InitStruct.Pull = GPIO_NOPULL;
 8001666:	2300      	movs	r3, #0
 8001668:	61fb      	str	r3, [r7, #28]
    GPIO_InitStruct.Speed = GPIO_SPEED_FREQ_VERY_HIGH;
 800166a:	2303      	movs	r3, #3
 800166c:	623b      	str	r3, [r7, #32]
    GPIO_InitStruct.Alternate = GPIO_AF7_USART2;
 800166e:	2307      	movs	r3, #7
 8001670:	627b      	str	r3, [r7, #36]	; 0x24
    HAL_GPIO_Init(GPIOA, &GPIO_InitStruct);
 8001672:	f107 0314 	add.w	r3, r7, #20
 8001676:	4619      	mov	r1, r3
 8001678:	4805      	ldr	r0, [pc, #20]	; (8001690 <HAL_UART_MspInit+0x8c>)
 800167a:	f000 f9ab 	bl	80019d4 <HAL_GPIO_Init>

  /* USER CODE BEGIN USART2_MspInit 1 */

  /* USER CODE END USART2_MspInit 1 */
  }
}
 800167e:	bf00      	nop
 8001680:	3728      	adds	r7, #40	; 0x28
 8001682:	46bd      	mov	sp, r7
 8001684:	bd80      	pop	{r7, pc}
 8001686:	bf00      	nop
 8001688:	40004400 	.word	0x40004400
 800168c:	40023800 	.word	0x40023800
 8001690:	40020000 	.word	0x40020000

08001694 <Reset_Handler>:

    .section  .text.Reset_Handler
  .weak  Reset_Handler
  .type  Reset_Handler, %function
Reset_Handler:  
  ldr   sp, =_estack     /* set stack pointer */
 8001694:	f8df d034 	ldr.w	sp, [pc, #52]	; 80016cc <LoopFillZerobss+0x14>

/* Copy the data segment initializers from flash to SRAM */  
  movs  r1, #0
 8001698:	2100      	movs	r1, #0
  b  LoopCopyDataInit
 800169a:	e003      	b.n	80016a4 <LoopCopyDataInit>

0800169c <CopyDataInit>:

CopyDataInit:
  ldr  r3, =_sidata
 800169c:	4b0c      	ldr	r3, [pc, #48]	; (80016d0 <LoopFillZerobss+0x18>)
  ldr  r3, [r3, r1]
 800169e:	585b      	ldr	r3, [r3, r1]
  str  r3, [r0, r1]
 80016a0:	5043      	str	r3, [r0, r1]
  adds  r1, r1, #4
 80016a2:	3104      	adds	r1, #4

080016a4 <LoopCopyDataInit>:
    
LoopCopyDataInit:
  ldr  r0, =_sdata
 80016a4:	480b      	ldr	r0, [pc, #44]	; (80016d4 <LoopFillZerobss+0x1c>)
  ldr  r3, =_edata
 80016a6:	4b0c      	ldr	r3, [pc, #48]	; (80016d8 <LoopFillZerobss+0x20>)
  adds  r2, r0, r1
 80016a8:	1842      	adds	r2, r0, r1
  cmp  r2, r3
 80016aa:	429a      	cmp	r2, r3
  bcc  CopyDataInit
 80016ac:	d3f6      	bcc.n	800169c <CopyDataInit>
  ldr  r2, =_sbss
 80016ae:	4a0b      	ldr	r2, [pc, #44]	; (80016dc <LoopFillZerobss+0x24>)
  b  LoopFillZerobss
 80016b0:	e002      	b.n	80016b8 <LoopFillZerobss>

080016b2 <FillZerobss>:
/* Zero fill the bss segment. */  
FillZerobss:
  movs  r3, #0
 80016b2:	2300      	movs	r3, #0
  str  r3, [r2], #4
 80016b4:	f842 3b04 	str.w	r3, [r2], #4

080016b8 <LoopFillZerobss>:
    
LoopFillZerobss:
  ldr  r3, = _ebss
 80016b8:	4b09      	ldr	r3, [pc, #36]	; (80016e0 <LoopFillZerobss+0x28>)
  cmp  r2, r3
 80016ba:	429a      	cmp	r2, r3
  bcc  FillZerobss
 80016bc:	d3f9      	bcc.n	80016b2 <FillZerobss>

/* Call the clock system intitialization function.*/
  bl  SystemInit   
 80016be:	f7ff ff61 	bl	8001584 <SystemInit>
/* Call static constructors */
    bl __libc_init_array
 80016c2:	f00b ff1f 	bl	800d504 <__libc_init_array>
/* Call the application's entry point.*/
  bl  main
 80016c6:	f7ff fdd7 	bl	8001278 <main>
  bx  lr    
 80016ca:	4770      	bx	lr
  ldr   sp, =_estack     /* set stack pointer */
 80016cc:	20020000 	.word	0x20020000
  ldr  r3, =_sidata
 80016d0:	0800dfcc 	.word	0x0800dfcc
  ldr  r0, =_sdata
 80016d4:	20000000 	.word	0x20000000
  ldr  r3, =_edata
 80016d8:	200003e4 	.word	0x200003e4
  ldr  r2, =_sbss
 80016dc:	200003e4 	.word	0x200003e4
  ldr  r3, = _ebss
 80016e0:	20006700 	.word	0x20006700

080016e4 <ADC_IRQHandler>:
 * @retval None       
*/
    .section  .text.Default_Handler,"ax",%progbits
Default_Handler:
Infinite_Loop:
  b  Infinite_Loop
 80016e4:	e7fe      	b.n	80016e4 <ADC_IRQHandler>
	...

080016e8 <HAL_Init>:
  *         need to ensure that the SysTick time base is always set to 1 millisecond
  *         to have correct HAL operation.
  * @retval HAL status
  */
HAL_StatusTypeDef HAL_Init(void)
{
 80016e8:	b580      	push	{r7, lr}
 80016ea:	af00      	add	r7, sp, #0
  /* Configure Flash prefetch, Instruction cache, Data cache */ 
#if (INSTRUCTION_CACHE_ENABLE != 0U)
  __HAL_FLASH_INSTRUCTION_CACHE_ENABLE();
 80016ec:	4b0e      	ldr	r3, [pc, #56]	; (8001728 <HAL_Init+0x40>)
 80016ee:	681b      	ldr	r3, [r3, #0]
 80016f0:	4a0d      	ldr	r2, [pc, #52]	; (8001728 <HAL_Init+0x40>)
 80016f2:	f443 7300 	orr.w	r3, r3, #512	; 0x200
 80016f6:	6013      	str	r3, [r2, #0]
#endif /* INSTRUCTION_CACHE_ENABLE */

#if (DATA_CACHE_ENABLE != 0U)
  __HAL_FLASH_DATA_CACHE_ENABLE();
 80016f8:	4b0b      	ldr	r3, [pc, #44]	; (8001728 <HAL_Init+0x40>)
 80016fa:	681b      	ldr	r3, [r3, #0]
 80016fc:	4a0a      	ldr	r2, [pc, #40]	; (8001728 <HAL_Init+0x40>)
 80016fe:	f443 6380 	orr.w	r3, r3, #1024	; 0x400
 8001702:	6013      	str	r3, [r2, #0]
#endif /* DATA_CACHE_ENABLE */

#if (PREFETCH_ENABLE != 0U)
  __HAL_FLASH_PREFETCH_BUFFER_ENABLE();
 8001704:	4b08      	ldr	r3, [pc, #32]	; (8001728 <HAL_Init+0x40>)
 8001706:	681b      	ldr	r3, [r3, #0]
 8001708:	4a07      	ldr	r2, [pc, #28]	; (8001728 <HAL_Init+0x40>)
 800170a:	f443 7380 	orr.w	r3, r3, #256	; 0x100
 800170e:	6013      	str	r3, [r2, #0]
#endif /* PREFETCH_ENABLE */

  /* Set Interrupt Group Priority */
  HAL_NVIC_SetPriorityGrouping(NVIC_PRIORITYGROUP_4);
 8001710:	2003      	movs	r0, #3
 8001712:	f000 f8fb 	bl	800190c <HAL_NVIC_SetPriorityGrouping>

  /* Use systick as time base source and configure 1ms tick (default clock after Reset is HSI) */
  HAL_InitTick(TICK_INT_PRIORITY);
 8001716:	2000      	movs	r0, #0
 8001718:	f7ff fe76 	bl	8001408 <HAL_InitTick>

  /* Init the low level hardware */
  HAL_MspInit();
 800171c:	f7ff fe4c 	bl	80013b8 <HAL_MspInit>

  /* Return function status */
  return HAL_OK;
 8001720:	2300      	movs	r3, #0
}
 8001722:	4618      	mov	r0, r3
 8001724:	bd80      	pop	{r7, pc}
 8001726:	bf00      	nop
 8001728:	40023c00 	.word	0x40023c00

0800172c <HAL_IncTick>:
 * @note This function is declared as __weak to be overwritten in case of other 
  *      implementations in user file.
  * @retval None
  */
__weak void HAL_IncTick(void)
{
 800172c:	b480      	push	{r7}
 800172e:	af00      	add	r7, sp, #0
  uwTick += uwTickFreq;
 8001730:	4b06      	ldr	r3, [pc, #24]	; (800174c <HAL_IncTick+0x20>)
 8001732:	781b      	ldrb	r3, [r3, #0]
 8001734:	461a      	mov	r2, r3
 8001736:	4b06      	ldr	r3, [pc, #24]	; (8001750 <HAL_IncTick+0x24>)
 8001738:	681b      	ldr	r3, [r3, #0]
 800173a:	4413      	add	r3, r2
 800173c:	4a04      	ldr	r2, [pc, #16]	; (8001750 <HAL_IncTick+0x24>)
 800173e:	6013      	str	r3, [r2, #0]
}
 8001740:	bf00      	nop
 8001742:	46bd      	mov	sp, r7
 8001744:	f85d 7b04 	ldr.w	r7, [sp], #4
 8001748:	4770      	bx	lr
 800174a:	bf00      	nop
 800174c:	20000038 	.word	0x20000038
 8001750:	20004dd0 	.word	0x20004dd0

08001754 <HAL_GetTick>:
  * @note This function is declared as __weak to be overwritten in case of other 
  *       implementations in user file.
  * @retval tick value
  */
__weak uint32_t HAL_GetTick(void)
{
 8001754:	b480      	push	{r7}
 8001756:	af00      	add	r7, sp, #0
  return uwTick;
 8001758:	4b03      	ldr	r3, [pc, #12]	; (8001768 <HAL_GetTick+0x14>)
 800175a:	681b      	ldr	r3, [r3, #0]
}
 800175c:	4618      	mov	r0, r3
 800175e:	46bd      	mov	sp, r7
 8001760:	f85d 7b04 	ldr.w	r7, [sp], #4
 8001764:	4770      	bx	lr
 8001766:	bf00      	nop
 8001768:	20004dd0 	.word	0x20004dd0

0800176c <HAL_Delay>:
  *       implementations in user file.
  * @param Delay specifies the delay time length, in milliseconds.
  * @retval None
  */
__weak void HAL_Delay(uint32_t Delay)
{
 800176c:	b580      	push	{r7, lr}
 800176e:	b084      	sub	sp, #16
 8001770:	af00      	add	r7, sp, #0
 8001772:	6078      	str	r0, [r7, #4]
  uint32_t tickstart = HAL_GetTick();
 8001774:	f7ff ffee 	bl	8001754 <HAL_GetTick>
 8001778:	60b8      	str	r0, [r7, #8]
  uint32_t wait = Delay;
 800177a:	687b      	ldr	r3, [r7, #4]
 800177c:	60fb      	str	r3, [r7, #12]

  /* Add a freq to guarantee minimum wait */
  if (wait < HAL_MAX_DELAY)
 800177e:	68fb      	ldr	r3, [r7, #12]
 8001780:	f1b3 3fff 	cmp.w	r3, #4294967295	; 0xffffffff
 8001784:	d005      	beq.n	8001792 <HAL_Delay+0x26>
  {
    wait += (uint32_t)(uwTickFreq);
 8001786:	4b09      	ldr	r3, [pc, #36]	; (80017ac <HAL_Delay+0x40>)
 8001788:	781b      	ldrb	r3, [r3, #0]
 800178a:	461a      	mov	r2, r3
 800178c:	68fb      	ldr	r3, [r7, #12]
 800178e:	4413      	add	r3, r2
 8001790:	60fb      	str	r3, [r7, #12]
  }

  while((HAL_GetTick() - tickstart) < wait)
 8001792:	bf00      	nop
 8001794:	f7ff ffde 	bl	8001754 <HAL_GetTick>
 8001798:	4602      	mov	r2, r0
 800179a:	68bb      	ldr	r3, [r7, #8]
 800179c:	1ad3      	subs	r3, r2, r3
 800179e:	68fa      	ldr	r2, [r7, #12]
 80017a0:	429a      	cmp	r2, r3
 80017a2:	d8f7      	bhi.n	8001794 <HAL_Delay+0x28>
  {
  }
}
 80017a4:	bf00      	nop
 80017a6:	3710      	adds	r7, #16
 80017a8:	46bd      	mov	sp, r7
 80017aa:	bd80      	pop	{r7, pc}
 80017ac:	20000038 	.word	0x20000038

080017b0 <__NVIC_SetPriorityGrouping>:
           In case of a conflict between priority grouping and available
           priority bits (__NVIC_PRIO_BITS), the smallest possible priority group is set.
  \param [in]      PriorityGroup  Priority grouping field.
 */
__STATIC_INLINE void __NVIC_SetPriorityGrouping(uint32_t PriorityGroup)
{
 80017b0:	b480      	push	{r7}
 80017b2:	b085      	sub	sp, #20
 80017b4:	af00      	add	r7, sp, #0
 80017b6:	6078      	str	r0, [r7, #4]
  uint32_t reg_value;
  uint32_t PriorityGroupTmp = (PriorityGroup & (uint32_t)0x07UL);             /* only values 0..7 are used          */
 80017b8:	687b      	ldr	r3, [r7, #4]
 80017ba:	f003 0307 	and.w	r3, r3, #7
 80017be:	60fb      	str	r3, [r7, #12]

  reg_value  =  SCB->AIRCR;                                                   /* read old register configuration    */
 80017c0:	4b0c      	ldr	r3, [pc, #48]	; (80017f4 <__NVIC_SetPriorityGrouping+0x44>)
 80017c2:	68db      	ldr	r3, [r3, #12]
 80017c4:	60bb      	str	r3, [r7, #8]
  reg_value &= ~((uint32_t)(SCB_AIRCR_VECTKEY_Msk | SCB_AIRCR_PRIGROUP_Msk)); /* clear bits to change               */
 80017c6:	68ba      	ldr	r2, [r7, #8]
 80017c8:	f64f 03ff 	movw	r3, #63743	; 0xf8ff
 80017cc:	4013      	ands	r3, r2
 80017ce:	60bb      	str	r3, [r7, #8]
  reg_value  =  (reg_value                                   |
                ((uint32_t)0x5FAUL << SCB_AIRCR_VECTKEY_Pos) |
                (PriorityGroupTmp << SCB_AIRCR_PRIGROUP_Pos)  );              /* Insert write key and priority group */
 80017d0:	68fb      	ldr	r3, [r7, #12]
 80017d2:	021a      	lsls	r2, r3, #8
                ((uint32_t)0x5FAUL << SCB_AIRCR_VECTKEY_Pos) |
 80017d4:	68bb      	ldr	r3, [r7, #8]
 80017d6:	4313      	orrs	r3, r2
  reg_value  =  (reg_value                                   |
 80017d8:	f043 63bf 	orr.w	r3, r3, #100139008	; 0x5f80000
 80017dc:	f443 3300 	orr.w	r3, r3, #131072	; 0x20000
 80017e0:	60bb      	str	r3, [r7, #8]
  SCB->AIRCR =  reg_value;
 80017e2:	4a04      	ldr	r2, [pc, #16]	; (80017f4 <__NVIC_SetPriorityGrouping+0x44>)
 80017e4:	68bb      	ldr	r3, [r7, #8]
 80017e6:	60d3      	str	r3, [r2, #12]
}
 80017e8:	bf00      	nop
 80017ea:	3714      	adds	r7, #20
 80017ec:	46bd      	mov	sp, r7
 80017ee:	f85d 7b04 	ldr.w	r7, [sp], #4
 80017f2:	4770      	bx	lr
 80017f4:	e000ed00 	.word	0xe000ed00

080017f8 <__NVIC_GetPriorityGrouping>:
  \brief   Get Priority Grouping
  \details Reads the priority grouping field from the NVIC Interrupt Controller.
  \return                Priority grouping field (SCB->AIRCR [10:8] PRIGROUP field).
 */
__STATIC_INLINE uint32_t __NVIC_GetPriorityGrouping(void)
{
 80017f8:	b480      	push	{r7}
 80017fa:	af00      	add	r7, sp, #0
  return ((uint32_t)((SCB->AIRCR & SCB_AIRCR_PRIGROUP_Msk) >> SCB_AIRCR_PRIGROUP_Pos));
 80017fc:	4b04      	ldr	r3, [pc, #16]	; (8001810 <__NVIC_GetPriorityGrouping+0x18>)
 80017fe:	68db      	ldr	r3, [r3, #12]
 8001800:	0a1b      	lsrs	r3, r3, #8
 8001802:	f003 0307 	and.w	r3, r3, #7
}
 8001806:	4618      	mov	r0, r3
 8001808:	46bd      	mov	sp, r7
 800180a:	f85d 7b04 	ldr.w	r7, [sp], #4
 800180e:	4770      	bx	lr
 8001810:	e000ed00 	.word	0xe000ed00

08001814 <__NVIC_EnableIRQ>:
  \details Enables a device specific interrupt in the NVIC interrupt controller.
  \param [in]      IRQn  Device specific interrupt number.
  \note    IRQn must not be negative.
 */
__STATIC_INLINE void __NVIC_EnableIRQ(IRQn_Type IRQn)
{
 8001814:	b480      	push	{r7}
 8001816:	b083      	sub	sp, #12
 8001818:	af00      	add	r7, sp, #0
 800181a:	4603      	mov	r3, r0
 800181c:	71fb      	strb	r3, [r7, #7]
  if ((int32_t)(IRQn) >= 0)
 800181e:	f997 3007 	ldrsb.w	r3, [r7, #7]
 8001822:	2b00      	cmp	r3, #0
 8001824:	db0b      	blt.n	800183e <__NVIC_EnableIRQ+0x2a>
  {
    NVIC->ISER[(((uint32_t)IRQn) >> 5UL)] = (uint32_t)(1UL << (((uint32_t)IRQn) & 0x1FUL));
 8001826:	79fb      	ldrb	r3, [r7, #7]
 8001828:	f003 021f 	and.w	r2, r3, #31
 800182c:	4907      	ldr	r1, [pc, #28]	; (800184c <__NVIC_EnableIRQ+0x38>)
 800182e:	f997 3007 	ldrsb.w	r3, [r7, #7]
 8001832:	095b      	lsrs	r3, r3, #5
 8001834:	2001      	movs	r0, #1
 8001836:	fa00 f202 	lsl.w	r2, r0, r2
 800183a:	f841 2023 	str.w	r2, [r1, r3, lsl #2]
  }
}
 800183e:	bf00      	nop
 8001840:	370c      	adds	r7, #12
 8001842:	46bd      	mov	sp, r7
 8001844:	f85d 7b04 	ldr.w	r7, [sp], #4
 8001848:	4770      	bx	lr
 800184a:	bf00      	nop
 800184c:	e000e100 	.word	0xe000e100

08001850 <__NVIC_SetPriority>:
  \param [in]      IRQn  Interrupt number.
  \param [in]  priority  Priority to set.
  \note    The priority cannot be set for every processor exception.
 */
__STATIC_INLINE void __NVIC_SetPriority(IRQn_Type IRQn, uint32_t priority)
{
 8001850:	b480      	push	{r7}
 8001852:	b083      	sub	sp, #12
 8001854:	af00      	add	r7, sp, #0
 8001856:	4603      	mov	r3, r0
 8001858:	6039      	str	r1, [r7, #0]
 800185a:	71fb      	strb	r3, [r7, #7]
  if ((int32_t)(IRQn) >= 0)
 800185c:	f997 3007 	ldrsb.w	r3, [r7, #7]
 8001860:	2b00      	cmp	r3, #0
 8001862:	db0a      	blt.n	800187a <__NVIC_SetPriority+0x2a>
  {
    NVIC->IP[((uint32_t)IRQn)]               = (uint8_t)((priority << (8U - __NVIC_PRIO_BITS)) & (uint32_t)0xFFUL);
 8001864:	683b      	ldr	r3, [r7, #0]
 8001866:	b2da      	uxtb	r2, r3
 8001868:	490c      	ldr	r1, [pc, #48]	; (800189c <__NVIC_SetPriority+0x4c>)
 800186a:	f997 3007 	ldrsb.w	r3, [r7, #7]
 800186e:	0112      	lsls	r2, r2, #4
 8001870:	b2d2      	uxtb	r2, r2
 8001872:	440b      	add	r3, r1
 8001874:	f883 2300 	strb.w	r2, [r3, #768]	; 0x300
  }
  else
  {
    SCB->SHP[(((uint32_t)IRQn) & 0xFUL)-4UL] = (uint8_t)((priority << (8U - __NVIC_PRIO_BITS)) & (uint32_t)0xFFUL);
  }
}
 8001878:	e00a      	b.n	8001890 <__NVIC_SetPriority+0x40>
    SCB->SHP[(((uint32_t)IRQn) & 0xFUL)-4UL] = (uint8_t)((priority << (8U - __NVIC_PRIO_BITS)) & (uint32_t)0xFFUL);
 800187a:	683b      	ldr	r3, [r7, #0]
 800187c:	b2da      	uxtb	r2, r3
 800187e:	4908      	ldr	r1, [pc, #32]	; (80018a0 <__NVIC_SetPriority+0x50>)
 8001880:	79fb      	ldrb	r3, [r7, #7]
 8001882:	f003 030f 	and.w	r3, r3, #15
 8001886:	3b04      	subs	r3, #4
 8001888:	0112      	lsls	r2, r2, #4
 800188a:	b2d2      	uxtb	r2, r2
 800188c:	440b      	add	r3, r1
 800188e:	761a      	strb	r2, [r3, #24]
}
 8001890:	bf00      	nop
 8001892:	370c      	adds	r7, #12
 8001894:	46bd      	mov	sp, r7
 8001896:	f85d 7b04 	ldr.w	r7, [sp], #4
 800189a:	4770      	bx	lr
 800189c:	e000e100 	.word	0xe000e100
 80018a0:	e000ed00 	.word	0xe000ed00

080018a4 <NVIC_EncodePriority>:
  \param [in]   PreemptPriority  Preemptive priority value (starting from 0).
  \param [in]       SubPriority  Subpriority value (starting from 0).
  \return                        Encoded priority. Value can be used in the function \ref NVIC_SetPriority().
 */
__STATIC_INLINE uint32_t NVIC_EncodePriority (uint32_t PriorityGroup, uint32_t PreemptPriority, uint32_t SubPriority)
{
 80018a4:	b480      	push	{r7}
 80018a6:	b089      	sub	sp, #36	; 0x24
 80018a8:	af00      	add	r7, sp, #0
 80018aa:	60f8      	str	r0, [r7, #12]
 80018ac:	60b9      	str	r1, [r7, #8]
 80018ae:	607a      	str	r2, [r7, #4]
  uint32_t PriorityGroupTmp = (PriorityGroup & (uint32_t)0x07UL);   /* only values 0..7 are used          */
 80018b0:	68fb      	ldr	r3, [r7, #12]
 80018b2:	f003 0307 	and.w	r3, r3, #7
 80018b6:	61fb      	str	r3, [r7, #28]
  uint32_t PreemptPriorityBits;
  uint32_t SubPriorityBits;

  PreemptPriorityBits = ((7UL - PriorityGroupTmp) > (uint32_t)(__NVIC_PRIO_BITS)) ? (uint32_t)(__NVIC_PRIO_BITS) : (uint32_t)(7UL - PriorityGroupTmp);
 80018b8:	69fb      	ldr	r3, [r7, #28]
 80018ba:	f1c3 0307 	rsb	r3, r3, #7
 80018be:	2b04      	cmp	r3, #4
 80018c0:	bf28      	it	cs
 80018c2:	2304      	movcs	r3, #4
 80018c4:	61bb      	str	r3, [r7, #24]
  SubPriorityBits     = ((PriorityGroupTmp + (uint32_t)(__NVIC_PRIO_BITS)) < (uint32_t)7UL) ? (uint32_t)0UL : (uint32_t)((PriorityGroupTmp - 7UL) + (uint32_t)(__NVIC_PRIO_BITS));
 80018c6:	69fb      	ldr	r3, [r7, #28]
 80018c8:	3304      	adds	r3, #4
 80018ca:	2b06      	cmp	r3, #6
 80018cc:	d902      	bls.n	80018d4 <NVIC_EncodePriority+0x30>
 80018ce:	69fb      	ldr	r3, [r7, #28]
 80018d0:	3b03      	subs	r3, #3
 80018d2:	e000      	b.n	80018d6 <NVIC_EncodePriority+0x32>
 80018d4:	2300      	movs	r3, #0
 80018d6:	617b      	str	r3, [r7, #20]

  return (
           ((PreemptPriority & (uint32_t)((1UL << (PreemptPriorityBits)) - 1UL)) << SubPriorityBits) |
 80018d8:	f04f 32ff 	mov.w	r2, #4294967295	; 0xffffffff
 80018dc:	69bb      	ldr	r3, [r7, #24]
 80018de:	fa02 f303 	lsl.w	r3, r2, r3
 80018e2:	43da      	mvns	r2, r3
 80018e4:	68bb      	ldr	r3, [r7, #8]
 80018e6:	401a      	ands	r2, r3
 80018e8:	697b      	ldr	r3, [r7, #20]
 80018ea:	409a      	lsls	r2, r3
           ((SubPriority     & (uint32_t)((1UL << (SubPriorityBits    )) - 1UL)))
 80018ec:	f04f 31ff 	mov.w	r1, #4294967295	; 0xffffffff
 80018f0:	697b      	ldr	r3, [r7, #20]
 80018f2:	fa01 f303 	lsl.w	r3, r1, r3
 80018f6:	43d9      	mvns	r1, r3
 80018f8:	687b      	ldr	r3, [r7, #4]
 80018fa:	400b      	ands	r3, r1
           ((PreemptPriority & (uint32_t)((1UL << (PreemptPriorityBits)) - 1UL)) << SubPriorityBits) |
 80018fc:	4313      	orrs	r3, r2
         );
}
 80018fe:	4618      	mov	r0, r3
 8001900:	3724      	adds	r7, #36	; 0x24
 8001902:	46bd      	mov	sp, r7
 8001904:	f85d 7b04 	ldr.w	r7, [sp], #4
 8001908:	4770      	bx	lr
	...

0800190c <HAL_NVIC_SetPriorityGrouping>:
  * @note   When the NVIC_PriorityGroup_0 is selected, IRQ preemption is no more possible. 
  *         The pending IRQ priority will be managed only by the subpriority. 
  * @retval None
  */
void HAL_NVIC_SetPriorityGrouping(uint32_t PriorityGroup)
{
 800190c:	b580      	push	{r7, lr}
 800190e:	b082      	sub	sp, #8
 8001910:	af00      	add	r7, sp, #0
 8001912:	6078      	str	r0, [r7, #4]
  /* Check the parameters */
  assert_param(IS_NVIC_PRIORITY_GROUP(PriorityGroup));
 8001914:	687b      	ldr	r3, [r7, #4]
 8001916:	2b07      	cmp	r3, #7
 8001918:	d00f      	beq.n	800193a <HAL_NVIC_SetPriorityGrouping+0x2e>
 800191a:	687b      	ldr	r3, [r7, #4]
 800191c:	2b06      	cmp	r3, #6
 800191e:	d00c      	beq.n	800193a <HAL_NVIC_SetPriorityGrouping+0x2e>
 8001920:	687b      	ldr	r3, [r7, #4]
 8001922:	2b05      	cmp	r3, #5
 8001924:	d009      	beq.n	800193a <HAL_NVIC_SetPriorityGrouping+0x2e>
 8001926:	687b      	ldr	r3, [r7, #4]
 8001928:	2b04      	cmp	r3, #4
 800192a:	d006      	beq.n	800193a <HAL_NVIC_SetPriorityGrouping+0x2e>
 800192c:	687b      	ldr	r3, [r7, #4]
 800192e:	2b03      	cmp	r3, #3
 8001930:	d003      	beq.n	800193a <HAL_NVIC_SetPriorityGrouping+0x2e>
 8001932:	2192      	movs	r1, #146	; 0x92
 8001934:	4804      	ldr	r0, [pc, #16]	; (8001948 <HAL_NVIC_SetPriorityGrouping+0x3c>)
 8001936:	f7ff fd34 	bl	80013a2 <assert_failed>
  
  /* Set the PRIGROUP[10:8] bits according to the PriorityGroup parameter value */
  NVIC_SetPriorityGrouping(PriorityGroup);
 800193a:	6878      	ldr	r0, [r7, #4]
 800193c:	f7ff ff38 	bl	80017b0 <__NVIC_SetPriorityGrouping>
}
 8001940:	bf00      	nop
 8001942:	3708      	adds	r7, #8
 8001944:	46bd      	mov	sp, r7
 8001946:	bd80      	pop	{r7, pc}
 8001948:	0800dac8 	.word	0x0800dac8

0800194c <HAL_NVIC_SetPriority>:
  *         This parameter can be a value between 0 and 15
  *         A lower priority value indicates a higher priority.          
  * @retval None
  */
void HAL_NVIC_SetPriority(IRQn_Type IRQn, uint32_t PreemptPriority, uint32_t SubPriority)
{ 
 800194c:	b580      	push	{r7, lr}
 800194e:	b086      	sub	sp, #24
 8001950:	af00      	add	r7, sp, #0
 8001952:	4603      	mov	r3, r0
 8001954:	60b9      	str	r1, [r7, #8]
 8001956:	607a      	str	r2, [r7, #4]
 8001958:	73fb      	strb	r3, [r7, #15]
  uint32_t prioritygroup = 0x00U;
 800195a:	2300      	movs	r3, #0
 800195c:	617b      	str	r3, [r7, #20]
  
  /* Check the parameters */
  assert_param(IS_NVIC_SUB_PRIORITY(SubPriority));
 800195e:	687b      	ldr	r3, [r7, #4]
 8001960:	2b0f      	cmp	r3, #15
 8001962:	d903      	bls.n	800196c <HAL_NVIC_SetPriority+0x20>
 8001964:	21aa      	movs	r1, #170	; 0xaa
 8001966:	480e      	ldr	r0, [pc, #56]	; (80019a0 <HAL_NVIC_SetPriority+0x54>)
 8001968:	f7ff fd1b 	bl	80013a2 <assert_failed>
  assert_param(IS_NVIC_PREEMPTION_PRIORITY(PreemptPriority));
 800196c:	68bb      	ldr	r3, [r7, #8]
 800196e:	2b0f      	cmp	r3, #15
 8001970:	d903      	bls.n	800197a <HAL_NVIC_SetPriority+0x2e>
 8001972:	21ab      	movs	r1, #171	; 0xab
 8001974:	480a      	ldr	r0, [pc, #40]	; (80019a0 <HAL_NVIC_SetPriority+0x54>)
 8001976:	f7ff fd14 	bl	80013a2 <assert_failed>
  
  prioritygroup = NVIC_GetPriorityGrouping();
 800197a:	f7ff ff3d 	bl	80017f8 <__NVIC_GetPriorityGrouping>
 800197e:	6178      	str	r0, [r7, #20]
  
  NVIC_SetPriority(IRQn, NVIC_EncodePriority(prioritygroup, PreemptPriority, SubPriority));
 8001980:	687a      	ldr	r2, [r7, #4]
 8001982:	68b9      	ldr	r1, [r7, #8]
 8001984:	6978      	ldr	r0, [r7, #20]
 8001986:	f7ff ff8d 	bl	80018a4 <NVIC_EncodePriority>
 800198a:	4602      	mov	r2, r0
 800198c:	f997 300f 	ldrsb.w	r3, [r7, #15]
 8001990:	4611      	mov	r1, r2
 8001992:	4618      	mov	r0, r3
 8001994:	f7ff ff5c 	bl	8001850 <__NVIC_SetPriority>
}
 8001998:	bf00      	nop
 800199a:	3718      	adds	r7, #24
 800199c:	46bd      	mov	sp, r7
 800199e:	bd80      	pop	{r7, pc}
 80019a0:	0800dac8 	.word	0x0800dac8

080019a4 <HAL_NVIC_EnableIRQ>:
  *         This parameter can be an enumerator of IRQn_Type enumeration
  *         (For the complete STM32 Devices IRQ Channels list, please refer to the appropriate CMSIS device file (stm32f4xxxx.h))
  * @retval None
  */
void HAL_NVIC_EnableIRQ(IRQn_Type IRQn)
{
 80019a4:	b580      	push	{r7, lr}
 80019a6:	b082      	sub	sp, #8
 80019a8:	af00      	add	r7, sp, #0
 80019aa:	4603      	mov	r3, r0
 80019ac:	71fb      	strb	r3, [r7, #7]
  /* Check the parameters */
  assert_param(IS_NVIC_DEVICE_IRQ(IRQn));
 80019ae:	f997 3007 	ldrsb.w	r3, [r7, #7]
 80019b2:	2b00      	cmp	r3, #0
 80019b4:	da03      	bge.n	80019be <HAL_NVIC_EnableIRQ+0x1a>
 80019b6:	21be      	movs	r1, #190	; 0xbe
 80019b8:	4805      	ldr	r0, [pc, #20]	; (80019d0 <HAL_NVIC_EnableIRQ+0x2c>)
 80019ba:	f7ff fcf2 	bl	80013a2 <assert_failed>
  
  /* Enable interrupt */
  NVIC_EnableIRQ(IRQn);
 80019be:	f997 3007 	ldrsb.w	r3, [r7, #7]
 80019c2:	4618      	mov	r0, r3
 80019c4:	f7ff ff26 	bl	8001814 <__NVIC_EnableIRQ>
}
 80019c8:	bf00      	nop
 80019ca:	3708      	adds	r7, #8
 80019cc:	46bd      	mov	sp, r7
 80019ce:	bd80      	pop	{r7, pc}
 80019d0:	0800dac8 	.word	0x0800dac8

080019d4 <HAL_GPIO_Init>:
  * @param  GPIO_Init pointer to a GPIO_InitTypeDef structure that contains
  *         the configuration information for the specified GPIO peripheral.
  * @retval None
  */
void HAL_GPIO_Init(GPIO_TypeDef  *GPIOx, GPIO_InitTypeDef *GPIO_Init)
{
 80019d4:	b580      	push	{r7, lr}
 80019d6:	b088      	sub	sp, #32
 80019d8:	af00      	add	r7, sp, #0
 80019da:	6078      	str	r0, [r7, #4]
 80019dc:	6039      	str	r1, [r7, #0]
  uint32_t position;
  uint32_t ioposition = 0x00U;
 80019de:	2300      	movs	r3, #0
 80019e0:	617b      	str	r3, [r7, #20]
  uint32_t iocurrent = 0x00U;
 80019e2:	2300      	movs	r3, #0
 80019e4:	613b      	str	r3, [r7, #16]
  uint32_t temp = 0x00U;
 80019e6:	2300      	movs	r3, #0
 80019e8:	61bb      	str	r3, [r7, #24]

  /* Check the parameters */
  assert_param(IS_GPIO_ALL_INSTANCE(GPIOx));
 80019ea:	687b      	ldr	r3, [r7, #4]
 80019ec:	4a41      	ldr	r2, [pc, #260]	; (8001af4 <HAL_GPIO_Init+0x120>)
 80019ee:	4293      	cmp	r3, r2
 80019f0:	d023      	beq.n	8001a3a <HAL_GPIO_Init+0x66>
 80019f2:	687b      	ldr	r3, [r7, #4]
 80019f4:	4a40      	ldr	r2, [pc, #256]	; (8001af8 <HAL_GPIO_Init+0x124>)
 80019f6:	4293      	cmp	r3, r2
 80019f8:	d01f      	beq.n	8001a3a <HAL_GPIO_Init+0x66>
 80019fa:	687b      	ldr	r3, [r7, #4]
 80019fc:	4a3f      	ldr	r2, [pc, #252]	; (8001afc <HAL_GPIO_Init+0x128>)
 80019fe:	4293      	cmp	r3, r2
 8001a00:	d01b      	beq.n	8001a3a <HAL_GPIO_Init+0x66>
 8001a02:	687b      	ldr	r3, [r7, #4]
 8001a04:	4a3e      	ldr	r2, [pc, #248]	; (8001b00 <HAL_GPIO_Init+0x12c>)
 8001a06:	4293      	cmp	r3, r2
 8001a08:	d017      	beq.n	8001a3a <HAL_GPIO_Init+0x66>
 8001a0a:	687b      	ldr	r3, [r7, #4]
 8001a0c:	4a3d      	ldr	r2, [pc, #244]	; (8001b04 <HAL_GPIO_Init+0x130>)
 8001a0e:	4293      	cmp	r3, r2
 8001a10:	d013      	beq.n	8001a3a <HAL_GPIO_Init+0x66>
 8001a12:	687b      	ldr	r3, [r7, #4]
 8001a14:	4a3c      	ldr	r2, [pc, #240]	; (8001b08 <HAL_GPIO_Init+0x134>)
 8001a16:	4293      	cmp	r3, r2
 8001a18:	d00f      	beq.n	8001a3a <HAL_GPIO_Init+0x66>
 8001a1a:	687b      	ldr	r3, [r7, #4]
 8001a1c:	4a3b      	ldr	r2, [pc, #236]	; (8001b0c <HAL_GPIO_Init+0x138>)
 8001a1e:	4293      	cmp	r3, r2
 8001a20:	d00b      	beq.n	8001a3a <HAL_GPIO_Init+0x66>
 8001a22:	687b      	ldr	r3, [r7, #4]
 8001a24:	4a3a      	ldr	r2, [pc, #232]	; (8001b10 <HAL_GPIO_Init+0x13c>)
 8001a26:	4293      	cmp	r3, r2
 8001a28:	d007      	beq.n	8001a3a <HAL_GPIO_Init+0x66>
 8001a2a:	687b      	ldr	r3, [r7, #4]
 8001a2c:	4a39      	ldr	r2, [pc, #228]	; (8001b14 <HAL_GPIO_Init+0x140>)
 8001a2e:	4293      	cmp	r3, r2
 8001a30:	d003      	beq.n	8001a3a <HAL_GPIO_Init+0x66>
 8001a32:	21b3      	movs	r1, #179	; 0xb3
 8001a34:	4838      	ldr	r0, [pc, #224]	; (8001b18 <HAL_GPIO_Init+0x144>)
 8001a36:	f7ff fcb4 	bl	80013a2 <assert_failed>
  assert_param(IS_GPIO_PIN(GPIO_Init->Pin));
 8001a3a:	683b      	ldr	r3, [r7, #0]
 8001a3c:	681b      	ldr	r3, [r3, #0]
 8001a3e:	b29b      	uxth	r3, r3
 8001a40:	2b00      	cmp	r3, #0
 8001a42:	d005      	beq.n	8001a50 <HAL_GPIO_Init+0x7c>
 8001a44:	683b      	ldr	r3, [r7, #0]
 8001a46:	681b      	ldr	r3, [r3, #0]
 8001a48:	0c1b      	lsrs	r3, r3, #16
 8001a4a:	041b      	lsls	r3, r3, #16
 8001a4c:	2b00      	cmp	r3, #0
 8001a4e:	d003      	beq.n	8001a58 <HAL_GPIO_Init+0x84>
 8001a50:	21b4      	movs	r1, #180	; 0xb4
 8001a52:	4831      	ldr	r0, [pc, #196]	; (8001b18 <HAL_GPIO_Init+0x144>)
 8001a54:	f7ff fca5 	bl	80013a2 <assert_failed>
  assert_param(IS_GPIO_MODE(GPIO_Init->Mode));
 8001a58:	683b      	ldr	r3, [r7, #0]
 8001a5a:	685b      	ldr	r3, [r3, #4]
 8001a5c:	2b00      	cmp	r3, #0
 8001a5e:	d035      	beq.n	8001acc <HAL_GPIO_Init+0xf8>
 8001a60:	683b      	ldr	r3, [r7, #0]
 8001a62:	685b      	ldr	r3, [r3, #4]
 8001a64:	2b01      	cmp	r3, #1
 8001a66:	d031      	beq.n	8001acc <HAL_GPIO_Init+0xf8>
 8001a68:	683b      	ldr	r3, [r7, #0]
 8001a6a:	685b      	ldr	r3, [r3, #4]
 8001a6c:	2b11      	cmp	r3, #17
 8001a6e:	d02d      	beq.n	8001acc <HAL_GPIO_Init+0xf8>
 8001a70:	683b      	ldr	r3, [r7, #0]
 8001a72:	685b      	ldr	r3, [r3, #4]
 8001a74:	2b02      	cmp	r3, #2
 8001a76:	d029      	beq.n	8001acc <HAL_GPIO_Init+0xf8>
 8001a78:	683b      	ldr	r3, [r7, #0]
 8001a7a:	685b      	ldr	r3, [r3, #4]
 8001a7c:	2b12      	cmp	r3, #18
 8001a7e:	d025      	beq.n	8001acc <HAL_GPIO_Init+0xf8>
 8001a80:	683b      	ldr	r3, [r7, #0]
 8001a82:	685b      	ldr	r3, [r3, #4]
 8001a84:	4a25      	ldr	r2, [pc, #148]	; (8001b1c <HAL_GPIO_Init+0x148>)
 8001a86:	4293      	cmp	r3, r2
 8001a88:	d020      	beq.n	8001acc <HAL_GPIO_Init+0xf8>
 8001a8a:	683b      	ldr	r3, [r7, #0]
 8001a8c:	685b      	ldr	r3, [r3, #4]
 8001a8e:	4a24      	ldr	r2, [pc, #144]	; (8001b20 <HAL_GPIO_Init+0x14c>)
 8001a90:	4293      	cmp	r3, r2
 8001a92:	d01b      	beq.n	8001acc <HAL_GPIO_Init+0xf8>
 8001a94:	683b      	ldr	r3, [r7, #0]
 8001a96:	685b      	ldr	r3, [r3, #4]
 8001a98:	4a22      	ldr	r2, [pc, #136]	; (8001b24 <HAL_GPIO_Init+0x150>)
 8001a9a:	4293      	cmp	r3, r2
 8001a9c:	d016      	beq.n	8001acc <HAL_GPIO_Init+0xf8>
 8001a9e:	683b      	ldr	r3, [r7, #0]
 8001aa0:	685b      	ldr	r3, [r3, #4]
 8001aa2:	4a21      	ldr	r2, [pc, #132]	; (8001b28 <HAL_GPIO_Init+0x154>)
 8001aa4:	4293      	cmp	r3, r2
 8001aa6:	d011      	beq.n	8001acc <HAL_GPIO_Init+0xf8>
 8001aa8:	683b      	ldr	r3, [r7, #0]
 8001aaa:	685b      	ldr	r3, [r3, #4]
 8001aac:	4a1f      	ldr	r2, [pc, #124]	; (8001b2c <HAL_GPIO_Init+0x158>)
 8001aae:	4293      	cmp	r3, r2
 8001ab0:	d00c      	beq.n	8001acc <HAL_GPIO_Init+0xf8>
 8001ab2:	683b      	ldr	r3, [r7, #0]
 8001ab4:	685b      	ldr	r3, [r3, #4]
 8001ab6:	4a1e      	ldr	r2, [pc, #120]	; (8001b30 <HAL_GPIO_Init+0x15c>)
 8001ab8:	4293      	cmp	r3, r2
 8001aba:	d007      	beq.n	8001acc <HAL_GPIO_Init+0xf8>
 8001abc:	683b      	ldr	r3, [r7, #0]
 8001abe:	685b      	ldr	r3, [r3, #4]
 8001ac0:	2b03      	cmp	r3, #3
 8001ac2:	d003      	beq.n	8001acc <HAL_GPIO_Init+0xf8>
 8001ac4:	21b5      	movs	r1, #181	; 0xb5
 8001ac6:	4814      	ldr	r0, [pc, #80]	; (8001b18 <HAL_GPIO_Init+0x144>)
 8001ac8:	f7ff fc6b 	bl	80013a2 <assert_failed>
  assert_param(IS_GPIO_PULL(GPIO_Init->Pull));
 8001acc:	683b      	ldr	r3, [r7, #0]
 8001ace:	689b      	ldr	r3, [r3, #8]
 8001ad0:	2b00      	cmp	r3, #0
 8001ad2:	d00b      	beq.n	8001aec <HAL_GPIO_Init+0x118>
 8001ad4:	683b      	ldr	r3, [r7, #0]
 8001ad6:	689b      	ldr	r3, [r3, #8]
 8001ad8:	2b01      	cmp	r3, #1
 8001ada:	d007      	beq.n	8001aec <HAL_GPIO_Init+0x118>
 8001adc:	683b      	ldr	r3, [r7, #0]
 8001ade:	689b      	ldr	r3, [r3, #8]
 8001ae0:	2b02      	cmp	r3, #2
 8001ae2:	d003      	beq.n	8001aec <HAL_GPIO_Init+0x118>
 8001ae4:	21b6      	movs	r1, #182	; 0xb6
 8001ae6:	480c      	ldr	r0, [pc, #48]	; (8001b18 <HAL_GPIO_Init+0x144>)
 8001ae8:	f7ff fc5b 	bl	80013a2 <assert_failed>

  /* Configure the port pins */
  for(position = 0U; position < GPIO_NUMBER; position++)
 8001aec:	2300      	movs	r3, #0
 8001aee:	61fb      	str	r3, [r7, #28]
 8001af0:	e23f      	b.n	8001f72 <HAL_GPIO_Init+0x59e>
 8001af2:	bf00      	nop
 8001af4:	40020000 	.word	0x40020000
 8001af8:	40020400 	.word	0x40020400
 8001afc:	40020800 	.word	0x40020800
 8001b00:	40020c00 	.word	0x40020c00
 8001b04:	40021000 	.word	0x40021000
 8001b08:	40021400 	.word	0x40021400
 8001b0c:	40021800 	.word	0x40021800
 8001b10:	40021c00 	.word	0x40021c00
 8001b14:	40022000 	.word	0x40022000
 8001b18:	0800db04 	.word	0x0800db04
 8001b1c:	10110000 	.word	0x10110000
 8001b20:	10210000 	.word	0x10210000
 8001b24:	10310000 	.word	0x10310000
 8001b28:	10120000 	.word	0x10120000
 8001b2c:	10220000 	.word	0x10220000
 8001b30:	10320000 	.word	0x10320000
  {
    /* Get the IO position */
    ioposition = 0x01U << position;
 8001b34:	2201      	movs	r2, #1
 8001b36:	69fb      	ldr	r3, [r7, #28]
 8001b38:	fa02 f303 	lsl.w	r3, r2, r3
 8001b3c:	617b      	str	r3, [r7, #20]
    /* Get the current IO position */
    iocurrent = (uint32_t)(GPIO_Init->Pin) & ioposition;
 8001b3e:	683b      	ldr	r3, [r7, #0]
 8001b40:	681b      	ldr	r3, [r3, #0]
 8001b42:	697a      	ldr	r2, [r7, #20]
 8001b44:	4013      	ands	r3, r2
 8001b46:	613b      	str	r3, [r7, #16]

    if(iocurrent == ioposition)
 8001b48:	693a      	ldr	r2, [r7, #16]
 8001b4a:	697b      	ldr	r3, [r7, #20]
 8001b4c:	429a      	cmp	r2, r3
 8001b4e:	f040 820d 	bne.w	8001f6c <HAL_GPIO_Init+0x598>
    {
      /*--------------------- GPIO Mode Configuration ------------------------*/
      /* In case of Output or Alternate function mode selection */
      if((GPIO_Init->Mode == GPIO_MODE_OUTPUT_PP) || (GPIO_Init->Mode == GPIO_MODE_AF_PP) ||
 8001b52:	683b      	ldr	r3, [r7, #0]
 8001b54:	685b      	ldr	r3, [r3, #4]
 8001b56:	2b01      	cmp	r3, #1
 8001b58:	d00b      	beq.n	8001b72 <HAL_GPIO_Init+0x19e>
 8001b5a:	683b      	ldr	r3, [r7, #0]
 8001b5c:	685b      	ldr	r3, [r3, #4]
 8001b5e:	2b02      	cmp	r3, #2
 8001b60:	d007      	beq.n	8001b72 <HAL_GPIO_Init+0x19e>
         (GPIO_Init->Mode == GPIO_MODE_OUTPUT_OD) || (GPIO_Init->Mode == GPIO_MODE_AF_OD))
 8001b62:	683b      	ldr	r3, [r7, #0]
 8001b64:	685b      	ldr	r3, [r3, #4]
      if((GPIO_Init->Mode == GPIO_MODE_OUTPUT_PP) || (GPIO_Init->Mode == GPIO_MODE_AF_PP) ||
 8001b66:	2b11      	cmp	r3, #17
 8001b68:	d003      	beq.n	8001b72 <HAL_GPIO_Init+0x19e>
         (GPIO_Init->Mode == GPIO_MODE_OUTPUT_OD) || (GPIO_Init->Mode == GPIO_MODE_AF_OD))
 8001b6a:	683b      	ldr	r3, [r7, #0]
 8001b6c:	685b      	ldr	r3, [r3, #4]
 8001b6e:	2b12      	cmp	r3, #18
 8001b70:	d144      	bne.n	8001bfc <HAL_GPIO_Init+0x228>
      {
        /* Check the Speed parameter */
        assert_param(IS_GPIO_SPEED(GPIO_Init->Speed));
 8001b72:	683b      	ldr	r3, [r7, #0]
 8001b74:	68db      	ldr	r3, [r3, #12]
 8001b76:	2b00      	cmp	r3, #0
 8001b78:	d00f      	beq.n	8001b9a <HAL_GPIO_Init+0x1c6>
 8001b7a:	683b      	ldr	r3, [r7, #0]
 8001b7c:	68db      	ldr	r3, [r3, #12]
 8001b7e:	2b01      	cmp	r3, #1
 8001b80:	d00b      	beq.n	8001b9a <HAL_GPIO_Init+0x1c6>
 8001b82:	683b      	ldr	r3, [r7, #0]
 8001b84:	68db      	ldr	r3, [r3, #12]
 8001b86:	2b02      	cmp	r3, #2
 8001b88:	d007      	beq.n	8001b9a <HAL_GPIO_Init+0x1c6>
 8001b8a:	683b      	ldr	r3, [r7, #0]
 8001b8c:	68db      	ldr	r3, [r3, #12]
 8001b8e:	2b03      	cmp	r3, #3
 8001b90:	d003      	beq.n	8001b9a <HAL_GPIO_Init+0x1c6>
 8001b92:	21c8      	movs	r1, #200	; 0xc8
 8001b94:	489f      	ldr	r0, [pc, #636]	; (8001e14 <HAL_GPIO_Init+0x440>)
 8001b96:	f7ff fc04 	bl	80013a2 <assert_failed>
        /* Configure the IO Speed */
        temp = GPIOx->OSPEEDR; 
 8001b9a:	687b      	ldr	r3, [r7, #4]
 8001b9c:	689b      	ldr	r3, [r3, #8]
 8001b9e:	61bb      	str	r3, [r7, #24]
        temp &= ~(GPIO_OSPEEDER_OSPEEDR0 << (position * 2U));
 8001ba0:	69fb      	ldr	r3, [r7, #28]
 8001ba2:	005b      	lsls	r3, r3, #1
 8001ba4:	2203      	movs	r2, #3
 8001ba6:	fa02 f303 	lsl.w	r3, r2, r3
 8001baa:	43db      	mvns	r3, r3
 8001bac:	69ba      	ldr	r2, [r7, #24]
 8001bae:	4013      	ands	r3, r2
 8001bb0:	61bb      	str	r3, [r7, #24]
        temp |= (GPIO_Init->Speed << (position * 2U));
 8001bb2:	683b      	ldr	r3, [r7, #0]
 8001bb4:	68da      	ldr	r2, [r3, #12]
 8001bb6:	69fb      	ldr	r3, [r7, #28]
 8001bb8:	005b      	lsls	r3, r3, #1
 8001bba:	fa02 f303 	lsl.w	r3, r2, r3
 8001bbe:	69ba      	ldr	r2, [r7, #24]
 8001bc0:	4313      	orrs	r3, r2
 8001bc2:	61bb      	str	r3, [r7, #24]
        GPIOx->OSPEEDR = temp;
 8001bc4:	687b      	ldr	r3, [r7, #4]
 8001bc6:	69ba      	ldr	r2, [r7, #24]
 8001bc8:	609a      	str	r2, [r3, #8]

        /* Configure the IO Output Type */
        temp = GPIOx->OTYPER;
 8001bca:	687b      	ldr	r3, [r7, #4]
 8001bcc:	685b      	ldr	r3, [r3, #4]
 8001bce:	61bb      	str	r3, [r7, #24]
        temp &= ~(GPIO_OTYPER_OT_0 << position) ;
 8001bd0:	2201      	movs	r2, #1
 8001bd2:	69fb      	ldr	r3, [r7, #28]
 8001bd4:	fa02 f303 	lsl.w	r3, r2, r3
 8001bd8:	43db      	mvns	r3, r3
 8001bda:	69ba      	ldr	r2, [r7, #24]
 8001bdc:	4013      	ands	r3, r2
 8001bde:	61bb      	str	r3, [r7, #24]
        temp |= (((GPIO_Init->Mode & GPIO_OUTPUT_TYPE) >> 4U) << position);
 8001be0:	683b      	ldr	r3, [r7, #0]
 8001be2:	685b      	ldr	r3, [r3, #4]
 8001be4:	091b      	lsrs	r3, r3, #4
 8001be6:	f003 0201 	and.w	r2, r3, #1
 8001bea:	69fb      	ldr	r3, [r7, #28]
 8001bec:	fa02 f303 	lsl.w	r3, r2, r3
 8001bf0:	69ba      	ldr	r2, [r7, #24]
 8001bf2:	4313      	orrs	r3, r2
 8001bf4:	61bb      	str	r3, [r7, #24]
        GPIOx->OTYPER = temp;
 8001bf6:	687b      	ldr	r3, [r7, #4]
 8001bf8:	69ba      	ldr	r2, [r7, #24]
 8001bfa:	605a      	str	r2, [r3, #4]
       }

      /* Activate the Pull-up or Pull down resistor for the current IO */
      temp = GPIOx->PUPDR;
 8001bfc:	687b      	ldr	r3, [r7, #4]
 8001bfe:	68db      	ldr	r3, [r3, #12]
 8001c00:	61bb      	str	r3, [r7, #24]
      temp &= ~(GPIO_PUPDR_PUPDR0 << (position * 2U));
 8001c02:	69fb      	ldr	r3, [r7, #28]
 8001c04:	005b      	lsls	r3, r3, #1
 8001c06:	2203      	movs	r2, #3
 8001c08:	fa02 f303 	lsl.w	r3, r2, r3
 8001c0c:	43db      	mvns	r3, r3
 8001c0e:	69ba      	ldr	r2, [r7, #24]
 8001c10:	4013      	ands	r3, r2
 8001c12:	61bb      	str	r3, [r7, #24]
      temp |= ((GPIO_Init->Pull) << (position * 2U));
 8001c14:	683b      	ldr	r3, [r7, #0]
 8001c16:	689a      	ldr	r2, [r3, #8]
 8001c18:	69fb      	ldr	r3, [r7, #28]
 8001c1a:	005b      	lsls	r3, r3, #1
 8001c1c:	fa02 f303 	lsl.w	r3, r2, r3
 8001c20:	69ba      	ldr	r2, [r7, #24]
 8001c22:	4313      	orrs	r3, r2
 8001c24:	61bb      	str	r3, [r7, #24]
      GPIOx->PUPDR = temp;
 8001c26:	687b      	ldr	r3, [r7, #4]
 8001c28:	69ba      	ldr	r2, [r7, #24]
 8001c2a:	60da      	str	r2, [r3, #12]

      /* In case of Alternate function mode selection */
      if((GPIO_Init->Mode == GPIO_MODE_AF_PP) || (GPIO_Init->Mode == GPIO_MODE_AF_OD))
 8001c2c:	683b      	ldr	r3, [r7, #0]
 8001c2e:	685b      	ldr	r3, [r3, #4]
 8001c30:	2b02      	cmp	r3, #2
 8001c32:	d004      	beq.n	8001c3e <HAL_GPIO_Init+0x26a>
 8001c34:	683b      	ldr	r3, [r7, #0]
 8001c36:	685b      	ldr	r3, [r3, #4]
 8001c38:	2b12      	cmp	r3, #18
 8001c3a:	f040 80bc 	bne.w	8001db6 <HAL_GPIO_Init+0x3e2>
      {
        /* Check the Alternate function parameter */
        assert_param(IS_GPIO_AF(GPIO_Init->Alternate));
 8001c3e:	683b      	ldr	r3, [r7, #0]
 8001c40:	691b      	ldr	r3, [r3, #16]
 8001c42:	2b00      	cmp	r3, #0
 8001c44:	f000 8093 	beq.w	8001d6e <HAL_GPIO_Init+0x39a>
 8001c48:	683b      	ldr	r3, [r7, #0]
 8001c4a:	691b      	ldr	r3, [r3, #16]
 8001c4c:	2b09      	cmp	r3, #9
 8001c4e:	f000 808e 	beq.w	8001d6e <HAL_GPIO_Init+0x39a>
 8001c52:	683b      	ldr	r3, [r7, #0]
 8001c54:	691b      	ldr	r3, [r3, #16]
 8001c56:	2b00      	cmp	r3, #0
 8001c58:	f000 8089 	beq.w	8001d6e <HAL_GPIO_Init+0x39a>
 8001c5c:	683b      	ldr	r3, [r7, #0]
 8001c5e:	691b      	ldr	r3, [r3, #16]
 8001c60:	2b00      	cmp	r3, #0
 8001c62:	f000 8084 	beq.w	8001d6e <HAL_GPIO_Init+0x39a>
 8001c66:	683b      	ldr	r3, [r7, #0]
 8001c68:	691b      	ldr	r3, [r3, #16]
 8001c6a:	2b00      	cmp	r3, #0
 8001c6c:	d07f      	beq.n	8001d6e <HAL_GPIO_Init+0x39a>
 8001c6e:	683b      	ldr	r3, [r7, #0]
 8001c70:	691b      	ldr	r3, [r3, #16]
 8001c72:	2b00      	cmp	r3, #0
 8001c74:	d07b      	beq.n	8001d6e <HAL_GPIO_Init+0x39a>
 8001c76:	683b      	ldr	r3, [r7, #0]
 8001c78:	691b      	ldr	r3, [r3, #16]
 8001c7a:	2b01      	cmp	r3, #1
 8001c7c:	d077      	beq.n	8001d6e <HAL_GPIO_Init+0x39a>
 8001c7e:	683b      	ldr	r3, [r7, #0]
 8001c80:	691b      	ldr	r3, [r3, #16]
 8001c82:	2b01      	cmp	r3, #1
 8001c84:	d073      	beq.n	8001d6e <HAL_GPIO_Init+0x39a>
 8001c86:	683b      	ldr	r3, [r7, #0]
 8001c88:	691b      	ldr	r3, [r3, #16]
 8001c8a:	2b02      	cmp	r3, #2
 8001c8c:	d06f      	beq.n	8001d6e <HAL_GPIO_Init+0x39a>
 8001c8e:	683b      	ldr	r3, [r7, #0]
 8001c90:	691b      	ldr	r3, [r3, #16]
 8001c92:	2b02      	cmp	r3, #2
 8001c94:	d06b      	beq.n	8001d6e <HAL_GPIO_Init+0x39a>
 8001c96:	683b      	ldr	r3, [r7, #0]
 8001c98:	691b      	ldr	r3, [r3, #16]
 8001c9a:	2b02      	cmp	r3, #2
 8001c9c:	d067      	beq.n	8001d6e <HAL_GPIO_Init+0x39a>
 8001c9e:	683b      	ldr	r3, [r7, #0]
 8001ca0:	691b      	ldr	r3, [r3, #16]
 8001ca2:	2b03      	cmp	r3, #3
 8001ca4:	d063      	beq.n	8001d6e <HAL_GPIO_Init+0x39a>
 8001ca6:	683b      	ldr	r3, [r7, #0]
 8001ca8:	691b      	ldr	r3, [r3, #16]
 8001caa:	2b04      	cmp	r3, #4
 8001cac:	d05f      	beq.n	8001d6e <HAL_GPIO_Init+0x39a>
 8001cae:	683b      	ldr	r3, [r7, #0]
 8001cb0:	691b      	ldr	r3, [r3, #16]
 8001cb2:	2b04      	cmp	r3, #4
 8001cb4:	d05b      	beq.n	8001d6e <HAL_GPIO_Init+0x39a>
 8001cb6:	683b      	ldr	r3, [r7, #0]
 8001cb8:	691b      	ldr	r3, [r3, #16]
 8001cba:	2b04      	cmp	r3, #4
 8001cbc:	d057      	beq.n	8001d6e <HAL_GPIO_Init+0x39a>
 8001cbe:	683b      	ldr	r3, [r7, #0]
 8001cc0:	691b      	ldr	r3, [r3, #16]
 8001cc2:	2b05      	cmp	r3, #5
 8001cc4:	d053      	beq.n	8001d6e <HAL_GPIO_Init+0x39a>
 8001cc6:	683b      	ldr	r3, [r7, #0]
 8001cc8:	691b      	ldr	r3, [r3, #16]
 8001cca:	2b05      	cmp	r3, #5
 8001ccc:	d04f      	beq.n	8001d6e <HAL_GPIO_Init+0x39a>
 8001cce:	683b      	ldr	r3, [r7, #0]
 8001cd0:	691b      	ldr	r3, [r3, #16]
 8001cd2:	2b09      	cmp	r3, #9
 8001cd4:	d04b      	beq.n	8001d6e <HAL_GPIO_Init+0x39a>
 8001cd6:	683b      	ldr	r3, [r7, #0]
 8001cd8:	691b      	ldr	r3, [r3, #16]
 8001cda:	2b06      	cmp	r3, #6
 8001cdc:	d047      	beq.n	8001d6e <HAL_GPIO_Init+0x39a>
 8001cde:	683b      	ldr	r3, [r7, #0]
 8001ce0:	691b      	ldr	r3, [r3, #16]
 8001ce2:	2b09      	cmp	r3, #9
 8001ce4:	d043      	beq.n	8001d6e <HAL_GPIO_Init+0x39a>
 8001ce6:	683b      	ldr	r3, [r7, #0]
 8001ce8:	691b      	ldr	r3, [r3, #16]
 8001cea:	2b07      	cmp	r3, #7
 8001cec:	d03f      	beq.n	8001d6e <HAL_GPIO_Init+0x39a>
 8001cee:	683b      	ldr	r3, [r7, #0]
 8001cf0:	691b      	ldr	r3, [r3, #16]
 8001cf2:	2b07      	cmp	r3, #7
 8001cf4:	d03b      	beq.n	8001d6e <HAL_GPIO_Init+0x39a>
 8001cf6:	683b      	ldr	r3, [r7, #0]
 8001cf8:	691b      	ldr	r3, [r3, #16]
 8001cfa:	2b07      	cmp	r3, #7
 8001cfc:	d037      	beq.n	8001d6e <HAL_GPIO_Init+0x39a>
 8001cfe:	683b      	ldr	r3, [r7, #0]
 8001d00:	691b      	ldr	r3, [r3, #16]
 8001d02:	2b08      	cmp	r3, #8
 8001d04:	d033      	beq.n	8001d6e <HAL_GPIO_Init+0x39a>
 8001d06:	683b      	ldr	r3, [r7, #0]
 8001d08:	691b      	ldr	r3, [r3, #16]
 8001d0a:	2b08      	cmp	r3, #8
 8001d0c:	d02f      	beq.n	8001d6e <HAL_GPIO_Init+0x39a>
 8001d0e:	683b      	ldr	r3, [r7, #0]
 8001d10:	691b      	ldr	r3, [r3, #16]
 8001d12:	2b08      	cmp	r3, #8
 8001d14:	d02b      	beq.n	8001d6e <HAL_GPIO_Init+0x39a>
 8001d16:	683b      	ldr	r3, [r7, #0]
 8001d18:	691b      	ldr	r3, [r3, #16]
 8001d1a:	2b09      	cmp	r3, #9
 8001d1c:	d027      	beq.n	8001d6e <HAL_GPIO_Init+0x39a>
 8001d1e:	683b      	ldr	r3, [r7, #0]
 8001d20:	691b      	ldr	r3, [r3, #16]
 8001d22:	2b09      	cmp	r3, #9
 8001d24:	d023      	beq.n	8001d6e <HAL_GPIO_Init+0x39a>
 8001d26:	683b      	ldr	r3, [r7, #0]
 8001d28:	691b      	ldr	r3, [r3, #16]
 8001d2a:	2b0a      	cmp	r3, #10
 8001d2c:	d01f      	beq.n	8001d6e <HAL_GPIO_Init+0x39a>
 8001d2e:	683b      	ldr	r3, [r7, #0]
 8001d30:	691b      	ldr	r3, [r3, #16]
 8001d32:	2b0a      	cmp	r3, #10
 8001d34:	d01b      	beq.n	8001d6e <HAL_GPIO_Init+0x39a>
 8001d36:	683b      	ldr	r3, [r7, #0]
 8001d38:	691b      	ldr	r3, [r3, #16]
 8001d3a:	2b0b      	cmp	r3, #11
 8001d3c:	d017      	beq.n	8001d6e <HAL_GPIO_Init+0x39a>
 8001d3e:	683b      	ldr	r3, [r7, #0]
 8001d40:	691b      	ldr	r3, [r3, #16]
 8001d42:	2b0c      	cmp	r3, #12
 8001d44:	d013      	beq.n	8001d6e <HAL_GPIO_Init+0x39a>
 8001d46:	683b      	ldr	r3, [r7, #0]
 8001d48:	691b      	ldr	r3, [r3, #16]
 8001d4a:	2b0c      	cmp	r3, #12
 8001d4c:	d00f      	beq.n	8001d6e <HAL_GPIO_Init+0x39a>
 8001d4e:	683b      	ldr	r3, [r7, #0]
 8001d50:	691b      	ldr	r3, [r3, #16]
 8001d52:	2b0d      	cmp	r3, #13
 8001d54:	d00b      	beq.n	8001d6e <HAL_GPIO_Init+0x39a>
 8001d56:	683b      	ldr	r3, [r7, #0]
 8001d58:	691b      	ldr	r3, [r3, #16]
 8001d5a:	2b0c      	cmp	r3, #12
 8001d5c:	d007      	beq.n	8001d6e <HAL_GPIO_Init+0x39a>
 8001d5e:	683b      	ldr	r3, [r7, #0]
 8001d60:	691b      	ldr	r3, [r3, #16]
 8001d62:	2b0f      	cmp	r3, #15
 8001d64:	d003      	beq.n	8001d6e <HAL_GPIO_Init+0x39a>
 8001d66:	21e0      	movs	r1, #224	; 0xe0
 8001d68:	482a      	ldr	r0, [pc, #168]	; (8001e14 <HAL_GPIO_Init+0x440>)
 8001d6a:	f7ff fb1a 	bl	80013a2 <assert_failed>
        /* Configure Alternate function mapped with the current IO */
        temp = GPIOx->AFR[position >> 3U];
 8001d6e:	69fb      	ldr	r3, [r7, #28]
 8001d70:	08da      	lsrs	r2, r3, #3
 8001d72:	687b      	ldr	r3, [r7, #4]
 8001d74:	3208      	adds	r2, #8
 8001d76:	f853 3022 	ldr.w	r3, [r3, r2, lsl #2]
 8001d7a:	61bb      	str	r3, [r7, #24]
        temp &= ~(0xFU << ((uint32_t)(position & 0x07U) * 4U)) ;
 8001d7c:	69fb      	ldr	r3, [r7, #28]
 8001d7e:	f003 0307 	and.w	r3, r3, #7
 8001d82:	009b      	lsls	r3, r3, #2
 8001d84:	220f      	movs	r2, #15
 8001d86:	fa02 f303 	lsl.w	r3, r2, r3
 8001d8a:	43db      	mvns	r3, r3
 8001d8c:	69ba      	ldr	r2, [r7, #24]
 8001d8e:	4013      	ands	r3, r2
 8001d90:	61bb      	str	r3, [r7, #24]
        temp |= ((uint32_t)(GPIO_Init->Alternate) << (((uint32_t)position & 0x07U) * 4U));
 8001d92:	683b      	ldr	r3, [r7, #0]
 8001d94:	691a      	ldr	r2, [r3, #16]
 8001d96:	69fb      	ldr	r3, [r7, #28]
 8001d98:	f003 0307 	and.w	r3, r3, #7
 8001d9c:	009b      	lsls	r3, r3, #2
 8001d9e:	fa02 f303 	lsl.w	r3, r2, r3
 8001da2:	69ba      	ldr	r2, [r7, #24]
 8001da4:	4313      	orrs	r3, r2
 8001da6:	61bb      	str	r3, [r7, #24]
        GPIOx->AFR[position >> 3U] = temp;
 8001da8:	69fb      	ldr	r3, [r7, #28]
 8001daa:	08da      	lsrs	r2, r3, #3
 8001dac:	687b      	ldr	r3, [r7, #4]
 8001dae:	3208      	adds	r2, #8
 8001db0:	69b9      	ldr	r1, [r7, #24]
 8001db2:	f843 1022 	str.w	r1, [r3, r2, lsl #2]
      }

      /* Configure IO Direction mode (Input, Output, Alternate or Analog) */
      temp = GPIOx->MODER;
 8001db6:	687b      	ldr	r3, [r7, #4]
 8001db8:	681b      	ldr	r3, [r3, #0]
 8001dba:	61bb      	str	r3, [r7, #24]
      temp &= ~(GPIO_MODER_MODER0 << (position * 2U));
 8001dbc:	69fb      	ldr	r3, [r7, #28]
 8001dbe:	005b      	lsls	r3, r3, #1
 8001dc0:	2203      	movs	r2, #3
 8001dc2:	fa02 f303 	lsl.w	r3, r2, r3
 8001dc6:	43db      	mvns	r3, r3
 8001dc8:	69ba      	ldr	r2, [r7, #24]
 8001dca:	4013      	ands	r3, r2
 8001dcc:	61bb      	str	r3, [r7, #24]
      temp |= ((GPIO_Init->Mode & GPIO_MODE) << (position * 2U));
 8001dce:	683b      	ldr	r3, [r7, #0]
 8001dd0:	685b      	ldr	r3, [r3, #4]
 8001dd2:	f003 0203 	and.w	r2, r3, #3
 8001dd6:	69fb      	ldr	r3, [r7, #28]
 8001dd8:	005b      	lsls	r3, r3, #1
 8001dda:	fa02 f303 	lsl.w	r3, r2, r3
 8001dde:	69ba      	ldr	r2, [r7, #24]
 8001de0:	4313      	orrs	r3, r2
 8001de2:	61bb      	str	r3, [r7, #24]
      GPIOx->MODER = temp;
 8001de4:	687b      	ldr	r3, [r7, #4]
 8001de6:	69ba      	ldr	r2, [r7, #24]
 8001de8:	601a      	str	r2, [r3, #0]

      /*--------------------- EXTI Mode Configuration ------------------------*/
      /* Configure the External Interrupt or event for the current IO */
      if((GPIO_Init->Mode & EXTI_MODE) == EXTI_MODE)
 8001dea:	683b      	ldr	r3, [r7, #0]
 8001dec:	685b      	ldr	r3, [r3, #4]
 8001dee:	f003 5380 	and.w	r3, r3, #268435456	; 0x10000000
 8001df2:	2b00      	cmp	r3, #0
 8001df4:	f000 80ba 	beq.w	8001f6c <HAL_GPIO_Init+0x598>
      {
        /* Enable SYSCFG Clock */
        __HAL_RCC_SYSCFG_CLK_ENABLE();
 8001df8:	2300      	movs	r3, #0
 8001dfa:	60fb      	str	r3, [r7, #12]
 8001dfc:	4b06      	ldr	r3, [pc, #24]	; (8001e18 <HAL_GPIO_Init+0x444>)
 8001dfe:	6c5b      	ldr	r3, [r3, #68]	; 0x44
 8001e00:	4a05      	ldr	r2, [pc, #20]	; (8001e18 <HAL_GPIO_Init+0x444>)
 8001e02:	f443 4380 	orr.w	r3, r3, #16384	; 0x4000
 8001e06:	6453      	str	r3, [r2, #68]	; 0x44
 8001e08:	4b03      	ldr	r3, [pc, #12]	; (8001e18 <HAL_GPIO_Init+0x444>)
 8001e0a:	6c5b      	ldr	r3, [r3, #68]	; 0x44
 8001e0c:	f403 4380 	and.w	r3, r3, #16384	; 0x4000
 8001e10:	e004      	b.n	8001e1c <HAL_GPIO_Init+0x448>
 8001e12:	bf00      	nop
 8001e14:	0800db04 	.word	0x0800db04
 8001e18:	40023800 	.word	0x40023800
 8001e1c:	60fb      	str	r3, [r7, #12]
 8001e1e:	68fb      	ldr	r3, [r7, #12]

        temp = SYSCFG->EXTICR[position >> 2U];
 8001e20:	4a58      	ldr	r2, [pc, #352]	; (8001f84 <HAL_GPIO_Init+0x5b0>)
 8001e22:	69fb      	ldr	r3, [r7, #28]
 8001e24:	089b      	lsrs	r3, r3, #2
 8001e26:	3302      	adds	r3, #2
 8001e28:	f852 3023 	ldr.w	r3, [r2, r3, lsl #2]
 8001e2c:	61bb      	str	r3, [r7, #24]
        temp &= ~(0x0FU << (4U * (position & 0x03U)));
 8001e2e:	69fb      	ldr	r3, [r7, #28]
 8001e30:	f003 0303 	and.w	r3, r3, #3
 8001e34:	009b      	lsls	r3, r3, #2
 8001e36:	220f      	movs	r2, #15
 8001e38:	fa02 f303 	lsl.w	r3, r2, r3
 8001e3c:	43db      	mvns	r3, r3
 8001e3e:	69ba      	ldr	r2, [r7, #24]
 8001e40:	4013      	ands	r3, r2
 8001e42:	61bb      	str	r3, [r7, #24]
        temp |= ((uint32_t)(GPIO_GET_INDEX(GPIOx)) << (4U * (position & 0x03U)));
 8001e44:	687b      	ldr	r3, [r7, #4]
 8001e46:	4a50      	ldr	r2, [pc, #320]	; (8001f88 <HAL_GPIO_Init+0x5b4>)
 8001e48:	4293      	cmp	r3, r2
 8001e4a:	d02b      	beq.n	8001ea4 <HAL_GPIO_Init+0x4d0>
 8001e4c:	687b      	ldr	r3, [r7, #4]
 8001e4e:	4a4f      	ldr	r2, [pc, #316]	; (8001f8c <HAL_GPIO_Init+0x5b8>)
 8001e50:	4293      	cmp	r3, r2
 8001e52:	d025      	beq.n	8001ea0 <HAL_GPIO_Init+0x4cc>
 8001e54:	687b      	ldr	r3, [r7, #4]
 8001e56:	4a4e      	ldr	r2, [pc, #312]	; (8001f90 <HAL_GPIO_Init+0x5bc>)
 8001e58:	4293      	cmp	r3, r2
 8001e5a:	d01f      	beq.n	8001e9c <HAL_GPIO_Init+0x4c8>
 8001e5c:	687b      	ldr	r3, [r7, #4]
 8001e5e:	4a4d      	ldr	r2, [pc, #308]	; (8001f94 <HAL_GPIO_Init+0x5c0>)
 8001e60:	4293      	cmp	r3, r2
 8001e62:	d019      	beq.n	8001e98 <HAL_GPIO_Init+0x4c4>
 8001e64:	687b      	ldr	r3, [r7, #4]
 8001e66:	4a4c      	ldr	r2, [pc, #304]	; (8001f98 <HAL_GPIO_Init+0x5c4>)
 8001e68:	4293      	cmp	r3, r2
 8001e6a:	d013      	beq.n	8001e94 <HAL_GPIO_Init+0x4c0>
 8001e6c:	687b      	ldr	r3, [r7, #4]
 8001e6e:	4a4b      	ldr	r2, [pc, #300]	; (8001f9c <HAL_GPIO_Init+0x5c8>)
 8001e70:	4293      	cmp	r3, r2
 8001e72:	d00d      	beq.n	8001e90 <HAL_GPIO_Init+0x4bc>
 8001e74:	687b      	ldr	r3, [r7, #4]
 8001e76:	4a4a      	ldr	r2, [pc, #296]	; (8001fa0 <HAL_GPIO_Init+0x5cc>)
 8001e78:	4293      	cmp	r3, r2
 8001e7a:	d007      	beq.n	8001e8c <HAL_GPIO_Init+0x4b8>
 8001e7c:	687b      	ldr	r3, [r7, #4]
 8001e7e:	4a49      	ldr	r2, [pc, #292]	; (8001fa4 <HAL_GPIO_Init+0x5d0>)
 8001e80:	4293      	cmp	r3, r2
 8001e82:	d101      	bne.n	8001e88 <HAL_GPIO_Init+0x4b4>
 8001e84:	2307      	movs	r3, #7
 8001e86:	e00e      	b.n	8001ea6 <HAL_GPIO_Init+0x4d2>
 8001e88:	2308      	movs	r3, #8
 8001e8a:	e00c      	b.n	8001ea6 <HAL_GPIO_Init+0x4d2>
 8001e8c:	2306      	movs	r3, #6
 8001e8e:	e00a      	b.n	8001ea6 <HAL_GPIO_Init+0x4d2>
 8001e90:	2305      	movs	r3, #5
 8001e92:	e008      	b.n	8001ea6 <HAL_GPIO_Init+0x4d2>
 8001e94:	2304      	movs	r3, #4
 8001e96:	e006      	b.n	8001ea6 <HAL_GPIO_Init+0x4d2>
 8001e98:	2303      	movs	r3, #3
 8001e9a:	e004      	b.n	8001ea6 <HAL_GPIO_Init+0x4d2>
 8001e9c:	2302      	movs	r3, #2
 8001e9e:	e002      	b.n	8001ea6 <HAL_GPIO_Init+0x4d2>
 8001ea0:	2301      	movs	r3, #1
 8001ea2:	e000      	b.n	8001ea6 <HAL_GPIO_Init+0x4d2>
 8001ea4:	2300      	movs	r3, #0
 8001ea6:	69fa      	ldr	r2, [r7, #28]
 8001ea8:	f002 0203 	and.w	r2, r2, #3
 8001eac:	0092      	lsls	r2, r2, #2
 8001eae:	4093      	lsls	r3, r2
 8001eb0:	69ba      	ldr	r2, [r7, #24]
 8001eb2:	4313      	orrs	r3, r2
 8001eb4:	61bb      	str	r3, [r7, #24]
        SYSCFG->EXTICR[position >> 2U] = temp;
 8001eb6:	4933      	ldr	r1, [pc, #204]	; (8001f84 <HAL_GPIO_Init+0x5b0>)
 8001eb8:	69fb      	ldr	r3, [r7, #28]
 8001eba:	089b      	lsrs	r3, r3, #2
 8001ebc:	3302      	adds	r3, #2
 8001ebe:	69ba      	ldr	r2, [r7, #24]
 8001ec0:	f841 2023 	str.w	r2, [r1, r3, lsl #2]

        /* Clear EXTI line configuration */
        temp = EXTI->IMR;
 8001ec4:	4b38      	ldr	r3, [pc, #224]	; (8001fa8 <HAL_GPIO_Init+0x5d4>)
 8001ec6:	681b      	ldr	r3, [r3, #0]
 8001ec8:	61bb      	str	r3, [r7, #24]
        temp &= ~((uint32_t)iocurrent);
 8001eca:	693b      	ldr	r3, [r7, #16]
 8001ecc:	43db      	mvns	r3, r3
 8001ece:	69ba      	ldr	r2, [r7, #24]
 8001ed0:	4013      	ands	r3, r2
 8001ed2:	61bb      	str	r3, [r7, #24]
        if((GPIO_Init->Mode & GPIO_MODE_IT) == GPIO_MODE_IT)
 8001ed4:	683b      	ldr	r3, [r7, #0]
 8001ed6:	685b      	ldr	r3, [r3, #4]
 8001ed8:	f403 3380 	and.w	r3, r3, #65536	; 0x10000
 8001edc:	2b00      	cmp	r3, #0
 8001ede:	d003      	beq.n	8001ee8 <HAL_GPIO_Init+0x514>
        {
          temp |= iocurrent;
 8001ee0:	69ba      	ldr	r2, [r7, #24]
 8001ee2:	693b      	ldr	r3, [r7, #16]
 8001ee4:	4313      	orrs	r3, r2
 8001ee6:	61bb      	str	r3, [r7, #24]
        }
        EXTI->IMR = temp;
 8001ee8:	4a2f      	ldr	r2, [pc, #188]	; (8001fa8 <HAL_GPIO_Init+0x5d4>)
 8001eea:	69bb      	ldr	r3, [r7, #24]
 8001eec:	6013      	str	r3, [r2, #0]

        temp = EXTI->EMR;
 8001eee:	4b2e      	ldr	r3, [pc, #184]	; (8001fa8 <HAL_GPIO_Init+0x5d4>)
 8001ef0:	685b      	ldr	r3, [r3, #4]
 8001ef2:	61bb      	str	r3, [r7, #24]
        temp &= ~((uint32_t)iocurrent);
 8001ef4:	693b      	ldr	r3, [r7, #16]
 8001ef6:	43db      	mvns	r3, r3
 8001ef8:	69ba      	ldr	r2, [r7, #24]
 8001efa:	4013      	ands	r3, r2
 8001efc:	61bb      	str	r3, [r7, #24]
        if((GPIO_Init->Mode & GPIO_MODE_EVT) == GPIO_MODE_EVT)
 8001efe:	683b      	ldr	r3, [r7, #0]
 8001f00:	685b      	ldr	r3, [r3, #4]
 8001f02:	f403 3300 	and.w	r3, r3, #131072	; 0x20000
 8001f06:	2b00      	cmp	r3, #0
 8001f08:	d003      	beq.n	8001f12 <HAL_GPIO_Init+0x53e>
        {
          temp |= iocurrent;
 8001f0a:	69ba      	ldr	r2, [r7, #24]
 8001f0c:	693b      	ldr	r3, [r7, #16]
 8001f0e:	4313      	orrs	r3, r2
 8001f10:	61bb      	str	r3, [r7, #24]
        }
        EXTI->EMR = temp;
 8001f12:	4a25      	ldr	r2, [pc, #148]	; (8001fa8 <HAL_GPIO_Init+0x5d4>)
 8001f14:	69bb      	ldr	r3, [r7, #24]
 8001f16:	6053      	str	r3, [r2, #4]

        /* Clear Rising Falling edge configuration */
        temp = EXTI->RTSR;
 8001f18:	4b23      	ldr	r3, [pc, #140]	; (8001fa8 <HAL_GPIO_Init+0x5d4>)
 8001f1a:	689b      	ldr	r3, [r3, #8]
 8001f1c:	61bb      	str	r3, [r7, #24]
        temp &= ~((uint32_t)iocurrent);
 8001f1e:	693b      	ldr	r3, [r7, #16]
 8001f20:	43db      	mvns	r3, r3
 8001f22:	69ba      	ldr	r2, [r7, #24]
 8001f24:	4013      	ands	r3, r2
 8001f26:	61bb      	str	r3, [r7, #24]
        if((GPIO_Init->Mode & RISING_EDGE) == RISING_EDGE)
 8001f28:	683b      	ldr	r3, [r7, #0]
 8001f2a:	685b      	ldr	r3, [r3, #4]
 8001f2c:	f403 1380 	and.w	r3, r3, #1048576	; 0x100000
 8001f30:	2b00      	cmp	r3, #0
 8001f32:	d003      	beq.n	8001f3c <HAL_GPIO_Init+0x568>
        {
          temp |= iocurrent;
 8001f34:	69ba      	ldr	r2, [r7, #24]
 8001f36:	693b      	ldr	r3, [r7, #16]
 8001f38:	4313      	orrs	r3, r2
 8001f3a:	61bb      	str	r3, [r7, #24]
        }
        EXTI->RTSR = temp;
 8001f3c:	4a1a      	ldr	r2, [pc, #104]	; (8001fa8 <HAL_GPIO_Init+0x5d4>)
 8001f3e:	69bb      	ldr	r3, [r7, #24]
 8001f40:	6093      	str	r3, [r2, #8]

        temp = EXTI->FTSR;
 8001f42:	4b19      	ldr	r3, [pc, #100]	; (8001fa8 <HAL_GPIO_Init+0x5d4>)
 8001f44:	68db      	ldr	r3, [r3, #12]
 8001f46:	61bb      	str	r3, [r7, #24]
        temp &= ~((uint32_t)iocurrent);
 8001f48:	693b      	ldr	r3, [r7, #16]
 8001f4a:	43db      	mvns	r3, r3
 8001f4c:	69ba      	ldr	r2, [r7, #24]
 8001f4e:	4013      	ands	r3, r2
 8001f50:	61bb      	str	r3, [r7, #24]
        if((GPIO_Init->Mode & FALLING_EDGE) == FALLING_EDGE)
 8001f52:	683b      	ldr	r3, [r7, #0]
 8001f54:	685b      	ldr	r3, [r3, #4]
 8001f56:	f403 1300 	and.w	r3, r3, #2097152	; 0x200000
 8001f5a:	2b00      	cmp	r3, #0
 8001f5c:	d003      	beq.n	8001f66 <HAL_GPIO_Init+0x592>
        {
          temp |= iocurrent;
 8001f5e:	69ba      	ldr	r2, [r7, #24]
 8001f60:	693b      	ldr	r3, [r7, #16]
 8001f62:	4313      	orrs	r3, r2
 8001f64:	61bb      	str	r3, [r7, #24]
        }
        EXTI->FTSR = temp;
 8001f66:	4a10      	ldr	r2, [pc, #64]	; (8001fa8 <HAL_GPIO_Init+0x5d4>)
 8001f68:	69bb      	ldr	r3, [r7, #24]
 8001f6a:	60d3      	str	r3, [r2, #12]
  for(position = 0U; position < GPIO_NUMBER; position++)
 8001f6c:	69fb      	ldr	r3, [r7, #28]
 8001f6e:	3301      	adds	r3, #1
 8001f70:	61fb      	str	r3, [r7, #28]
 8001f72:	69fb      	ldr	r3, [r7, #28]
 8001f74:	2b0f      	cmp	r3, #15
 8001f76:	f67f addd 	bls.w	8001b34 <HAL_GPIO_Init+0x160>
      }
    }
  }
}
 8001f7a:	bf00      	nop
 8001f7c:	3720      	adds	r7, #32
 8001f7e:	46bd      	mov	sp, r7
 8001f80:	bd80      	pop	{r7, pc}
 8001f82:	bf00      	nop
 8001f84:	40013800 	.word	0x40013800
 8001f88:	40020000 	.word	0x40020000
 8001f8c:	40020400 	.word	0x40020400
 8001f90:	40020800 	.word	0x40020800
 8001f94:	40020c00 	.word	0x40020c00
 8001f98:	40021000 	.word	0x40021000
 8001f9c:	40021400 	.word	0x40021400
 8001fa0:	40021800 	.word	0x40021800
 8001fa4:	40021c00 	.word	0x40021c00
 8001fa8:	40013c00 	.word	0x40013c00

08001fac <HAL_GPIO_WritePin>:
  *            @arg GPIO_PIN_RESET: to clear the port pin
  *            @arg GPIO_PIN_SET: to set the port pin
  * @retval None
  */
void HAL_GPIO_WritePin(GPIO_TypeDef* GPIOx, uint16_t GPIO_Pin, GPIO_PinState PinState)
{
 8001fac:	b580      	push	{r7, lr}
 8001fae:	b082      	sub	sp, #8
 8001fb0:	af00      	add	r7, sp, #0
 8001fb2:	6078      	str	r0, [r7, #4]
 8001fb4:	460b      	mov	r3, r1
 8001fb6:	807b      	strh	r3, [r7, #2]
 8001fb8:	4613      	mov	r3, r2
 8001fba:	707b      	strb	r3, [r7, #1]
  /* Check the parameters */
  assert_param(IS_GPIO_PIN(GPIO_Pin));
 8001fbc:	887b      	ldrh	r3, [r7, #2]
 8001fbe:	2b00      	cmp	r3, #0
 8001fc0:	d004      	beq.n	8001fcc <HAL_GPIO_WritePin+0x20>
 8001fc2:	887b      	ldrh	r3, [r7, #2]
 8001fc4:	0c1b      	lsrs	r3, r3, #16
 8001fc6:	041b      	lsls	r3, r3, #16
 8001fc8:	2b00      	cmp	r3, #0
 8001fca:	d004      	beq.n	8001fd6 <HAL_GPIO_WritePin+0x2a>
 8001fcc:	f240 119f 	movw	r1, #415	; 0x19f
 8001fd0:	480e      	ldr	r0, [pc, #56]	; (800200c <HAL_GPIO_WritePin+0x60>)
 8001fd2:	f7ff f9e6 	bl	80013a2 <assert_failed>
  assert_param(IS_GPIO_PIN_ACTION(PinState));
 8001fd6:	787b      	ldrb	r3, [r7, #1]
 8001fd8:	2b00      	cmp	r3, #0
 8001fda:	d007      	beq.n	8001fec <HAL_GPIO_WritePin+0x40>
 8001fdc:	787b      	ldrb	r3, [r7, #1]
 8001fde:	2b01      	cmp	r3, #1
 8001fe0:	d004      	beq.n	8001fec <HAL_GPIO_WritePin+0x40>
 8001fe2:	f44f 71d0 	mov.w	r1, #416	; 0x1a0
 8001fe6:	4809      	ldr	r0, [pc, #36]	; (800200c <HAL_GPIO_WritePin+0x60>)
 8001fe8:	f7ff f9db 	bl	80013a2 <assert_failed>

  if(PinState != GPIO_PIN_RESET)
 8001fec:	787b      	ldrb	r3, [r7, #1]
 8001fee:	2b00      	cmp	r3, #0
 8001ff0:	d003      	beq.n	8001ffa <HAL_GPIO_WritePin+0x4e>
  {
    GPIOx->BSRR = GPIO_Pin;
 8001ff2:	887a      	ldrh	r2, [r7, #2]
 8001ff4:	687b      	ldr	r3, [r7, #4]
 8001ff6:	619a      	str	r2, [r3, #24]
  }
  else
  {
    GPIOx->BSRR = (uint32_t)GPIO_Pin << 16U;
  }
}
 8001ff8:	e003      	b.n	8002002 <HAL_GPIO_WritePin+0x56>
    GPIOx->BSRR = (uint32_t)GPIO_Pin << 16U;
 8001ffa:	887b      	ldrh	r3, [r7, #2]
 8001ffc:	041a      	lsls	r2, r3, #16
 8001ffe:	687b      	ldr	r3, [r7, #4]
 8002000:	619a      	str	r2, [r3, #24]
}
 8002002:	bf00      	nop
 8002004:	3708      	adds	r7, #8
 8002006:	46bd      	mov	sp, r7
 8002008:	bd80      	pop	{r7, pc}
 800200a:	bf00      	nop
 800200c:	0800db04 	.word	0x0800db04

08002010 <HAL_GPIO_TogglePin>:
  *                      x can be (A..I) to select the GPIO peripheral for STM32F40XX and STM32F427X devices.
  * @param  GPIO_Pin Specifies the pins to be toggled.
  * @retval None
  */
void HAL_GPIO_TogglePin(GPIO_TypeDef* GPIOx, uint16_t GPIO_Pin)
{
 8002010:	b580      	push	{r7, lr}
 8002012:	b082      	sub	sp, #8
 8002014:	af00      	add	r7, sp, #0
 8002016:	6078      	str	r0, [r7, #4]
 8002018:	460b      	mov	r3, r1
 800201a:	807b      	strh	r3, [r7, #2]
  /* Check the parameters */
  assert_param(IS_GPIO_PIN(GPIO_Pin));
 800201c:	887b      	ldrh	r3, [r7, #2]
 800201e:	2b00      	cmp	r3, #0
 8002020:	d004      	beq.n	800202c <HAL_GPIO_TogglePin+0x1c>
 8002022:	887b      	ldrh	r3, [r7, #2]
 8002024:	0c1b      	lsrs	r3, r3, #16
 8002026:	041b      	lsls	r3, r3, #16
 8002028:	2b00      	cmp	r3, #0
 800202a:	d004      	beq.n	8002036 <HAL_GPIO_TogglePin+0x26>
 800202c:	f44f 71db 	mov.w	r1, #438	; 0x1b6
 8002030:	480a      	ldr	r0, [pc, #40]	; (800205c <HAL_GPIO_TogglePin+0x4c>)
 8002032:	f7ff f9b6 	bl	80013a2 <assert_failed>

  if ((GPIOx->ODR & GPIO_Pin) == GPIO_Pin)
 8002036:	687b      	ldr	r3, [r7, #4]
 8002038:	695a      	ldr	r2, [r3, #20]
 800203a:	887b      	ldrh	r3, [r7, #2]
 800203c:	401a      	ands	r2, r3
 800203e:	887b      	ldrh	r3, [r7, #2]
 8002040:	429a      	cmp	r2, r3
 8002042:	d104      	bne.n	800204e <HAL_GPIO_TogglePin+0x3e>
  {
    GPIOx->BSRR = (uint32_t)GPIO_Pin << GPIO_NUMBER;
 8002044:	887b      	ldrh	r3, [r7, #2]
 8002046:	041a      	lsls	r2, r3, #16
 8002048:	687b      	ldr	r3, [r7, #4]
 800204a:	619a      	str	r2, [r3, #24]
  }
  else
  {
    GPIOx->BSRR = GPIO_Pin;
  }
}
 800204c:	e002      	b.n	8002054 <HAL_GPIO_TogglePin+0x44>
    GPIOx->BSRR = GPIO_Pin;
 800204e:	887a      	ldrh	r2, [r7, #2]
 8002050:	687b      	ldr	r3, [r7, #4]
 8002052:	619a      	str	r2, [r3, #24]
}
 8002054:	bf00      	nop
 8002056:	3708      	adds	r7, #8
 8002058:	46bd      	mov	sp, r7
 800205a:	bd80      	pop	{r7, pc}
 800205c:	0800db04 	.word	0x0800db04

08002060 <HAL_PCD_Init>:
  *         parameters in the PCD_InitTypeDef and initialize the associated handle.
  * @param  hpcd PCD handle
  * @retval HAL status
  */
HAL_StatusTypeDef HAL_PCD_Init(PCD_HandleTypeDef *hpcd)
{
 8002060:	b5f0      	push	{r4, r5, r6, r7, lr}
 8002062:	b08f      	sub	sp, #60	; 0x3c
 8002064:	af0a      	add	r7, sp, #40	; 0x28
 8002066:	6078      	str	r0, [r7, #4]
  USB_OTG_GlobalTypeDef *USBx;
  uint8_t i;

  /* Check the PCD handle allocation */
  if (hpcd == NULL)
 8002068:	687b      	ldr	r3, [r7, #4]
 800206a:	2b00      	cmp	r3, #0
 800206c:	d101      	bne.n	8002072 <HAL_PCD_Init+0x12>
  {
    return HAL_ERROR;
 800206e:	2301      	movs	r3, #1
 8002070:	e11d      	b.n	80022ae <HAL_PCD_Init+0x24e>
  }

  /* Check the parameters */
  assert_param(IS_PCD_ALL_INSTANCE(hpcd->Instance));
 8002072:	687b      	ldr	r3, [r7, #4]
 8002074:	681b      	ldr	r3, [r3, #0]
 8002076:	f1b3 4fa0 	cmp.w	r3, #1342177280	; 0x50000000
 800207a:	d008      	beq.n	800208e <HAL_PCD_Init+0x2e>
 800207c:	687b      	ldr	r3, [r7, #4]
 800207e:	681b      	ldr	r3, [r3, #0]
 8002080:	4a8d      	ldr	r2, [pc, #564]	; (80022b8 <HAL_PCD_Init+0x258>)
 8002082:	4293      	cmp	r3, r2
 8002084:	d003      	beq.n	800208e <HAL_PCD_Init+0x2e>
 8002086:	2187      	movs	r1, #135	; 0x87
 8002088:	488c      	ldr	r0, [pc, #560]	; (80022bc <HAL_PCD_Init+0x25c>)
 800208a:	f7ff f98a 	bl	80013a2 <assert_failed>

  USBx = hpcd->Instance;
 800208e:	687b      	ldr	r3, [r7, #4]
 8002090:	681b      	ldr	r3, [r3, #0]
 8002092:	60bb      	str	r3, [r7, #8]

  if (hpcd->State == HAL_PCD_STATE_RESET)
 8002094:	687b      	ldr	r3, [r7, #4]
 8002096:	f893 33bd 	ldrb.w	r3, [r3, #957]	; 0x3bd
 800209a:	b2db      	uxtb	r3, r3
 800209c:	2b00      	cmp	r3, #0
 800209e:	d106      	bne.n	80020ae <HAL_PCD_Init+0x4e>
  {
    /* Allocate lock resource and initialize it */
    hpcd->Lock = HAL_UNLOCKED;
 80020a0:	687b      	ldr	r3, [r7, #4]
 80020a2:	2200      	movs	r2, #0
 80020a4:	f883 23bc 	strb.w	r2, [r3, #956]	; 0x3bc

    /* Init the low level hardware */
    hpcd->MspInitCallback(hpcd);
#else
    /* Init the low level hardware : GPIO, CLOCK, NVIC... */
    HAL_PCD_MspInit(hpcd);
 80020a8:	6878      	ldr	r0, [r7, #4]
 80020aa:	f009 f993 	bl	800b3d4 <HAL_PCD_MspInit>
#endif /* (USE_HAL_PCD_REGISTER_CALLBACKS) */
  }

  hpcd->State = HAL_PCD_STATE_BUSY;
 80020ae:	687b      	ldr	r3, [r7, #4]
 80020b0:	2203      	movs	r2, #3
 80020b2:	f883 23bd 	strb.w	r2, [r3, #957]	; 0x3bd

  /* Disable DMA mode for FS instance */
  if ((USBx->CID & (0x1U << 8)) == 0U)
 80020b6:	68bb      	ldr	r3, [r7, #8]
 80020b8:	6bdb      	ldr	r3, [r3, #60]	; 0x3c
 80020ba:	f403 7380 	and.w	r3, r3, #256	; 0x100
 80020be:	2b00      	cmp	r3, #0
 80020c0:	d102      	bne.n	80020c8 <HAL_PCD_Init+0x68>
  {
    hpcd->Init.dma_enable = 0U;
 80020c2:	687b      	ldr	r3, [r7, #4]
 80020c4:	2200      	movs	r2, #0
 80020c6:	611a      	str	r2, [r3, #16]
  }

  /* Disable the Interrupts */
  __HAL_PCD_DISABLE(hpcd);
 80020c8:	687b      	ldr	r3, [r7, #4]
 80020ca:	681b      	ldr	r3, [r3, #0]
 80020cc:	4618      	mov	r0, r3
 80020ce:	f003 f968 	bl	80053a2 <USB_DisableGlobalInt>

  /*Init the Core (common init.) */
  if (USB_CoreInit(hpcd->Instance, hpcd->Init) != HAL_OK)
 80020d2:	687b      	ldr	r3, [r7, #4]
 80020d4:	681b      	ldr	r3, [r3, #0]
 80020d6:	603b      	str	r3, [r7, #0]
 80020d8:	687e      	ldr	r6, [r7, #4]
 80020da:	466d      	mov	r5, sp
 80020dc:	f106 0410 	add.w	r4, r6, #16
 80020e0:	cc0f      	ldmia	r4!, {r0, r1, r2, r3}
 80020e2:	c50f      	stmia	r5!, {r0, r1, r2, r3}
 80020e4:	cc0f      	ldmia	r4!, {r0, r1, r2, r3}
 80020e6:	c50f      	stmia	r5!, {r0, r1, r2, r3}
 80020e8:	e894 0003 	ldmia.w	r4, {r0, r1}
 80020ec:	e885 0003 	stmia.w	r5, {r0, r1}
 80020f0:	1d33      	adds	r3, r6, #4
 80020f2:	cb0e      	ldmia	r3, {r1, r2, r3}
 80020f4:	6838      	ldr	r0, [r7, #0]
 80020f6:	f003 f83f 	bl	8005178 <USB_CoreInit>
 80020fa:	4603      	mov	r3, r0
 80020fc:	2b00      	cmp	r3, #0
 80020fe:	d005      	beq.n	800210c <HAL_PCD_Init+0xac>
  {
    hpcd->State = HAL_PCD_STATE_ERROR;
 8002100:	687b      	ldr	r3, [r7, #4]
 8002102:	2202      	movs	r2, #2
 8002104:	f883 23bd 	strb.w	r2, [r3, #957]	; 0x3bd
    return HAL_ERROR;
 8002108:	2301      	movs	r3, #1
 800210a:	e0d0      	b.n	80022ae <HAL_PCD_Init+0x24e>
  }

  /* Force Device Mode*/
  (void)USB_SetCurrentMode(hpcd->Instance, USB_DEVICE_MODE);
 800210c:	687b      	ldr	r3, [r7, #4]
 800210e:	681b      	ldr	r3, [r3, #0]
 8002110:	2100      	movs	r1, #0
 8002112:	4618      	mov	r0, r3
 8002114:	f003 f956 	bl	80053c4 <USB_SetCurrentMode>

  /* Init endpoints structures */
  for (i = 0U; i < hpcd->Init.dev_endpoints; i++)
 8002118:	2300      	movs	r3, #0
 800211a:	73fb      	strb	r3, [r7, #15]
 800211c:	e04a      	b.n	80021b4 <HAL_PCD_Init+0x154>
  {
    /* Init ep structure */
    hpcd->IN_ep[i].is_in = 1U;
 800211e:	7bfa      	ldrb	r2, [r7, #15]
 8002120:	6879      	ldr	r1, [r7, #4]
 8002122:	4613      	mov	r3, r2
 8002124:	00db      	lsls	r3, r3, #3
 8002126:	1a9b      	subs	r3, r3, r2
 8002128:	009b      	lsls	r3, r3, #2
 800212a:	440b      	add	r3, r1
 800212c:	333d      	adds	r3, #61	; 0x3d
 800212e:	2201      	movs	r2, #1
 8002130:	701a      	strb	r2, [r3, #0]
    hpcd->IN_ep[i].num = i;
 8002132:	7bfa      	ldrb	r2, [r7, #15]
 8002134:	6879      	ldr	r1, [r7, #4]
 8002136:	4613      	mov	r3, r2
 8002138:	00db      	lsls	r3, r3, #3
 800213a:	1a9b      	subs	r3, r3, r2
 800213c:	009b      	lsls	r3, r3, #2
 800213e:	440b      	add	r3, r1
 8002140:	333c      	adds	r3, #60	; 0x3c
 8002142:	7bfa      	ldrb	r2, [r7, #15]
 8002144:	701a      	strb	r2, [r3, #0]
    hpcd->IN_ep[i].tx_fifo_num = i;
 8002146:	7bfa      	ldrb	r2, [r7, #15]
 8002148:	7bfb      	ldrb	r3, [r7, #15]
 800214a:	b298      	uxth	r0, r3
 800214c:	6879      	ldr	r1, [r7, #4]
 800214e:	4613      	mov	r3, r2
 8002150:	00db      	lsls	r3, r3, #3
 8002152:	1a9b      	subs	r3, r3, r2
 8002154:	009b      	lsls	r3, r3, #2
 8002156:	440b      	add	r3, r1
 8002158:	3342      	adds	r3, #66	; 0x42
 800215a:	4602      	mov	r2, r0
 800215c:	801a      	strh	r2, [r3, #0]
    /* Control until ep is activated */
    hpcd->IN_ep[i].type = EP_TYPE_CTRL;
 800215e:	7bfa      	ldrb	r2, [r7, #15]
 8002160:	6879      	ldr	r1, [r7, #4]
 8002162:	4613      	mov	r3, r2
 8002164:	00db      	lsls	r3, r3, #3
 8002166:	1a9b      	subs	r3, r3, r2
 8002168:	009b      	lsls	r3, r3, #2
 800216a:	440b      	add	r3, r1
 800216c:	333f      	adds	r3, #63	; 0x3f
 800216e:	2200      	movs	r2, #0
 8002170:	701a      	strb	r2, [r3, #0]
    hpcd->IN_ep[i].maxpacket = 0U;
 8002172:	7bfa      	ldrb	r2, [r7, #15]
 8002174:	6879      	ldr	r1, [r7, #4]
 8002176:	4613      	mov	r3, r2
 8002178:	00db      	lsls	r3, r3, #3
 800217a:	1a9b      	subs	r3, r3, r2
 800217c:	009b      	lsls	r3, r3, #2
 800217e:	440b      	add	r3, r1
 8002180:	3344      	adds	r3, #68	; 0x44
 8002182:	2200      	movs	r2, #0
 8002184:	601a      	str	r2, [r3, #0]
    hpcd->IN_ep[i].xfer_buff = 0U;
 8002186:	7bfa      	ldrb	r2, [r7, #15]
 8002188:	6879      	ldr	r1, [r7, #4]
 800218a:	4613      	mov	r3, r2
 800218c:	00db      	lsls	r3, r3, #3
 800218e:	1a9b      	subs	r3, r3, r2
 8002190:	009b      	lsls	r3, r3, #2
 8002192:	440b      	add	r3, r1
 8002194:	3348      	adds	r3, #72	; 0x48
 8002196:	2200      	movs	r2, #0
 8002198:	601a      	str	r2, [r3, #0]
    hpcd->IN_ep[i].xfer_len = 0U;
 800219a:	7bfa      	ldrb	r2, [r7, #15]
 800219c:	6879      	ldr	r1, [r7, #4]
 800219e:	4613      	mov	r3, r2
 80021a0:	00db      	lsls	r3, r3, #3
 80021a2:	1a9b      	subs	r3, r3, r2
 80021a4:	009b      	lsls	r3, r3, #2
 80021a6:	440b      	add	r3, r1
 80021a8:	3350      	adds	r3, #80	; 0x50
 80021aa:	2200      	movs	r2, #0
 80021ac:	601a      	str	r2, [r3, #0]
  for (i = 0U; i < hpcd->Init.dev_endpoints; i++)
 80021ae:	7bfb      	ldrb	r3, [r7, #15]
 80021b0:	3301      	adds	r3, #1
 80021b2:	73fb      	strb	r3, [r7, #15]
 80021b4:	7bfa      	ldrb	r2, [r7, #15]
 80021b6:	687b      	ldr	r3, [r7, #4]
 80021b8:	685b      	ldr	r3, [r3, #4]
 80021ba:	429a      	cmp	r2, r3
 80021bc:	d3af      	bcc.n	800211e <HAL_PCD_Init+0xbe>
  }

  for (i = 0U; i < hpcd->Init.dev_endpoints; i++)
 80021be:	2300      	movs	r3, #0
 80021c0:	73fb      	strb	r3, [r7, #15]
 80021c2:	e044      	b.n	800224e <HAL_PCD_Init+0x1ee>
  {
    hpcd->OUT_ep[i].is_in = 0U;
 80021c4:	7bfa      	ldrb	r2, [r7, #15]
 80021c6:	6879      	ldr	r1, [r7, #4]
 80021c8:	4613      	mov	r3, r2
 80021ca:	00db      	lsls	r3, r3, #3
 80021cc:	1a9b      	subs	r3, r3, r2
 80021ce:	009b      	lsls	r3, r3, #2
 80021d0:	440b      	add	r3, r1
 80021d2:	f203 13fd 	addw	r3, r3, #509	; 0x1fd
 80021d6:	2200      	movs	r2, #0
 80021d8:	701a      	strb	r2, [r3, #0]
    hpcd->OUT_ep[i].num = i;
 80021da:	7bfa      	ldrb	r2, [r7, #15]
 80021dc:	6879      	ldr	r1, [r7, #4]
 80021de:	4613      	mov	r3, r2
 80021e0:	00db      	lsls	r3, r3, #3
 80021e2:	1a9b      	subs	r3, r3, r2
 80021e4:	009b      	lsls	r3, r3, #2
 80021e6:	440b      	add	r3, r1
 80021e8:	f503 73fe 	add.w	r3, r3, #508	; 0x1fc
 80021ec:	7bfa      	ldrb	r2, [r7, #15]
 80021ee:	701a      	strb	r2, [r3, #0]
    /* Control until ep is activated */
    hpcd->OUT_ep[i].type = EP_TYPE_CTRL;
 80021f0:	7bfa      	ldrb	r2, [r7, #15]
 80021f2:	6879      	ldr	r1, [r7, #4]
 80021f4:	4613      	mov	r3, r2
 80021f6:	00db      	lsls	r3, r3, #3
 80021f8:	1a9b      	subs	r3, r3, r2
 80021fa:	009b      	lsls	r3, r3, #2
 80021fc:	440b      	add	r3, r1
 80021fe:	f203 13ff 	addw	r3, r3, #511	; 0x1ff
 8002202:	2200      	movs	r2, #0
 8002204:	701a      	strb	r2, [r3, #0]
    hpcd->OUT_ep[i].maxpacket = 0U;
 8002206:	7bfa      	ldrb	r2, [r7, #15]
 8002208:	6879      	ldr	r1, [r7, #4]
 800220a:	4613      	mov	r3, r2
 800220c:	00db      	lsls	r3, r3, #3
 800220e:	1a9b      	subs	r3, r3, r2
 8002210:	009b      	lsls	r3, r3, #2
 8002212:	440b      	add	r3, r1
 8002214:	f503 7301 	add.w	r3, r3, #516	; 0x204
 8002218:	2200      	movs	r2, #0
 800221a:	601a      	str	r2, [r3, #0]
    hpcd->OUT_ep[i].xfer_buff = 0U;
 800221c:	7bfa      	ldrb	r2, [r7, #15]
 800221e:	6879      	ldr	r1, [r7, #4]
 8002220:	4613      	mov	r3, r2
 8002222:	00db      	lsls	r3, r3, #3
 8002224:	1a9b      	subs	r3, r3, r2
 8002226:	009b      	lsls	r3, r3, #2
 8002228:	440b      	add	r3, r1
 800222a:	f503 7302 	add.w	r3, r3, #520	; 0x208
 800222e:	2200      	movs	r2, #0
 8002230:	601a      	str	r2, [r3, #0]
    hpcd->OUT_ep[i].xfer_len = 0U;
 8002232:	7bfa      	ldrb	r2, [r7, #15]
 8002234:	6879      	ldr	r1, [r7, #4]
 8002236:	4613      	mov	r3, r2
 8002238:	00db      	lsls	r3, r3, #3
 800223a:	1a9b      	subs	r3, r3, r2
 800223c:	009b      	lsls	r3, r3, #2
 800223e:	440b      	add	r3, r1
 8002240:	f503 7304 	add.w	r3, r3, #528	; 0x210
 8002244:	2200      	movs	r2, #0
 8002246:	601a      	str	r2, [r3, #0]
  for (i = 0U; i < hpcd->Init.dev_endpoints; i++)
 8002248:	7bfb      	ldrb	r3, [r7, #15]
 800224a:	3301      	adds	r3, #1
 800224c:	73fb      	strb	r3, [r7, #15]
 800224e:	7bfa      	ldrb	r2, [r7, #15]
 8002250:	687b      	ldr	r3, [r7, #4]
 8002252:	685b      	ldr	r3, [r3, #4]
 8002254:	429a      	cmp	r2, r3
 8002256:	d3b5      	bcc.n	80021c4 <HAL_PCD_Init+0x164>
  }

  /* Init Device */
  if (USB_DevInit(hpcd->Instance, hpcd->Init) != HAL_OK)
 8002258:	687b      	ldr	r3, [r7, #4]
 800225a:	681b      	ldr	r3, [r3, #0]
 800225c:	603b      	str	r3, [r7, #0]
 800225e:	687e      	ldr	r6, [r7, #4]
 8002260:	466d      	mov	r5, sp
 8002262:	f106 0410 	add.w	r4, r6, #16
 8002266:	cc0f      	ldmia	r4!, {r0, r1, r2, r3}
 8002268:	c50f      	stmia	r5!, {r0, r1, r2, r3}
 800226a:	cc0f      	ldmia	r4!, {r0, r1, r2, r3}
 800226c:	c50f      	stmia	r5!, {r0, r1, r2, r3}
 800226e:	e894 0003 	ldmia.w	r4, {r0, r1}
 8002272:	e885 0003 	stmia.w	r5, {r0, r1}
 8002276:	1d33      	adds	r3, r6, #4
 8002278:	cb0e      	ldmia	r3, {r1, r2, r3}
 800227a:	6838      	ldr	r0, [r7, #0]
 800227c:	f003 f8cc 	bl	8005418 <USB_DevInit>
 8002280:	4603      	mov	r3, r0
 8002282:	2b00      	cmp	r3, #0
 8002284:	d005      	beq.n	8002292 <HAL_PCD_Init+0x232>
  {
    hpcd->State = HAL_PCD_STATE_ERROR;
 8002286:	687b      	ldr	r3, [r7, #4]
 8002288:	2202      	movs	r2, #2
 800228a:	f883 23bd 	strb.w	r2, [r3, #957]	; 0x3bd
    return HAL_ERROR;
 800228e:	2301      	movs	r3, #1
 8002290:	e00d      	b.n	80022ae <HAL_PCD_Init+0x24e>
  }

  hpcd->USB_Address = 0U;
 8002292:	687b      	ldr	r3, [r7, #4]
 8002294:	2200      	movs	r2, #0
 8002296:	f883 2038 	strb.w	r2, [r3, #56]	; 0x38
  hpcd->State = HAL_PCD_STATE_READY;
 800229a:	687b      	ldr	r3, [r7, #4]
 800229c:	2201      	movs	r2, #1
 800229e:	f883 23bd 	strb.w	r2, [r3, #957]	; 0x3bd
  if (hpcd->Init.lpm_enable == 1U)
  {
    (void)HAL_PCDEx_ActivateLPM(hpcd);
  }
#endif /* defined(STM32F446xx) || defined(STM32F469xx) || defined(STM32F479xx) || defined(STM32F412Zx) || defined(STM32F412Vx) || defined(STM32F412Rx) || defined(STM32F412Cx) || defined(STM32F413xx) || defined(STM32F423xx) */
  (void)USB_DevDisconnect(hpcd->Instance);
 80022a2:	687b      	ldr	r3, [r7, #4]
 80022a4:	681b      	ldr	r3, [r3, #0]
 80022a6:	4618      	mov	r0, r3
 80022a8:	f004 f914 	bl	80064d4 <USB_DevDisconnect>

  return HAL_OK;
 80022ac:	2300      	movs	r3, #0
}
 80022ae:	4618      	mov	r0, r3
 80022b0:	3714      	adds	r7, #20
 80022b2:	46bd      	mov	sp, r7
 80022b4:	bdf0      	pop	{r4, r5, r6, r7, pc}
 80022b6:	bf00      	nop
 80022b8:	40040000 	.word	0x40040000
 80022bc:	0800db40 	.word	0x0800db40

080022c0 <HAL_PCD_Start>:
  * @brief  Start the USB device
  * @param  hpcd PCD handle
  * @retval HAL status
  */
HAL_StatusTypeDef HAL_PCD_Start(PCD_HandleTypeDef *hpcd)
{
 80022c0:	b580      	push	{r7, lr}
 80022c2:	b084      	sub	sp, #16
 80022c4:	af00      	add	r7, sp, #0
 80022c6:	6078      	str	r0, [r7, #4]
  USB_OTG_GlobalTypeDef *USBx = hpcd->Instance;
 80022c8:	687b      	ldr	r3, [r7, #4]
 80022ca:	681b      	ldr	r3, [r3, #0]
 80022cc:	60fb      	str	r3, [r7, #12]

  __HAL_LOCK(hpcd);
 80022ce:	687b      	ldr	r3, [r7, #4]
 80022d0:	f893 33bc 	ldrb.w	r3, [r3, #956]	; 0x3bc
 80022d4:	2b01      	cmp	r3, #1
 80022d6:	d101      	bne.n	80022dc <HAL_PCD_Start+0x1c>
 80022d8:	2302      	movs	r3, #2
 80022da:	e020      	b.n	800231e <HAL_PCD_Start+0x5e>
 80022dc:	687b      	ldr	r3, [r7, #4]
 80022de:	2201      	movs	r2, #1
 80022e0:	f883 23bc 	strb.w	r2, [r3, #956]	; 0x3bc

  if ((hpcd->Init.battery_charging_enable == 1U) &&
 80022e4:	687b      	ldr	r3, [r7, #4]
 80022e6:	6a9b      	ldr	r3, [r3, #40]	; 0x28
 80022e8:	2b01      	cmp	r3, #1
 80022ea:	d109      	bne.n	8002300 <HAL_PCD_Start+0x40>
      (hpcd->Init.phy_itface != USB_OTG_ULPI_PHY))
 80022ec:	687b      	ldr	r3, [r7, #4]
 80022ee:	699b      	ldr	r3, [r3, #24]
  if ((hpcd->Init.battery_charging_enable == 1U) &&
 80022f0:	2b01      	cmp	r3, #1
 80022f2:	d005      	beq.n	8002300 <HAL_PCD_Start+0x40>
  {
    /* Enable USB Transceiver */
    USBx->GCCFG |= USB_OTG_GCCFG_PWRDWN;
 80022f4:	68fb      	ldr	r3, [r7, #12]
 80022f6:	6b9b      	ldr	r3, [r3, #56]	; 0x38
 80022f8:	f443 3280 	orr.w	r2, r3, #65536	; 0x10000
 80022fc:	68fb      	ldr	r3, [r7, #12]
 80022fe:	639a      	str	r2, [r3, #56]	; 0x38
  }

  __HAL_PCD_ENABLE(hpcd);
 8002300:	687b      	ldr	r3, [r7, #4]
 8002302:	681b      	ldr	r3, [r3, #0]
 8002304:	4618      	mov	r0, r3
 8002306:	f003 f83b 	bl	8005380 <USB_EnableGlobalInt>
  (void)USB_DevConnect(hpcd->Instance);
 800230a:	687b      	ldr	r3, [r7, #4]
 800230c:	681b      	ldr	r3, [r3, #0]
 800230e:	4618      	mov	r0, r3
 8002310:	f004 f8bf 	bl	8006492 <USB_DevConnect>
  __HAL_UNLOCK(hpcd);
 8002314:	687b      	ldr	r3, [r7, #4]
 8002316:	2200      	movs	r2, #0
 8002318:	f883 23bc 	strb.w	r2, [r3, #956]	; 0x3bc

  return HAL_OK;
 800231c:	2300      	movs	r3, #0
}
 800231e:	4618      	mov	r0, r3
 8002320:	3710      	adds	r7, #16
 8002322:	46bd      	mov	sp, r7
 8002324:	bd80      	pop	{r7, pc}

08002326 <HAL_PCD_IRQHandler>:
  * @brief  Handles PCD interrupt request.
  * @param  hpcd PCD handle
  * @retval HAL status
  */
void HAL_PCD_IRQHandler(PCD_HandleTypeDef *hpcd)
{
 8002326:	b590      	push	{r4, r7, lr}
 8002328:	b08d      	sub	sp, #52	; 0x34
 800232a:	af00      	add	r7, sp, #0
 800232c:	6078      	str	r0, [r7, #4]
  USB_OTG_GlobalTypeDef *USBx = hpcd->Instance;
 800232e:	687b      	ldr	r3, [r7, #4]
 8002330:	681b      	ldr	r3, [r3, #0]
 8002332:	623b      	str	r3, [r7, #32]
  uint32_t USBx_BASE = (uint32_t)USBx;
 8002334:	6a3b      	ldr	r3, [r7, #32]
 8002336:	61fb      	str	r3, [r7, #28]
  uint32_t i, ep_intr, epint, epnum;
  uint32_t fifoemptymsk, temp;
  USB_OTG_EPTypeDef *ep;

  /* ensure that we are in device mode */
  if (USB_GetMode(hpcd->Instance) == USB_OTG_MODE_DEVICE)
 8002338:	687b      	ldr	r3, [r7, #4]
 800233a:	681b      	ldr	r3, [r3, #0]
 800233c:	4618      	mov	r0, r3
 800233e:	f004 f97d 	bl	800663c <USB_GetMode>
 8002342:	4603      	mov	r3, r0
 8002344:	2b00      	cmp	r3, #0
 8002346:	f040 839d 	bne.w	8002a84 <HAL_PCD_IRQHandler+0x75e>
  {
    /* avoid spurious interrupt */
    if (__HAL_PCD_IS_INVALID_INTERRUPT(hpcd))
 800234a:	687b      	ldr	r3, [r7, #4]
 800234c:	681b      	ldr	r3, [r3, #0]
 800234e:	4618      	mov	r0, r3
 8002350:	f004 f8e1 	bl	8006516 <USB_ReadInterrupts>
 8002354:	4603      	mov	r3, r0
 8002356:	2b00      	cmp	r3, #0
 8002358:	f000 8393 	beq.w	8002a82 <HAL_PCD_IRQHandler+0x75c>
    {
      return;
    }

    if (__HAL_PCD_GET_FLAG(hpcd, USB_OTG_GINTSTS_MMIS))
 800235c:	687b      	ldr	r3, [r7, #4]
 800235e:	681b      	ldr	r3, [r3, #0]
 8002360:	4618      	mov	r0, r3
 8002362:	f004 f8d8 	bl	8006516 <USB_ReadInterrupts>
 8002366:	4603      	mov	r3, r0
 8002368:	f003 0302 	and.w	r3, r3, #2
 800236c:	2b02      	cmp	r3, #2
 800236e:	d107      	bne.n	8002380 <HAL_PCD_IRQHandler+0x5a>
    {
      /* incorrect mode, acknowledge the interrupt */
      __HAL_PCD_CLEAR_FLAG(hpcd, USB_OTG_GINTSTS_MMIS);
 8002370:	687b      	ldr	r3, [r7, #4]
 8002372:	681b      	ldr	r3, [r3, #0]
 8002374:	695a      	ldr	r2, [r3, #20]
 8002376:	687b      	ldr	r3, [r7, #4]
 8002378:	681b      	ldr	r3, [r3, #0]
 800237a:	f002 0202 	and.w	r2, r2, #2
 800237e:	615a      	str	r2, [r3, #20]
    }

    /* Handle RxQLevel Interrupt */
    if (__HAL_PCD_GET_FLAG(hpcd, USB_OTG_GINTSTS_RXFLVL))
 8002380:	687b      	ldr	r3, [r7, #4]
 8002382:	681b      	ldr	r3, [r3, #0]
 8002384:	4618      	mov	r0, r3
 8002386:	f004 f8c6 	bl	8006516 <USB_ReadInterrupts>
 800238a:	4603      	mov	r3, r0
 800238c:	f003 0310 	and.w	r3, r3, #16
 8002390:	2b10      	cmp	r3, #16
 8002392:	d161      	bne.n	8002458 <HAL_PCD_IRQHandler+0x132>
    {
      USB_MASK_INTERRUPT(hpcd->Instance, USB_OTG_GINTSTS_RXFLVL);
 8002394:	687b      	ldr	r3, [r7, #4]
 8002396:	681b      	ldr	r3, [r3, #0]
 8002398:	699a      	ldr	r2, [r3, #24]
 800239a:	687b      	ldr	r3, [r7, #4]
 800239c:	681b      	ldr	r3, [r3, #0]
 800239e:	f022 0210 	bic.w	r2, r2, #16
 80023a2:	619a      	str	r2, [r3, #24]

      temp = USBx->GRXSTSP;
 80023a4:	6a3b      	ldr	r3, [r7, #32]
 80023a6:	6a1b      	ldr	r3, [r3, #32]
 80023a8:	61bb      	str	r3, [r7, #24]

      ep = &hpcd->OUT_ep[temp & USB_OTG_GRXSTSP_EPNUM];
 80023aa:	69bb      	ldr	r3, [r7, #24]
 80023ac:	f003 020f 	and.w	r2, r3, #15
 80023b0:	4613      	mov	r3, r2
 80023b2:	00db      	lsls	r3, r3, #3
 80023b4:	1a9b      	subs	r3, r3, r2
 80023b6:	009b      	lsls	r3, r3, #2
 80023b8:	f503 73fc 	add.w	r3, r3, #504	; 0x1f8
 80023bc:	687a      	ldr	r2, [r7, #4]
 80023be:	4413      	add	r3, r2
 80023c0:	3304      	adds	r3, #4
 80023c2:	617b      	str	r3, [r7, #20]

      if (((temp & USB_OTG_GRXSTSP_PKTSTS) >> 17) ==  STS_DATA_UPDT)
 80023c4:	69bb      	ldr	r3, [r7, #24]
 80023c6:	0c5b      	lsrs	r3, r3, #17
 80023c8:	f003 030f 	and.w	r3, r3, #15
 80023cc:	2b02      	cmp	r3, #2
 80023ce:	d124      	bne.n	800241a <HAL_PCD_IRQHandler+0xf4>
      {
        if ((temp & USB_OTG_GRXSTSP_BCNT) != 0U)
 80023d0:	69ba      	ldr	r2, [r7, #24]
 80023d2:	f647 73f0 	movw	r3, #32752	; 0x7ff0
 80023d6:	4013      	ands	r3, r2
 80023d8:	2b00      	cmp	r3, #0
 80023da:	d035      	beq.n	8002448 <HAL_PCD_IRQHandler+0x122>
        {
          (void)USB_ReadPacket(USBx, ep->xfer_buff,
 80023dc:	697b      	ldr	r3, [r7, #20]
 80023de:	68d9      	ldr	r1, [r3, #12]
                               (uint16_t)((temp & USB_OTG_GRXSTSP_BCNT) >> 4));
 80023e0:	69bb      	ldr	r3, [r7, #24]
 80023e2:	091b      	lsrs	r3, r3, #4
 80023e4:	b29b      	uxth	r3, r3
          (void)USB_ReadPacket(USBx, ep->xfer_buff,
 80023e6:	f3c3 030a 	ubfx	r3, r3, #0, #11
 80023ea:	b29b      	uxth	r3, r3
 80023ec:	461a      	mov	r2, r3
 80023ee:	6a38      	ldr	r0, [r7, #32]
 80023f0:	f003 ff2c 	bl	800624c <USB_ReadPacket>

          ep->xfer_buff += (temp & USB_OTG_GRXSTSP_BCNT) >> 4;
 80023f4:	697b      	ldr	r3, [r7, #20]
 80023f6:	68da      	ldr	r2, [r3, #12]
 80023f8:	69bb      	ldr	r3, [r7, #24]
 80023fa:	091b      	lsrs	r3, r3, #4
 80023fc:	f3c3 030a 	ubfx	r3, r3, #0, #11
 8002400:	441a      	add	r2, r3
 8002402:	697b      	ldr	r3, [r7, #20]
 8002404:	60da      	str	r2, [r3, #12]
          ep->xfer_count += (temp & USB_OTG_GRXSTSP_BCNT) >> 4;
 8002406:	697b      	ldr	r3, [r7, #20]
 8002408:	699a      	ldr	r2, [r3, #24]
 800240a:	69bb      	ldr	r3, [r7, #24]
 800240c:	091b      	lsrs	r3, r3, #4
 800240e:	f3c3 030a 	ubfx	r3, r3, #0, #11
 8002412:	441a      	add	r2, r3
 8002414:	697b      	ldr	r3, [r7, #20]
 8002416:	619a      	str	r2, [r3, #24]
 8002418:	e016      	b.n	8002448 <HAL_PCD_IRQHandler+0x122>
        }
      }
      else if (((temp & USB_OTG_GRXSTSP_PKTSTS) >> 17) ==  STS_SETUP_UPDT)
 800241a:	69bb      	ldr	r3, [r7, #24]
 800241c:	0c5b      	lsrs	r3, r3, #17
 800241e:	f003 030f 	and.w	r3, r3, #15
 8002422:	2b06      	cmp	r3, #6
 8002424:	d110      	bne.n	8002448 <HAL_PCD_IRQHandler+0x122>
      {
        (void)USB_ReadPacket(USBx, (uint8_t *)hpcd->Setup, 8U);
 8002426:	687b      	ldr	r3, [r7, #4]
 8002428:	f503 7371 	add.w	r3, r3, #964	; 0x3c4
 800242c:	2208      	movs	r2, #8
 800242e:	4619      	mov	r1, r3
 8002430:	6a38      	ldr	r0, [r7, #32]
 8002432:	f003 ff0b 	bl	800624c <USB_ReadPacket>
        ep->xfer_count += (temp & USB_OTG_GRXSTSP_BCNT) >> 4;
 8002436:	697b      	ldr	r3, [r7, #20]
 8002438:	699a      	ldr	r2, [r3, #24]
 800243a:	69bb      	ldr	r3, [r7, #24]
 800243c:	091b      	lsrs	r3, r3, #4
 800243e:	f3c3 030a 	ubfx	r3, r3, #0, #11
 8002442:	441a      	add	r2, r3
 8002444:	697b      	ldr	r3, [r7, #20]
 8002446:	619a      	str	r2, [r3, #24]
      }
      else
      {
        /* ... */
      }
      USB_UNMASK_INTERRUPT(hpcd->Instance, USB_OTG_GINTSTS_RXFLVL);
 8002448:	687b      	ldr	r3, [r7, #4]
 800244a:	681b      	ldr	r3, [r3, #0]
 800244c:	699a      	ldr	r2, [r3, #24]
 800244e:	687b      	ldr	r3, [r7, #4]
 8002450:	681b      	ldr	r3, [r3, #0]
 8002452:	f042 0210 	orr.w	r2, r2, #16
 8002456:	619a      	str	r2, [r3, #24]
    }

    if (__HAL_PCD_GET_FLAG(hpcd, USB_OTG_GINTSTS_OEPINT))
 8002458:	687b      	ldr	r3, [r7, #4]
 800245a:	681b      	ldr	r3, [r3, #0]
 800245c:	4618      	mov	r0, r3
 800245e:	f004 f85a 	bl	8006516 <USB_ReadInterrupts>
 8002462:	4603      	mov	r3, r0
 8002464:	f403 2300 	and.w	r3, r3, #524288	; 0x80000
 8002468:	f5b3 2f00 	cmp.w	r3, #524288	; 0x80000
 800246c:	d16e      	bne.n	800254c <HAL_PCD_IRQHandler+0x226>
    {
      epnum = 0U;
 800246e:	2300      	movs	r3, #0
 8002470:	627b      	str	r3, [r7, #36]	; 0x24

      /* Read in the device interrupt bits */
      ep_intr = USB_ReadDevAllOutEpInterrupt(hpcd->Instance);
 8002472:	687b      	ldr	r3, [r7, #4]
 8002474:	681b      	ldr	r3, [r3, #0]
 8002476:	4618      	mov	r0, r3
 8002478:	f004 f860 	bl	800653c <USB_ReadDevAllOutEpInterrupt>
 800247c:	62b8      	str	r0, [r7, #40]	; 0x28

      while (ep_intr != 0U)
 800247e:	e062      	b.n	8002546 <HAL_PCD_IRQHandler+0x220>
      {
        if ((ep_intr & 0x1U) != 0U)
 8002480:	6abb      	ldr	r3, [r7, #40]	; 0x28
 8002482:	f003 0301 	and.w	r3, r3, #1
 8002486:	2b00      	cmp	r3, #0
 8002488:	d057      	beq.n	800253a <HAL_PCD_IRQHandler+0x214>
        {
          epint = USB_ReadDevOutEPInterrupt(hpcd->Instance, (uint8_t)epnum);
 800248a:	687b      	ldr	r3, [r7, #4]
 800248c:	681b      	ldr	r3, [r3, #0]
 800248e:	6a7a      	ldr	r2, [r7, #36]	; 0x24
 8002490:	b2d2      	uxtb	r2, r2
 8002492:	4611      	mov	r1, r2
 8002494:	4618      	mov	r0, r3
 8002496:	f004 f885 	bl	80065a4 <USB_ReadDevOutEPInterrupt>
 800249a:	6138      	str	r0, [r7, #16]

          if ((epint & USB_OTG_DOEPINT_XFRC) == USB_OTG_DOEPINT_XFRC)
 800249c:	693b      	ldr	r3, [r7, #16]
 800249e:	f003 0301 	and.w	r3, r3, #1
 80024a2:	2b00      	cmp	r3, #0
 80024a4:	d00c      	beq.n	80024c0 <HAL_PCD_IRQHandler+0x19a>
          {
            CLEAR_OUT_EP_INTR(epnum, USB_OTG_DOEPINT_XFRC);
 80024a6:	6a7b      	ldr	r3, [r7, #36]	; 0x24
 80024a8:	015a      	lsls	r2, r3, #5
 80024aa:	69fb      	ldr	r3, [r7, #28]
 80024ac:	4413      	add	r3, r2
 80024ae:	f503 6330 	add.w	r3, r3, #2816	; 0xb00
 80024b2:	461a      	mov	r2, r3
 80024b4:	2301      	movs	r3, #1
 80024b6:	6093      	str	r3, [r2, #8]
            (void)PCD_EP_OutXfrComplete_int(hpcd, epnum);
 80024b8:	6a79      	ldr	r1, [r7, #36]	; 0x24
 80024ba:	6878      	ldr	r0, [r7, #4]
 80024bc:	f000 fdb0 	bl	8003020 <PCD_EP_OutXfrComplete_int>
          }

          if ((epint & USB_OTG_DOEPINT_STUP) == USB_OTG_DOEPINT_STUP)
 80024c0:	693b      	ldr	r3, [r7, #16]
 80024c2:	f003 0308 	and.w	r3, r3, #8
 80024c6:	2b00      	cmp	r3, #0
 80024c8:	d00c      	beq.n	80024e4 <HAL_PCD_IRQHandler+0x1be>
          {
            CLEAR_OUT_EP_INTR(epnum, USB_OTG_DOEPINT_STUP);
 80024ca:	6a7b      	ldr	r3, [r7, #36]	; 0x24
 80024cc:	015a      	lsls	r2, r3, #5
 80024ce:	69fb      	ldr	r3, [r7, #28]
 80024d0:	4413      	add	r3, r2
 80024d2:	f503 6330 	add.w	r3, r3, #2816	; 0xb00
 80024d6:	461a      	mov	r2, r3
 80024d8:	2308      	movs	r3, #8
 80024da:	6093      	str	r3, [r2, #8]
            /* Class B setup phase done for previous decoded setup */
            (void)PCD_EP_OutSetupPacket_int(hpcd, epnum);
 80024dc:	6a79      	ldr	r1, [r7, #36]	; 0x24
 80024de:	6878      	ldr	r0, [r7, #4]
 80024e0:	f000 feaa 	bl	8003238 <PCD_EP_OutSetupPacket_int>
          }

          if ((epint & USB_OTG_DOEPINT_OTEPDIS) == USB_OTG_DOEPINT_OTEPDIS)
 80024e4:	693b      	ldr	r3, [r7, #16]
 80024e6:	f003 0310 	and.w	r3, r3, #16
 80024ea:	2b00      	cmp	r3, #0
 80024ec:	d008      	beq.n	8002500 <HAL_PCD_IRQHandler+0x1da>
          {
            CLEAR_OUT_EP_INTR(epnum, USB_OTG_DOEPINT_OTEPDIS);
 80024ee:	6a7b      	ldr	r3, [r7, #36]	; 0x24
 80024f0:	015a      	lsls	r2, r3, #5
 80024f2:	69fb      	ldr	r3, [r7, #28]
 80024f4:	4413      	add	r3, r2
 80024f6:	f503 6330 	add.w	r3, r3, #2816	; 0xb00
 80024fa:	461a      	mov	r2, r3
 80024fc:	2310      	movs	r3, #16
 80024fe:	6093      	str	r3, [r2, #8]
          }

          /* Clear Status Phase Received interrupt */
          if ((epint & USB_OTG_DOEPINT_OTEPSPR) == USB_OTG_DOEPINT_OTEPSPR)
 8002500:	693b      	ldr	r3, [r7, #16]
 8002502:	f003 0320 	and.w	r3, r3, #32
 8002506:	2b00      	cmp	r3, #0
 8002508:	d008      	beq.n	800251c <HAL_PCD_IRQHandler+0x1f6>
          {
            CLEAR_OUT_EP_INTR(epnum, USB_OTG_DOEPINT_OTEPSPR);
 800250a:	6a7b      	ldr	r3, [r7, #36]	; 0x24
 800250c:	015a      	lsls	r2, r3, #5
 800250e:	69fb      	ldr	r3, [r7, #28]
 8002510:	4413      	add	r3, r2
 8002512:	f503 6330 	add.w	r3, r3, #2816	; 0xb00
 8002516:	461a      	mov	r2, r3
 8002518:	2320      	movs	r3, #32
 800251a:	6093      	str	r3, [r2, #8]
          }

          /* Clear OUT NAK interrupt */
          if ((epint & USB_OTG_DOEPINT_NAK) == USB_OTG_DOEPINT_NAK)
 800251c:	693b      	ldr	r3, [r7, #16]
 800251e:	f403 5300 	and.w	r3, r3, #8192	; 0x2000
 8002522:	2b00      	cmp	r3, #0
 8002524:	d009      	beq.n	800253a <HAL_PCD_IRQHandler+0x214>
          {
            CLEAR_OUT_EP_INTR(epnum, USB_OTG_DOEPINT_NAK);
 8002526:	6a7b      	ldr	r3, [r7, #36]	; 0x24
 8002528:	015a      	lsls	r2, r3, #5
 800252a:	69fb      	ldr	r3, [r7, #28]
 800252c:	4413      	add	r3, r2
 800252e:	f503 6330 	add.w	r3, r3, #2816	; 0xb00
 8002532:	461a      	mov	r2, r3
 8002534:	f44f 5300 	mov.w	r3, #8192	; 0x2000
 8002538:	6093      	str	r3, [r2, #8]
          }
        }
        epnum++;
 800253a:	6a7b      	ldr	r3, [r7, #36]	; 0x24
 800253c:	3301      	adds	r3, #1
 800253e:	627b      	str	r3, [r7, #36]	; 0x24
        ep_intr >>= 1U;
 8002540:	6abb      	ldr	r3, [r7, #40]	; 0x28
 8002542:	085b      	lsrs	r3, r3, #1
 8002544:	62bb      	str	r3, [r7, #40]	; 0x28
      while (ep_intr != 0U)
 8002546:	6abb      	ldr	r3, [r7, #40]	; 0x28
 8002548:	2b00      	cmp	r3, #0
 800254a:	d199      	bne.n	8002480 <HAL_PCD_IRQHandler+0x15a>
      }
    }

    if (__HAL_PCD_GET_FLAG(hpcd, USB_OTG_GINTSTS_IEPINT))
 800254c:	687b      	ldr	r3, [r7, #4]
 800254e:	681b      	ldr	r3, [r3, #0]
 8002550:	4618      	mov	r0, r3
 8002552:	f003 ffe0 	bl	8006516 <USB_ReadInterrupts>
 8002556:	4603      	mov	r3, r0
 8002558:	f403 2380 	and.w	r3, r3, #262144	; 0x40000
 800255c:	f5b3 2f80 	cmp.w	r3, #262144	; 0x40000
 8002560:	f040 80c0 	bne.w	80026e4 <HAL_PCD_IRQHandler+0x3be>
    {
      /* Read in the device interrupt bits */
      ep_intr = USB_ReadDevAllInEpInterrupt(hpcd->Instance);
 8002564:	687b      	ldr	r3, [r7, #4]
 8002566:	681b      	ldr	r3, [r3, #0]
 8002568:	4618      	mov	r0, r3
 800256a:	f004 f801 	bl	8006570 <USB_ReadDevAllInEpInterrupt>
 800256e:	62b8      	str	r0, [r7, #40]	; 0x28

      epnum = 0U;
 8002570:	2300      	movs	r3, #0
 8002572:	627b      	str	r3, [r7, #36]	; 0x24

      while (ep_intr != 0U)
 8002574:	e0b2      	b.n	80026dc <HAL_PCD_IRQHandler+0x3b6>
      {
        if ((ep_intr & 0x1U) != 0U) /* In ITR */
 8002576:	6abb      	ldr	r3, [r7, #40]	; 0x28
 8002578:	f003 0301 	and.w	r3, r3, #1
 800257c:	2b00      	cmp	r3, #0
 800257e:	f000 80a7 	beq.w	80026d0 <HAL_PCD_IRQHandler+0x3aa>
        {
          epint = USB_ReadDevInEPInterrupt(hpcd->Instance, (uint8_t)epnum);
 8002582:	687b      	ldr	r3, [r7, #4]
 8002584:	681b      	ldr	r3, [r3, #0]
 8002586:	6a7a      	ldr	r2, [r7, #36]	; 0x24
 8002588:	b2d2      	uxtb	r2, r2
 800258a:	4611      	mov	r1, r2
 800258c:	4618      	mov	r0, r3
 800258e:	f004 f827 	bl	80065e0 <USB_ReadDevInEPInterrupt>
 8002592:	6138      	str	r0, [r7, #16]

          if ((epint & USB_OTG_DIEPINT_XFRC) == USB_OTG_DIEPINT_XFRC)
 8002594:	693b      	ldr	r3, [r7, #16]
 8002596:	f003 0301 	and.w	r3, r3, #1
 800259a:	2b00      	cmp	r3, #0
 800259c:	d057      	beq.n	800264e <HAL_PCD_IRQHandler+0x328>
          {
            fifoemptymsk = (uint32_t)(0x1UL << (epnum & EP_ADDR_MSK));
 800259e:	6a7b      	ldr	r3, [r7, #36]	; 0x24
 80025a0:	f003 030f 	and.w	r3, r3, #15
 80025a4:	2201      	movs	r2, #1
 80025a6:	fa02 f303 	lsl.w	r3, r2, r3
 80025aa:	60fb      	str	r3, [r7, #12]
            USBx_DEVICE->DIEPEMPMSK &= ~fifoemptymsk;
 80025ac:	69fb      	ldr	r3, [r7, #28]
 80025ae:	f503 6300 	add.w	r3, r3, #2048	; 0x800
 80025b2:	6b5a      	ldr	r2, [r3, #52]	; 0x34
 80025b4:	68fb      	ldr	r3, [r7, #12]
 80025b6:	43db      	mvns	r3, r3
 80025b8:	69f9      	ldr	r1, [r7, #28]
 80025ba:	f501 6100 	add.w	r1, r1, #2048	; 0x800
 80025be:	4013      	ands	r3, r2
 80025c0:	634b      	str	r3, [r1, #52]	; 0x34

            CLEAR_IN_EP_INTR(epnum, USB_OTG_DIEPINT_XFRC);
 80025c2:	6a7b      	ldr	r3, [r7, #36]	; 0x24
 80025c4:	015a      	lsls	r2, r3, #5
 80025c6:	69fb      	ldr	r3, [r7, #28]
 80025c8:	4413      	add	r3, r2
 80025ca:	f503 6310 	add.w	r3, r3, #2304	; 0x900
 80025ce:	461a      	mov	r2, r3
 80025d0:	2301      	movs	r3, #1
 80025d2:	6093      	str	r3, [r2, #8]

            if (hpcd->Init.dma_enable == 1U)
 80025d4:	687b      	ldr	r3, [r7, #4]
 80025d6:	691b      	ldr	r3, [r3, #16]
 80025d8:	2b01      	cmp	r3, #1
 80025da:	d132      	bne.n	8002642 <HAL_PCD_IRQHandler+0x31c>
            {
              hpcd->IN_ep[epnum].xfer_buff += hpcd->IN_ep[epnum].maxpacket;
 80025dc:	6879      	ldr	r1, [r7, #4]
 80025de:	6a7a      	ldr	r2, [r7, #36]	; 0x24
 80025e0:	4613      	mov	r3, r2
 80025e2:	00db      	lsls	r3, r3, #3
 80025e4:	1a9b      	subs	r3, r3, r2
 80025e6:	009b      	lsls	r3, r3, #2
 80025e8:	440b      	add	r3, r1
 80025ea:	3348      	adds	r3, #72	; 0x48
 80025ec:	6819      	ldr	r1, [r3, #0]
 80025ee:	6878      	ldr	r0, [r7, #4]
 80025f0:	6a7a      	ldr	r2, [r7, #36]	; 0x24
 80025f2:	4613      	mov	r3, r2
 80025f4:	00db      	lsls	r3, r3, #3
 80025f6:	1a9b      	subs	r3, r3, r2
 80025f8:	009b      	lsls	r3, r3, #2
 80025fa:	4403      	add	r3, r0
 80025fc:	3344      	adds	r3, #68	; 0x44
 80025fe:	681b      	ldr	r3, [r3, #0]
 8002600:	4419      	add	r1, r3
 8002602:	6878      	ldr	r0, [r7, #4]
 8002604:	6a7a      	ldr	r2, [r7, #36]	; 0x24
 8002606:	4613      	mov	r3, r2
 8002608:	00db      	lsls	r3, r3, #3
 800260a:	1a9b      	subs	r3, r3, r2
 800260c:	009b      	lsls	r3, r3, #2
 800260e:	4403      	add	r3, r0
 8002610:	3348      	adds	r3, #72	; 0x48
 8002612:	6019      	str	r1, [r3, #0]

              /* this is ZLP, so prepare EP0 for next setup */
              if ((epnum == 0U) && (hpcd->IN_ep[epnum].xfer_len == 0U))
 8002614:	6a7b      	ldr	r3, [r7, #36]	; 0x24
 8002616:	2b00      	cmp	r3, #0
 8002618:	d113      	bne.n	8002642 <HAL_PCD_IRQHandler+0x31c>
 800261a:	6879      	ldr	r1, [r7, #4]
 800261c:	6a7a      	ldr	r2, [r7, #36]	; 0x24
 800261e:	4613      	mov	r3, r2
 8002620:	00db      	lsls	r3, r3, #3
 8002622:	1a9b      	subs	r3, r3, r2
 8002624:	009b      	lsls	r3, r3, #2
 8002626:	440b      	add	r3, r1
 8002628:	3350      	adds	r3, #80	; 0x50
 800262a:	681b      	ldr	r3, [r3, #0]
 800262c:	2b00      	cmp	r3, #0
 800262e:	d108      	bne.n	8002642 <HAL_PCD_IRQHandler+0x31c>
              {
                /* prepare to rx more setup packets */
                (void)USB_EP0_OutStart(hpcd->Instance, 1U, (uint8_t *)hpcd->Setup);
 8002630:	687b      	ldr	r3, [r7, #4]
 8002632:	6818      	ldr	r0, [r3, #0]
 8002634:	687b      	ldr	r3, [r7, #4]
 8002636:	f503 7371 	add.w	r3, r3, #964	; 0x3c4
 800263a:	461a      	mov	r2, r3
 800263c:	2101      	movs	r1, #1
 800263e:	f004 f82f 	bl	80066a0 <USB_EP0_OutStart>
            }

#if (USE_HAL_PCD_REGISTER_CALLBACKS == 1U)
            hpcd->DataInStageCallback(hpcd, (uint8_t)epnum);
#else
            HAL_PCD_DataInStageCallback(hpcd, (uint8_t)epnum);
 8002642:	6a7b      	ldr	r3, [r7, #36]	; 0x24
 8002644:	b2db      	uxtb	r3, r3
 8002646:	4619      	mov	r1, r3
 8002648:	6878      	ldr	r0, [r7, #4]
 800264a:	f008 ff44 	bl	800b4d6 <HAL_PCD_DataInStageCallback>
#endif /* USE_HAL_PCD_REGISTER_CALLBACKS */
          }
          if ((epint & USB_OTG_DIEPINT_TOC) == USB_OTG_DIEPINT_TOC)
 800264e:	693b      	ldr	r3, [r7, #16]
 8002650:	f003 0308 	and.w	r3, r3, #8
 8002654:	2b00      	cmp	r3, #0
 8002656:	d008      	beq.n	800266a <HAL_PCD_IRQHandler+0x344>
          {
            CLEAR_IN_EP_INTR(epnum, USB_OTG_DIEPINT_TOC);
 8002658:	6a7b      	ldr	r3, [r7, #36]	; 0x24
 800265a:	015a      	lsls	r2, r3, #5
 800265c:	69fb      	ldr	r3, [r7, #28]
 800265e:	4413      	add	r3, r2
 8002660:	f503 6310 	add.w	r3, r3, #2304	; 0x900
 8002664:	461a      	mov	r2, r3
 8002666:	2308      	movs	r3, #8
 8002668:	6093      	str	r3, [r2, #8]
          }
          if ((epint & USB_OTG_DIEPINT_ITTXFE) == USB_OTG_DIEPINT_ITTXFE)
 800266a:	693b      	ldr	r3, [r7, #16]
 800266c:	f003 0310 	and.w	r3, r3, #16
